{
  "_format": "hh-sol-artifact-1",
  "contractName": "QswapTokenCreator",
  "sourceName": "contracts/token/token.sol",
  "abi": [
    {
      "inputs": [
        {
          "internalType": "uint256",
          "name": "initialSupply",
          "type": "uint256"
        },
        {
          "internalType": "string",
          "name": "_name",
          "type": "string"
        },
        {
          "internalType": "string",
          "name": "_symbol",
          "type": "string"
        },
        {
          "internalType": "bool",
          "name": "_isMintable",
          "type": "bool"
        },
        {
          "internalType": "bool",
          "name": "_isBurnable",
          "type": "bool"
        }
      ],
      "stateMutability": "nonpayable",
      "type": "constructor"
    },
    {
      "anonymous": false,
      "inputs": [
        {
          "indexed": true,
          "internalType": "address",
          "name": "owner",
          "type": "address"
        },
        {
          "indexed": true,
          "internalType": "address",
          "name": "spender",
          "type": "address"
        },
        {
          "indexed": false,
          "internalType": "uint256",
          "name": "value",
          "type": "uint256"
        }
      ],
      "name": "Approval",
      "type": "event"
    },
    {
      "anonymous": false,
      "inputs": [
        {
          "indexed": true,
          "internalType": "address",
          "name": "from",
          "type": "address"
        },
        {
          "indexed": false,
          "internalType": "uint256",
          "name": "amount",
          "type": "uint256"
        }
      ],
      "name": "Burn",
      "type": "event"
    },
    {
      "anonymous": false,
      "inputs": [
        {
          "indexed": true,
          "internalType": "address",
          "name": "to",
          "type": "address"
        },
        {
          "indexed": false,
          "internalType": "uint256",
          "name": "amount",
          "type": "uint256"
        }
      ],
      "name": "Mint",
      "type": "event"
    },
    {
      "anonymous": false,
      "inputs": [
        {
          "indexed": true,
          "internalType": "address",
          "name": "from",
          "type": "address"
        },
        {
          "indexed": true,
          "internalType": "address",
          "name": "to",
          "type": "address"
        },
        {
          "indexed": false,
          "internalType": "uint256",
          "name": "value",
          "type": "uint256"
        }
      ],
      "name": "Transfer",
      "type": "event"
    },
    {
      "inputs": [
        {
          "internalType": "address",
          "name": "",
          "type": "address"
        },
        {
          "internalType": "address",
          "name": "",
          "type": "address"
        }
      ],
      "name": "allowance",
      "outputs": [
        {
          "internalType": "uint256",
          "name": "",
          "type": "uint256"
        }
      ],
      "stateMutability": "view",
      "type": "function"
    },
    {
      "inputs": [
        {
          "internalType": "address",
          "name": "spender",
          "type": "address"
        },
        {
          "internalType": "uint256",
          "name": "amount",
          "type": "uint256"
        }
      ],
      "name": "approve",
      "outputs": [
        {
          "internalType": "bool",
          "name": "",
          "type": "bool"
        }
      ],
      "stateMutability": "nonpayable",
      "type": "function"
    },
    {
      "inputs": [
        {
          "internalType": "address",
          "name": "",
          "type": "address"
        }
      ],
      "name": "balanceOf",
      "outputs": [
        {
          "internalType": "uint256",
          "name": "",
          "type": "uint256"
        }
      ],
      "stateMutability": "view",
      "type": "function"
    },
    {
      "inputs": [
        {
          "internalType": "uint256",
          "name": "amount",
          "type": "uint256"
        }
      ],
      "name": "burn",
      "outputs": [
        {
          "internalType": "bool",
          "name": "",
          "type": "bool"
        }
      ],
      "stateMutability": "nonpayable",
      "type": "function"
    },
    {
      "inputs": [],
      "name": "decimals",
      "outputs": [
        {
          "internalType": "uint8",
          "name": "",
          "type": "uint8"
        }
      ],
      "stateMutability": "view",
      "type": "function"
    },
    {
      "inputs": [],
      "name": "isBurnable",
      "outputs": [
        {
          "internalType": "bool",
          "name": "",
          "type": "bool"
        }
      ],
      "stateMutability": "view",
      "type": "function"
    },
    {
      "inputs": [],
      "name": "isMintable",
      "outputs": [
        {
          "internalType": "bool",
          "name": "",
          "type": "bool"
        }
      ],
      "stateMutability": "view",
      "type": "function"
    },
    {
      "inputs": [
        {
          "internalType": "address",
          "name": "to",
          "type": "address"
        },
        {
          "internalType": "uint256",
          "name": "amount",
          "type": "uint256"
        }
      ],
      "name": "mint",
      "outputs": [
        {
          "internalType": "bool",
          "name": "",
          "type": "bool"
        }
      ],
      "stateMutability": "nonpayable",
      "type": "function"
    },
    {
      "inputs": [],
      "name": "name",
      "outputs": [
        {
          "internalType": "string",
          "name": "",
          "type": "string"
        }
      ],
      "stateMutability": "view",
      "type": "function"
    },
    {
      "inputs": [],
      "name": "symbol",
      "outputs": [
        {
          "internalType": "string",
          "name": "",
          "type": "string"
        }
      ],
      "stateMutability": "view",
      "type": "function"
    },
    {
      "inputs": [],
      "name": "totalSupply",
      "outputs": [
        {
          "internalType": "uint256",
          "name": "",
          "type": "uint256"
        }
      ],
      "stateMutability": "view",
      "type": "function"
    },
    {
      "inputs": [
        {
          "internalType": "address",
          "name": "recipient",
          "type": "address"
        },
        {
          "internalType": "uint256",
          "name": "amount",
          "type": "uint256"
        }
      ],
      "name": "transfer",
      "outputs": [
        {
          "internalType": "bool",
          "name": "",
          "type": "bool"
        }
      ],
      "stateMutability": "nonpayable",
      "type": "function"
    },
    {
      "inputs": [
        {
          "internalType": "address",
          "name": "sender",
          "type": "address"
        },
        {
          "internalType": "address",
          "name": "recipient",
          "type": "address"
        },
        {
          "internalType": "uint256",
          "name": "amount",
          "type": "uint256"
        }
      ],
      "name": "transferFrom",
      "outputs": [
        {
          "internalType": "bool",
          "name": "",
          "type": "bool"
        }
      ],
      "stateMutability": "nonpayable",
      "type": "function"
    }
  ],
  "bytecode": "0x60806040526012600460006101000a81548160ff021916908360ff16021790555034801561002c57600080fd5b50604051611c76380380611c76833981810160405281019061004e9190610305565b81600260006101000a81548160ff02191690831515021790555080600260016101000a81548160ff021916908315150217905550836000908161009191906105cf565b5082600190816100a191906105cf565b50600460009054906101000a900460ff1660ff16600a6100c19190610803565b856100cc919061084e565b600381905550600354600560003373ffffffffffffffffffffffffffffffffffffffff1673ffffffffffffffffffffffffffffffffffffffff168152602001908152602001600020819055505050505050610890565b6000604051905090565b600080fd5b600080fd5b6000819050919050565b61014981610136565b811461015457600080fd5b50565b60008151905061016681610140565b92915050565b600080fd5b600080fd5b6000601f19601f8301169050919050565b7f4e487b7100000000000000000000000000000000000000000000000000000000600052604160045260246000fd5b6101bf82610176565b810181811067ffffffffffffffff821117156101de576101dd610187565b5b80604052505050565b60006101f1610122565b90506101fd82826101b6565b919050565b600067ffffffffffffffff82111561021d5761021c610187565b5b61022682610176565b9050602081019050919050565b60005b83811015610251578082015181840152602081019050610236565b60008484015250505050565b600061027061026b84610202565b6101e7565b90508281526020810184848401111561028c5761028b610171565b5b610297848285610233565b509392505050565b600082601f8301126102b4576102b361016c565b5b81516102c484826020860161025d565b91505092915050565b60008115159050919050565b6102e2816102cd565b81146102ed57600080fd5b50565b6000815190506102ff816102d9565b92915050565b600080600080600060a086880312156103215761032061012c565b5b600061032f88828901610157565b955050602086015167ffffffffffffffff8111156103505761034f610131565b5b61035c8882890161029f565b945050604086015167ffffffffffffffff81111561037d5761037c610131565b5b6103898882890161029f565b935050606061039a888289016102f0565b92505060806103ab888289016102f0565b9150509295509295909350565b600081519050919050565b7f4e487b7100000000000000000000000000000000000000000000000000000000600052602260045260246000fd5b6000600282049050600182168061040a57607f821691505b60208210810361041d5761041c6103c3565b5b50919050565b60008190508160005260206000209050919050565b60006020601f8301049050919050565b600082821b905092915050565b6000600883026104857fffffffffffffffffffffffffffffffffffffffffffffffffffffffffffffffff82610448565b61048f8683610448565b95508019841693508086168417925050509392505050565b6000819050919050565b60006104cc6104c76104c284610136565b6104a7565b610136565b9050919050565b6000819050919050565b6104e6836104b1565b6104fa6104f2826104d3565b848454610455565b825550505050565b600090565b61050f610502565b61051a8184846104dd565b505050565b5b8181101561053e57610533600082610507565b600181019050610520565b5050565b601f8211156105835761055481610423565b61055d84610438565b8101602085101561056c578190505b61058061057885610438565b83018261051f565b50505b505050565b600082821c905092915050565b60006105a660001984600802610588565b1980831691505092915050565b60006105bf8383610595565b9150826002028217905092915050565b6105d8826103b8565b67ffffffffffffffff8111156105f1576105f0610187565b5b6105fb82546103f2565b610606828285610542565b600060209050601f8311600181146106395760008415610627578287015190505b61063185826105b3565b865550610699565b601f19841661064786610423565b60005b8281101561066f5784890151825560018201915060208501945060208101905061064a565b8683101561068c5784890151610688601f891682610595565b8355505b6001600288020188555050505b505050505050565b7f4e487b7100000000000000000000000000000000000000000000000000000000600052601160045260246000fd5b60008160011c9050919050565b6000808291508390505b600185111561072757808604811115610703576107026106a1565b5b60018516156107125780820291505b8081029050610720856106d0565b94506106e7565b94509492505050565b60008261074057600190506107fc565b8161074e57600090506107fc565b8160018114610764576002811461076e5761079d565b60019150506107fc565b60ff8411156107805761077f6106a1565b5b8360020a915084821115610797576107966106a1565b5b506107fc565b5060208310610133831016604e8410600b84101617156107d25782820a9050838111156107cd576107cc6106a1565b5b6107fc565b6107df84848460016106dd565b925090508184048111156107f6576107f56106a1565b5b81810290505b9392505050565b600061080e82610136565b915061081983610136565b92506108467fffffffffffffffffffffffffffffffffffffffffffffffffffffffffffffffff8484610730565b905092915050565b600061085982610136565b915061086483610136565b925082820261087281610136565b91508282048414831517610889576108886106a1565b5b5092915050565b6113d78061089f6000396000f3fe608060405234801561001057600080fd5b50600436106100cf5760003560e01c806342966c681161008c578063883356d911610066578063883356d91461023c57806395d89b411461025a578063a9059cbb14610278578063dd62ed3e146102a8576100cf565b806342966c68146101be57806346b45af7146101ee57806370a082311461020c576100cf565b806306fdde03146100d4578063095ea7b3146100f257806318160ddd1461012257806323b872dd14610140578063313ce5671461017057806340c10f191461018e575b600080fd5b6100dc6102d8565b6040516100e99190610da3565b60405180910390f35b61010c60048036038101906101079190610e5e565b610366565b6040516101199190610eb9565b60405180910390f35b61012a610458565b6040516101379190610ee3565b60405180910390f35b61015a60048036038101906101559190610efe565b61045e565b6040516101679190610eb9565b60405180910390f35b610178610750565b6040516101859190610f6d565b60405180910390f35b6101a860048036038101906101a39190610e5e565b610763565b6040516101b59190610eb9565b60405180910390f35b6101d860048036038101906101d39190610f88565b6108ea565b6040516101e59190610eb9565b60405180910390f35b6101f6610a83565b6040516102039190610eb9565b60405180910390f35b61022660048036038101906102219190610fb5565b610a96565b6040516102339190610ee3565b60405180910390f35b610244610aae565b6040516102519190610eb9565b60405180910390f35b610262610ac1565b60405161026f9190610da3565b60405180910390f35b610292600480360381019061028d9190610e5e565b610b4f565b60405161029f9190610eb9565b60405180910390f35b6102c260048036038101906102bd9190610fe2565b610cee565b6040516102cf9190610ee3565b60405180910390f35b600080546102e590611051565b80601f016020809104026020016040519081016040528092919081815260200182805461031190611051565b801561035e5780601f106103335761010080835404028352916020019161035e565b820191906000526020600020905b81548152906001019060200180831161034157829003601f168201915b505050505081565b600081600660003373ffffffffffffffffffffffffffffffffffffffff1673ffffffffffffffffffffffffffffffffffffffff16815260200190815260200160002060008573ffffffffffffffffffffffffffffffffffffffff1673ffffffffffffffffffffffffffffffffffffffff168152602001908152602001600020819055508273ffffffffffffffffffffffffffffffffffffffff163373ffffffffffffffffffffffffffffffffffffffff167f8c5be1e5ebec7d5bd14f71427d1e84f3dd0314c0f7b2291e5b200ac8c7c3b925846040516104469190610ee3565b60405180910390a36001905092915050565b60035481565b600081600560008673ffffffffffffffffffffffffffffffffffffffff1673ffffffffffffffffffffffffffffffffffffffff1681526020019081526020016000205410156104e2576040517f08c379a00000000000000000000000000000000000000000000000000000000081526004016104d9906110ce565b60405180910390fd5b81600660008673ffffffffffffffffffffffffffffffffffffffff1673ffffffffffffffffffffffffffffffffffffffff16815260200190815260200160002060003373ffffffffffffffffffffffffffffffffffffffff1673ffffffffffffffffffffffffffffffffffffffff1681526020019081526020016000205410156105a1576040517f08c379a00000000000000000000000000000000000000000000000000000000081526004016105989061113a565b60405180910390fd5b81600560008673ffffffffffffffffffffffffffffffffffffffff1673ffffffffffffffffffffffffffffffffffffffff16815260200190815260200160002060008282546105f09190611189565b9250508190555081600560008573ffffffffffffffffffffffffffffffffffffffff1673ffffffffffffffffffffffffffffffffffffffff168152602001908152602001600020600082825461064691906111bd565b9250508190555081600660008673ffffffffffffffffffffffffffffffffffffffff1673ffffffffffffffffffffffffffffffffffffffff16815260200190815260200160002060003373ffffffffffffffffffffffffffffffffffffffff1673ffffffffffffffffffffffffffffffffffffffff16815260200190815260200160002060008282546106d99190611189565b925050819055508273ffffffffffffffffffffffffffffffffffffffff168473ffffffffffffffffffffffffffffffffffffffff167fddf252ad1be2c89b69c2b068fc378daa952ba7f163c4a11628f55a4df523b3ef8460405161073d9190610ee3565b60405180910390a3600190509392505050565b600460009054906101000a900460ff1681565b6000600260009054906101000a900460ff166107b4576040517f08c379a00000000000000000000000000000000000000000000000000000000081526004016107ab9061123d565b60405180910390fd5b600073ffffffffffffffffffffffffffffffffffffffff168373ffffffffffffffffffffffffffffffffffffffff1603610823576040517f08c379a000000000000000000000000000000000000000000000000000000000815260040161081a906112a9565b60405180910390fd5b816003600082825461083591906111bd565b9250508190555081600560008573ffffffffffffffffffffffffffffffffffffffff1673ffffffffffffffffffffffffffffffffffffffff168152602001908152602001600020600082825461088b91906111bd565b925050819055508273ffffffffffffffffffffffffffffffffffffffff167f0f6798a560793a54c3bcfe86a93cde1e73087d944c0ea20544137d4121396885836040516108d89190610ee3565b60405180910390a26001905092915050565b6000600260019054906101000a900460ff1661093b576040517f08c379a000000000000000000000000000000000000000000000000000000000815260040161093290611315565b60405180910390fd5b81600560003373ffffffffffffffffffffffffffffffffffffffff1673ffffffffffffffffffffffffffffffffffffffff1681526020019081526020016000205410156109bd576040517f08c379a00000000000000000000000000000000000000000000000000000000081526004016109b490611381565b60405180910390fd5b81600360008282546109cf9190611189565b9250508190555081600560003373ffffffffffffffffffffffffffffffffffffffff1673ffffffffffffffffffffffffffffffffffffffff1681526020019081526020016000206000828254610a259190611189565b925050819055503373ffffffffffffffffffffffffffffffffffffffff167fcc16f5dbb4873280815c1ee09dbd06736cffcc184412cf7a71a0fdb75d397ca583604051610a729190610ee3565b60405180910390a260019050919050565b600260009054906101000a900460ff1681565b60056020528060005260406000206000915090505481565b600260019054906101000a900460ff1681565b60018054610ace90611051565b80601f0160208091040260200160405190810160405280929190818152602001828054610afa90611051565b8015610b475780601f10610b1c57610100808354040283529160200191610b47565b820191906000526020600020905b815481529060010190602001808311610b2a57829003601f168201915b505050505081565b600081600560003373ffffffffffffffffffffffffffffffffffffffff1673ffffffffffffffffffffffffffffffffffffffff168152602001908152602001600020541015610bd3576040517f08c379a0000000000000000000000000000000000000000000000000000000008152600401610bca906110ce565b60405180910390fd5b81600560003373ffffffffffffffffffffffffffffffffffffffff1673ffffffffffffffffffffffffffffffffffffffff1681526020019081526020016000206000828254610c229190611189565b9250508190555081600560008573ffffffffffffffffffffffffffffffffffffffff1673ffffffffffffffffffffffffffffffffffffffff1681526020019081526020016000206000828254610c7891906111bd565b925050819055508273ffffffffffffffffffffffffffffffffffffffff163373ffffffffffffffffffffffffffffffffffffffff167fddf252ad1be2c89b69c2b068fc378daa952ba7f163c4a11628f55a4df523b3ef84604051610cdc9190610ee3565b60405180910390a36001905092915050565b6006602052816000526040600020602052806000526040600020600091509150505481565b600081519050919050565b600082825260208201905092915050565b60005b83811015610d4d578082015181840152602081019050610d32565b60008484015250505050565b6000601f19601f8301169050919050565b6000610d7582610d13565b610d7f8185610d1e565b9350610d8f818560208601610d2f565b610d9881610d59565b840191505092915050565b60006020820190508181036000830152610dbd8184610d6a565b905092915050565b600080fd5b600073ffffffffffffffffffffffffffffffffffffffff82169050919050565b6000610df582610dca565b9050919050565b610e0581610dea565b8114610e1057600080fd5b50565b600081359050610e2281610dfc565b92915050565b6000819050919050565b610e3b81610e28565b8114610e4657600080fd5b50565b600081359050610e5881610e32565b92915050565b60008060408385031215610e7557610e74610dc5565b5b6000610e8385828601610e13565b9250506020610e9485828601610e49565b9150509250929050565b60008115159050919050565b610eb381610e9e565b82525050565b6000602082019050610ece6000830184610eaa565b92915050565b610edd81610e28565b82525050565b6000602082019050610ef86000830184610ed4565b92915050565b600080600060608486031215610f1757610f16610dc5565b5b6000610f2586828701610e13565b9350506020610f3686828701610e13565b9250506040610f4786828701610e49565b9150509250925092565b600060ff82169050919050565b610f6781610f51565b82525050565b6000602082019050610f826000830184610f5e565b92915050565b600060208284031215610f9e57610f9d610dc5565b5b6000610fac84828501610e49565b91505092915050565b600060208284031215610fcb57610fca610dc5565b5b6000610fd984828501610e13565b91505092915050565b60008060408385031215610ff957610ff8610dc5565b5b600061100785828601610e13565b925050602061101885828601610e13565b9150509250929050565b7f4e487b7100000000000000000000000000000000000000000000000000000000600052602260045260246000fd5b6000600282049050600182168061106957607f821691505b60208210810361107c5761107b611022565b5b50919050565b7f496e73756666696369656e742062616c616e6365000000000000000000000000600082015250565b60006110b8601483610d1e565b91506110c382611082565b602082019050919050565b600060208201905081810360008301526110e7816110ab565b9050919050565b7f416c6c6f77616e63652065786365656465640000000000000000000000000000600082015250565b6000611124601283610d1e565b915061112f826110ee565b602082019050919050565b6000602082019050818103600083015261115381611117565b9050919050565b7f4e487b7100000000000000000000000000000000000000000000000000000000600052601160045260246000fd5b600061119482610e28565b915061119f83610e28565b92508282039050818111156111b7576111b661115a565b5b92915050565b60006111c882610e28565b91506111d383610e28565b92508282019050808211156111eb576111ea61115a565b5b92915050565b7f4d696e74696e67206973206e6f7420616c6c6f77656400000000000000000000600082015250565b6000611227601683610d1e565b9150611232826111f1565b602082019050919050565b600060208201905081810360008301526112568161121a565b9050919050565b7f43616e6e6f74206d696e7420746f20746865207a65726f206164647265737300600082015250565b6000611293601f83610d1e565b915061129e8261125d565b602082019050919050565b600060208201905081810360008301526112c281611286565b9050919050565b7f4275726e696e67206973206e6f7420616c6c6f77656400000000000000000000600082015250565b60006112ff601683610d1e565b915061130a826112c9565b602082019050919050565b6000602082019050818103600083015261132e816112f2565b9050919050565b7f496e73756666696369656e742062616c616e636520746f206275726e00000000600082015250565b600061136b601c83610d1e565b915061137682611335565b602082019050919050565b6000602082019050818103600083015261139a8161135e565b905091905056fea26469706673582212201e95dadf486612151d1b46dc52e7210d7651b1c22e21bf048f5eb6f4ff35b10364736f6c634300081c0033",
  "linkReferences": {},
  "deployedLinkReferences": {}
}