{
  "_format": "hh-sol-artifact-1",
  "contractName": "QswapTokenCreator",
  "sourceName": "contracts/token/token.sol",
  "abi": [
    {
      "inputs": [
        {
          "internalType": "uint256",
          "name": "initialSupply",
          "type": "uint256"
        },
        {
          "internalType": "string",
          "name": "_name",
          "type": "string"
        },
        {
          "internalType": "string",
          "name": "_symbol",
          "type": "string"
        },
        {
          "internalType": "bool",
          "name": "_isMintable",
          "type": "bool"
        },
        {
          "internalType": "bool",
          "name": "_isBurnable",
          "type": "bool"
        }
      ],
      "stateMutability": "nonpayable",
      "type": "constructor"
    },
    {
      "anonymous": false,
      "inputs": [
        {
          "indexed": true,
          "internalType": "address",
          "name": "owner",
          "type": "address"
        },
        {
          "indexed": true,
          "internalType": "address",
          "name": "spender",
          "type": "address"
        },
        {
          "indexed": false,
          "internalType": "uint256",
          "name": "value",
          "type": "uint256"
        }
      ],
      "name": "Approval",
      "type": "event"
    },
    {
      "anonymous": false,
      "inputs": [
        {
          "indexed": true,
          "internalType": "address",
          "name": "from",
          "type": "address"
        },
        {
          "indexed": false,
          "internalType": "uint256",
          "name": "amount",
          "type": "uint256"
        }
      ],
      "name": "Burn",
      "type": "event"
    },
    {
      "anonymous": false,
      "inputs": [
        {
          "indexed": true,
          "internalType": "address",
          "name": "to",
          "type": "address"
        },
        {
          "indexed": false,
          "internalType": "uint256",
          "name": "amount",
          "type": "uint256"
        }
      ],
      "name": "Mint",
      "type": "event"
    },
    {
      "anonymous": false,
      "inputs": [
        {
          "indexed": true,
          "internalType": "address",
          "name": "from",
          "type": "address"
        },
        {
          "indexed": true,
          "internalType": "address",
          "name": "to",
          "type": "address"
        },
        {
          "indexed": false,
          "internalType": "uint256",
          "name": "value",
          "type": "uint256"
        }
      ],
      "name": "Transfer",
      "type": "event"
    },
    {
      "inputs": [
        {
          "internalType": "address",
          "name": "",
          "type": "address"
        },
        {
          "internalType": "address",
          "name": "",
          "type": "address"
        }
      ],
      "name": "allowance",
      "outputs": [
        {
          "internalType": "uint256",
          "name": "",
          "type": "uint256"
        }
      ],
      "stateMutability": "view",
      "type": "function"
    },
    {
      "inputs": [
        {
          "internalType": "address",
          "name": "spender",
          "type": "address"
        },
        {
          "internalType": "uint256",
          "name": "amount",
          "type": "uint256"
        }
      ],
      "name": "approve",
      "outputs": [
        {
          "internalType": "bool",
          "name": "",
          "type": "bool"
        }
      ],
      "stateMutability": "nonpayable",
      "type": "function"
    },
    {
      "inputs": [
        {
          "internalType": "address",
          "name": "",
          "type": "address"
        }
      ],
      "name": "balanceOf",
      "outputs": [
        {
          "internalType": "uint256",
          "name": "",
          "type": "uint256"
        }
      ],
      "stateMutability": "view",
      "type": "function"
    },
    {
      "inputs": [
        {
          "internalType": "uint256",
          "name": "amount",
          "type": "uint256"
        }
      ],
      "name": "burn",
      "outputs": [
        {
          "internalType": "bool",
          "name": "",
          "type": "bool"
        }
      ],
      "stateMutability": "nonpayable",
      "type": "function"
    },
    {
      "inputs": [],
      "name": "decimals",
      "outputs": [
        {
          "internalType": "uint8",
          "name": "",
          "type": "uint8"
        }
      ],
      "stateMutability": "view",
      "type": "function"
    },
    {
      "inputs": [],
      "name": "holderCount",
      "outputs": [
        {
          "internalType": "uint256",
          "name": "",
          "type": "uint256"
        }
      ],
      "stateMutability": "view",
      "type": "function"
    },
    {
      "inputs": [],
      "name": "isBurnable",
      "outputs": [
        {
          "internalType": "bool",
          "name": "",
          "type": "bool"
        }
      ],
      "stateMutability": "view",
      "type": "function"
    },
    {
      "inputs": [],
      "name": "isMintable",
      "outputs": [
        {
          "internalType": "bool",
          "name": "",
          "type": "bool"
        }
      ],
      "stateMutability": "view",
      "type": "function"
    },
    {
      "inputs": [
        {
          "internalType": "address",
          "name": "to",
          "type": "address"
        },
        {
          "internalType": "uint256",
          "name": "amount",
          "type": "uint256"
        }
      ],
      "name": "mint",
      "outputs": [
        {
          "internalType": "bool",
          "name": "",
          "type": "bool"
        }
      ],
      "stateMutability": "nonpayable",
      "type": "function"
    },
    {
      "inputs": [],
      "name": "name",
      "outputs": [
        {
          "internalType": "string",
          "name": "",
          "type": "string"
        }
      ],
      "stateMutability": "view",
      "type": "function"
    },
    {
      "inputs": [],
      "name": "symbol",
      "outputs": [
        {
          "internalType": "string",
          "name": "",
          "type": "string"
        }
      ],
      "stateMutability": "view",
      "type": "function"
    },
    {
      "inputs": [],
      "name": "totalSupply",
      "outputs": [
        {
          "internalType": "uint256",
          "name": "",
          "type": "uint256"
        }
      ],
      "stateMutability": "view",
      "type": "function"
    },
    {
      "inputs": [
        {
          "internalType": "address",
          "name": "recipient",
          "type": "address"
        },
        {
          "internalType": "uint256",
          "name": "amount",
          "type": "uint256"
        }
      ],
      "name": "transfer",
      "outputs": [
        {
          "internalType": "bool",
          "name": "",
          "type": "bool"
        }
      ],
      "stateMutability": "nonpayable",
      "type": "function"
    },
    {
      "inputs": [
        {
          "internalType": "address",
          "name": "sender",
          "type": "address"
        },
        {
          "internalType": "address",
          "name": "recipient",
          "type": "address"
        },
        {
          "internalType": "uint256",
          "name": "amount",
          "type": "uint256"
        }
      ],
      "name": "transferFrom",
      "outputs": [
        {
          "internalType": "bool",
          "name": "",
          "type": "bool"
        }
      ],
      "stateMutability": "nonpayable",
      "type": "function"
    }
  ],
  "bytecode": "0x60806040526012600660006101000a81548160ff021916908360ff16021790555034801561002c57600080fd5b50604051611e98380380611e98833981810160405281019061004e91906103db565b81600260006101000a81548160ff02191690831515021790555080600260016101000a81548160ff021916908315150217905550836000908161009191906106a5565b5082600190816100a191906106a5565b50600660009054906101000a900460ff1660ff16600a6100c191906108d9565b856100cc9190610924565b6003819055506100e13361013160201b60201c565b600354600760003373ffffffffffffffffffffffffffffffffffffffff1673ffffffffffffffffffffffffffffffffffffffff16815260200190815260200160002081905550505050505061099a565b600560008273ffffffffffffffffffffffffffffffffffffffff1673ffffffffffffffffffffffffffffffffffffffff16815260200190815260200160002060009054906101000a900460ff166101f5576001600560008373ffffffffffffffffffffffffffffffffffffffff1673ffffffffffffffffffffffffffffffffffffffff16815260200190815260200160002060006101000a81548160ff0219169083151502179055506001600460008282546101ed9190610966565b925050819055505b50565b6000604051905090565b600080fd5b600080fd5b6000819050919050565b61021f8161020c565b811461022a57600080fd5b50565b60008151905061023c81610216565b92915050565b600080fd5b600080fd5b6000601f19601f8301169050919050565b7f4e487b7100000000000000000000000000000000000000000000000000000000600052604160045260246000fd5b6102958261024c565b810181811067ffffffffffffffff821117156102b4576102b361025d565b5b80604052505050565b60006102c76101f8565b90506102d3828261028c565b919050565b600067ffffffffffffffff8211156102f3576102f261025d565b5b6102fc8261024c565b9050602081019050919050565b60005b8381101561032757808201518184015260208101905061030c565b60008484015250505050565b6000610346610341846102d8565b6102bd565b90508281526020810184848401111561036257610361610247565b5b61036d848285610309565b509392505050565b600082601f83011261038a57610389610242565b5b815161039a848260208601610333565b91505092915050565b60008115159050919050565b6103b8816103a3565b81146103c357600080fd5b50565b6000815190506103d5816103af565b92915050565b600080600080600060a086880312156103f7576103f6610202565b5b60006104058882890161022d565b955050602086015167ffffffffffffffff81111561042657610425610207565b5b61043288828901610375565b945050604086015167ffffffffffffffff81111561045357610452610207565b5b61045f88828901610375565b9350506060610470888289016103c6565b9250506080610481888289016103c6565b9150509295509295909350565b600081519050919050565b7f4e487b7100000000000000000000000000000000000000000000000000000000600052602260045260246000fd5b600060028204905060018216806104e057607f821691505b6020821081036104f3576104f2610499565b5b50919050565b60008190508160005260206000209050919050565b60006020601f8301049050919050565b600082821b905092915050565b60006008830261055b7fffffffffffffffffffffffffffffffffffffffffffffffffffffffffffffffff8261051e565b610565868361051e565b95508019841693508086168417925050509392505050565b6000819050919050565b60006105a261059d6105988461020c565b61057d565b61020c565b9050919050565b6000819050919050565b6105bc83610587565b6105d06105c8826105a9565b84845461052b565b825550505050565b600090565b6105e56105d8565b6105f08184846105b3565b505050565b5b81811015610614576106096000826105dd565b6001810190506105f6565b5050565b601f8211156106595761062a816104f9565b6106338461050e565b81016020851015610642578190505b61065661064e8561050e565b8301826105f5565b50505b505050565b600082821c905092915050565b600061067c6000198460080261065e565b1980831691505092915050565b6000610695838361066b565b9150826002028217905092915050565b6106ae8261048e565b67ffffffffffffffff8111156106c7576106c661025d565b5b6106d182546104c8565b6106dc828285610618565b600060209050601f83116001811461070f57600084156106fd578287015190505b6107078582610689565b86555061076f565b601f19841661071d866104f9565b60005b8281101561074557848901518255600182019150602085019450602081019050610720565b86831015610762578489015161075e601f89168261066b565b8355505b6001600288020188555050505b505050505050565b7f4e487b7100000000000000000000000000000000000000000000000000000000600052601160045260246000fd5b60008160011c9050919050565b6000808291508390505b60018511156107fd578086048111156107d9576107d8610777565b5b60018516156107e85780820291505b80810290506107f6856107a6565b94506107bd565b94509492505050565b60008261081657600190506108d2565b8161082457600090506108d2565b816001811461083a576002811461084457610873565b60019150506108d2565b60ff84111561085657610855610777565b5b8360020a91508482111561086d5761086c610777565b5b506108d2565b5060208310610133831016604e8410600b84101617156108a85782820a9050838111156108a3576108a2610777565b5b6108d2565b6108b584848460016107b3565b925090508184048111156108cc576108cb610777565b5b81810290505b9392505050565b60006108e48261020c565b91506108ef8361020c565b925061091c7fffffffffffffffffffffffffffffffffffffffffffffffffffffffffffffffff8484610806565b905092915050565b600061092f8261020c565b915061093a8361020c565b92508282026109488161020c565b9150828204841483151761095f5761095e610777565b5b5092915050565b60006109718261020c565b915061097c8361020c565b925082820190508082111561099457610993610777565b5b92915050565b6114ef806109a96000396000f3fe608060405234801561001057600080fd5b50600436106100ea5760003560e01c806342966c681161008c578063883356d911610066578063883356d91461027557806395d89b4114610293578063a9059cbb146102b1578063dd62ed3e146102e1576100ea565b806342966c68146101f757806346b45af71461022757806370a0823114610245576100ea565b80631aab9a9f116100c85780631aab9a9f1461015b57806323b872dd14610179578063313ce567146101a957806340c10f19146101c7576100ea565b806306fdde03146100ef578063095ea7b31461010d57806318160ddd1461013d575b600080fd5b6100f7610311565b6040516101049190610ebb565b60405180910390f35b61012760048036038101906101229190610f76565b61039f565b6040516101349190610fd1565b60405180910390f35b610145610491565b6040516101529190610ffb565b60405180910390f35b610163610497565b6040516101709190610ffb565b60405180910390f35b610193600480360381019061018e9190611016565b61049d565b6040516101a09190610fd1565b60405180910390f35b6101b1610798565b6040516101be9190611085565b60405180910390f35b6101e160048036038101906101dc9190610f76565b6107ab565b6040516101ee9190610fd1565b60405180910390f35b610211600480360381019061020c91906110a0565b610932565b60405161021e9190610fd1565b60405180910390f35b61022f610acb565b60405161023c9190610fd1565b60405180910390f35b61025f600480360381019061025a91906110cd565b610ade565b60405161026c9190610ffb565b60405180910390f35b61027d610af6565b60405161028a9190610fd1565b60405180910390f35b61029b610b09565b6040516102a89190610ebb565b60405180910390f35b6102cb60048036038101906102c69190610f76565b610b97565b6040516102d89190610fd1565b60405180910390f35b6102fb60048036038101906102f691906110fa565b610d3f565b6040516103089190610ffb565b60405180910390f35b6000805461031e90611169565b80601f016020809104026020016040519081016040528092919081815260200182805461034a90611169565b80156103975780601f1061036c57610100808354040283529160200191610397565b820191906000526020600020905b81548152906001019060200180831161037a57829003601f168201915b505050505081565b600081600860003373ffffffffffffffffffffffffffffffffffffffff1673ffffffffffffffffffffffffffffffffffffffff16815260200190815260200160002060008573ffffffffffffffffffffffffffffffffffffffff1673ffffffffffffffffffffffffffffffffffffffff168152602001908152602001600020819055508273ffffffffffffffffffffffffffffffffffffffff163373ffffffffffffffffffffffffffffffffffffffff167f8c5be1e5ebec7d5bd14f71427d1e84f3dd0314c0f7b2291e5b200ac8c7c3b9258460405161047f9190610ffb565b60405180910390a36001905092915050565b60035481565b60045481565b600081600760008673ffffffffffffffffffffffffffffffffffffffff1673ffffffffffffffffffffffffffffffffffffffff168152602001908152602001600020541015610521576040517f08c379a0000000000000000000000000000000000000000000000000000000008152600401610518906111e6565b60405180910390fd5b81600860008673ffffffffffffffffffffffffffffffffffffffff1673ffffffffffffffffffffffffffffffffffffffff16815260200190815260200160002060003373ffffffffffffffffffffffffffffffffffffffff1673ffffffffffffffffffffffffffffffffffffffff1681526020019081526020016000205410156105e0576040517f08c379a00000000000000000000000000000000000000000000000000000000081526004016105d790611252565b60405180910390fd5b6105e983610d64565b81600760008673ffffffffffffffffffffffffffffffffffffffff1673ffffffffffffffffffffffffffffffffffffffff168152602001908152602001600020600082825461063891906112a1565b9250508190555081600760008573ffffffffffffffffffffffffffffffffffffffff1673ffffffffffffffffffffffffffffffffffffffff168152602001908152602001600020600082825461068e91906112d5565b9250508190555081600860008673ffffffffffffffffffffffffffffffffffffffff1673ffffffffffffffffffffffffffffffffffffffff16815260200190815260200160002060003373ffffffffffffffffffffffffffffffffffffffff1673ffffffffffffffffffffffffffffffffffffffff168152602001908152602001600020600082825461072191906112a1565b925050819055508273ffffffffffffffffffffffffffffffffffffffff168473ffffffffffffffffffffffffffffffffffffffff167fddf252ad1be2c89b69c2b068fc378daa952ba7f163c4a11628f55a4df523b3ef846040516107859190610ffb565b60405180910390a3600190509392505050565b600660009054906101000a900460ff1681565b6000600260009054906101000a900460ff166107fc576040517f08c379a00000000000000000000000000000000000000000000000000000000081526004016107f390611355565b60405180910390fd5b600073ffffffffffffffffffffffffffffffffffffffff168373ffffffffffffffffffffffffffffffffffffffff160361086b576040517f08c379a0000000000000000000000000000000000000000000000000000000008152600401610862906113c1565b60405180910390fd5b816003600082825461087d91906112d5565b9250508190555081600760008573ffffffffffffffffffffffffffffffffffffffff1673ffffffffffffffffffffffffffffffffffffffff16815260200190815260200160002060008282546108d391906112d5565b925050819055508273ffffffffffffffffffffffffffffffffffffffff167f0f6798a560793a54c3bcfe86a93cde1e73087d944c0ea20544137d4121396885836040516109209190610ffb565b60405180910390a26001905092915050565b6000600260019054906101000a900460ff16610983576040517f08c379a000000000000000000000000000000000000000000000000000000000815260040161097a9061142d565b60405180910390fd5b81600760003373ffffffffffffffffffffffffffffffffffffffff1673ffffffffffffffffffffffffffffffffffffffff168152602001908152602001600020541015610a05576040517f08c379a00000000000000000000000000000000000000000000000000000000081526004016109fc90611499565b60405180910390fd5b8160036000828254610a1791906112a1565b9250508190555081600760003373ffffffffffffffffffffffffffffffffffffffff1673ffffffffffffffffffffffffffffffffffffffff1681526020019081526020016000206000828254610a6d91906112a1565b925050819055503373ffffffffffffffffffffffffffffffffffffffff167fcc16f5dbb4873280815c1ee09dbd06736cffcc184412cf7a71a0fdb75d397ca583604051610aba9190610ffb565b60405180910390a260019050919050565b600260009054906101000a900460ff1681565b60076020528060005260406000206000915090505481565b600260019054906101000a900460ff1681565b60018054610b1690611169565b80601f0160208091040260200160405190810160405280929190818152602001828054610b4290611169565b8015610b8f5780601f10610b6457610100808354040283529160200191610b8f565b820191906000526020600020905b815481529060010190602001808311610b7257829003601f168201915b505050505081565b600081600760003373ffffffffffffffffffffffffffffffffffffffff1673ffffffffffffffffffffffffffffffffffffffff168152602001908152602001600020541015610c1b576040517f08c379a0000000000000000000000000000000000000000000000000000000008152600401610c12906111e6565b60405180910390fd5b610c2483610d64565b81600760003373ffffffffffffffffffffffffffffffffffffffff1673ffffffffffffffffffffffffffffffffffffffff1681526020019081526020016000206000828254610c7391906112a1565b9250508190555081600760008573ffffffffffffffffffffffffffffffffffffffff1673ffffffffffffffffffffffffffffffffffffffff1681526020019081526020016000206000828254610cc991906112d5565b925050819055508273ffffffffffffffffffffffffffffffffffffffff163373ffffffffffffffffffffffffffffffffffffffff167fddf252ad1be2c89b69c2b068fc378daa952ba7f163c4a11628f55a4df523b3ef84604051610d2d9190610ffb565b60405180910390a36001905092915050565b6008602052816000526040600020602052806000526040600020600091509150505481565b600560008273ffffffffffffffffffffffffffffffffffffffff1673ffffffffffffffffffffffffffffffffffffffff16815260200190815260200160002060009054906101000a900460ff16610e28576001600560008373ffffffffffffffffffffffffffffffffffffffff1673ffffffffffffffffffffffffffffffffffffffff16815260200190815260200160002060006101000a81548160ff021916908315150217905550600160046000828254610e2091906112d5565b925050819055505b50565b600081519050919050565b600082825260208201905092915050565b60005b83811015610e65578082015181840152602081019050610e4a565b60008484015250505050565b6000601f19601f8301169050919050565b6000610e8d82610e2b565b610e978185610e36565b9350610ea7818560208601610e47565b610eb081610e71565b840191505092915050565b60006020820190508181036000830152610ed58184610e82565b905092915050565b600080fd5b600073ffffffffffffffffffffffffffffffffffffffff82169050919050565b6000610f0d82610ee2565b9050919050565b610f1d81610f02565b8114610f2857600080fd5b50565b600081359050610f3a81610f14565b92915050565b6000819050919050565b610f5381610f40565b8114610f5e57600080fd5b50565b600081359050610f7081610f4a565b92915050565b60008060408385031215610f8d57610f8c610edd565b5b6000610f9b85828601610f2b565b9250506020610fac85828601610f61565b9150509250929050565b60008115159050919050565b610fcb81610fb6565b82525050565b6000602082019050610fe66000830184610fc2565b92915050565b610ff581610f40565b82525050565b60006020820190506110106000830184610fec565b92915050565b60008060006060848603121561102f5761102e610edd565b5b600061103d86828701610f2b565b935050602061104e86828701610f2b565b925050604061105f86828701610f61565b9150509250925092565b600060ff82169050919050565b61107f81611069565b82525050565b600060208201905061109a6000830184611076565b92915050565b6000602082840312156110b6576110b5610edd565b5b60006110c484828501610f61565b91505092915050565b6000602082840312156110e3576110e2610edd565b5b60006110f184828501610f2b565b91505092915050565b6000806040838503121561111157611110610edd565b5b600061111f85828601610f2b565b925050602061113085828601610f2b565b9150509250929050565b7f4e487b7100000000000000000000000000000000000000000000000000000000600052602260045260246000fd5b6000600282049050600182168061118157607f821691505b6020821081036111945761119361113a565b5b50919050565b7f496e73756666696369656e742062616c616e6365000000000000000000000000600082015250565b60006111d0601483610e36565b91506111db8261119a565b602082019050919050565b600060208201905081810360008301526111ff816111c3565b9050919050565b7f416c6c6f77616e63652065786365656465640000000000000000000000000000600082015250565b600061123c601283610e36565b915061124782611206565b602082019050919050565b6000602082019050818103600083015261126b8161122f565b9050919050565b7f4e487b7100000000000000000000000000000000000000000000000000000000600052601160045260246000fd5b60006112ac82610f40565b91506112b783610f40565b92508282039050818111156112cf576112ce611272565b5b92915050565b60006112e082610f40565b91506112eb83610f40565b925082820190508082111561130357611302611272565b5b92915050565b7f4d696e74696e67206973206e6f7420616c6c6f77656400000000000000000000600082015250565b600061133f601683610e36565b915061134a82611309565b602082019050919050565b6000602082019050818103600083015261136e81611332565b9050919050565b7f43616e6e6f74206d696e7420746f20746865207a65726f206164647265737300600082015250565b60006113ab601f83610e36565b91506113b682611375565b602082019050919050565b600060208201905081810360008301526113da8161139e565b9050919050565b7f4275726e696e67206973206e6f7420616c6c6f77656400000000000000000000600082015250565b6000611417601683610e36565b9150611422826113e1565b602082019050919050565b600060208201905081810360008301526114468161140a565b9050919050565b7f496e73756666696369656e742062616c616e636520746f206275726e00000000600082015250565b6000611483601c83610e36565b915061148e8261144d565b602082019050919050565b600060208201905081810360008301526114b281611476565b905091905056fea264697066735822122043df1d2746d7ed0efc6c8e4990f74899376367ed60268843833892f140e6ac3364736f6c634300081c0033",
  "linkReferences": {},
  "deployedLinkReferences": {}
}