{
  "_format": "hh-sol-artifact-1",
  "contractName": "QswapConstantProductPair",
  "sourceName": "contracts/swap/qswapPair.sol",
  "abi": [
    {
      "inputs": [
        {
          "internalType": "address",
          "name": "_tokenX",
          "type": "address"
        },
        {
          "internalType": "uint256",
          "name": "_amountTokenX",
          "type": "uint256"
        },
        {
          "internalType": "address",
          "name": "_tokenY",
          "type": "address"
        },
        {
          "internalType": "uint256",
          "name": "_amountTokenY",
          "type": "uint256"
        },
        {
          "internalType": "uint256",
          "name": "_fee",
          "type": "uint256"
        },
        {
          "internalType": "address",
          "name": "tokenBalanceUpdater",
          "type": "address"
        },
        {
          "internalType": "address",
          "name": "_liquidityToken",
          "type": "address"
        }
      ],
      "stateMutability": "nonpayable",
      "type": "constructor"
    },
    {
      "anonymous": false,
      "inputs": [
        {
          "indexed": true,
          "internalType": "address",
          "name": "sender",
          "type": "address"
        },
        {
          "indexed": false,
          "internalType": "uint256",
          "name": "amountX",
          "type": "uint256"
        },
        {
          "indexed": false,
          "internalType": "uint256",
          "name": "amountY",
          "type": "uint256"
        },
        {
          "indexed": false,
          "internalType": "uint256",
          "name": "liquidityMinted",
          "type": "uint256"
        }
      ],
      "name": "AddLiquidity",
      "type": "event"
    },
    {
      "anonymous": false,
      "inputs": [
        {
          "indexed": true,
          "internalType": "address",
          "name": "tokenX",
          "type": "address"
        },
        {
          "indexed": true,
          "internalType": "address",
          "name": "tokenY",
          "type": "address"
        },
        {
          "indexed": true,
          "internalType": "address",
          "name": "liquidityToken",
          "type": "address"
        }
      ],
      "name": "LiquidityTokenCreated",
      "type": "event"
    },
    {
      "anonymous": false,
      "inputs": [
        {
          "indexed": true,
          "internalType": "address",
          "name": "sender",
          "type": "address"
        },
        {
          "indexed": false,
          "internalType": "uint256",
          "name": "amount0",
          "type": "uint256"
        },
        {
          "indexed": false,
          "internalType": "uint256",
          "name": "amount1",
          "type": "uint256"
        },
        {
          "indexed": false,
          "internalType": "uint256",
          "name": "liquidity",
          "type": "uint256"
        }
      ],
      "name": "RemoveLiquidity",
      "type": "event"
    },
    {
      "anonymous": false,
      "inputs": [
        {
          "indexed": true,
          "internalType": "address",
          "name": "sender",
          "type": "address"
        },
        {
          "indexed": true,
          "internalType": "address",
          "name": "tokenIn",
          "type": "address"
        },
        {
          "indexed": true,
          "internalType": "address",
          "name": "tokenOut",
          "type": "address"
        },
        {
          "indexed": false,
          "internalType": "uint256",
          "name": "amountIn",
          "type": "uint256"
        },
        {
          "indexed": false,
          "internalType": "uint256",
          "name": "amountOut",
          "type": "uint256"
        }
      ],
      "name": "Swap",
      "type": "event"
    },
    {
      "anonymous": false,
      "inputs": [
        {
          "indexed": false,
          "internalType": "uint256",
          "name": "reserveX",
          "type": "uint256"
        },
        {
          "indexed": false,
          "internalType": "uint256",
          "name": "reserveY",
          "type": "uint256"
        }
      ],
      "name": "Sync",
      "type": "event"
    },
    {
      "inputs": [],
      "name": "_reserveX",
      "outputs": [
        {
          "internalType": "uint256",
          "name": "",
          "type": "uint256"
        }
      ],
      "stateMutability": "view",
      "type": "function"
    },
    {
      "inputs": [],
      "name": "_reserveY",
      "outputs": [
        {
          "internalType": "uint256",
          "name": "",
          "type": "uint256"
        }
      ],
      "stateMutability": "view",
      "type": "function"
    },
    {
      "inputs": [
        {
          "internalType": "uint256",
          "name": "amount",
          "type": "uint256"
        },
        {
          "internalType": "bool",
          "name": "isReverse",
          "type": "bool"
        }
      ],
      "name": "addLiquidity",
      "outputs": [],
      "stateMutability": "nonpayable",
      "type": "function"
    },
    {
      "inputs": [],
      "name": "feeDenominator",
      "outputs": [
        {
          "internalType": "uint256",
          "name": "",
          "type": "uint256"
        }
      ],
      "stateMutability": "view",
      "type": "function"
    },
    {
      "inputs": [],
      "name": "feePercentage",
      "outputs": [
        {
          "internalType": "uint256",
          "name": "",
          "type": "uint256"
        }
      ],
      "stateMutability": "view",
      "type": "function"
    },
    {
      "inputs": [],
      "name": "getReserves",
      "outputs": [
        {
          "internalType": "uint256",
          "name": "",
          "type": "uint256"
        },
        {
          "internalType": "uint256",
          "name": "",
          "type": "uint256"
        }
      ],
      "stateMutability": "view",
      "type": "function"
    },
    {
      "inputs": [],
      "name": "liquidityToken",
      "outputs": [
        {
          "internalType": "contract QswapTokenCreator",
          "name": "",
          "type": "address"
        }
      ],
      "stateMutability": "view",
      "type": "function"
    },
    {
      "inputs": [
        {
          "internalType": "uint256",
          "name": "liquidity",
          "type": "uint256"
        }
      ],
      "name": "removeLiquidity",
      "outputs": [],
      "stateMutability": "nonpayable",
      "type": "function"
    },
    {
      "inputs": [
        {
          "internalType": "address",
          "name": "addressTokenToswap",
          "type": "address"
        },
        {
          "internalType": "uint256",
          "name": "amountToSwap",
          "type": "uint256"
        },
        {
          "internalType": "bool",
          "name": "isReverse",
          "type": "bool"
        },
        {
          "internalType": "address",
          "name": "to",
          "type": "address"
        }
      ],
      "name": "swap",
      "outputs": [],
      "stateMutability": "nonpayable",
      "type": "function"
    },
    {
      "inputs": [],
      "name": "tokenX",
      "outputs": [
        {
          "internalType": "contract QswapTokenCreator",
          "name": "",
          "type": "address"
        }
      ],
      "stateMutability": "view",
      "type": "function"
    },
    {
      "inputs": [],
      "name": "tokenY",
      "outputs": [
        {
          "internalType": "contract QswapTokenCreator",
          "name": "",
          "type": "address"
        }
      ],
      "stateMutability": "view",
      "type": "function"
    }
  ],
  "bytecode": "0x608060405261271060045534801561001657600080fd5b5060405161233638038061233683398181016040528101906100389190610531565b866000806101000a81548173ffffffffffffffffffffffffffffffffffffffff021916908373ffffffffffffffffffffffffffffffffffffffff16021790555084600160006101000a81548173ffffffffffffffffffffffffffffffffffffffff021916908373ffffffffffffffffffffffffffffffffffffffff16021790555085600581905550836006819055508260038190555080600260006101000a81548173ffffffffffffffffffffffffffffffffffffffff021916908373ffffffffffffffffffffffffffffffffffffffff160217905550600260009054906101000a900473ffffffffffffffffffffffffffffffffffffffff1673ffffffffffffffffffffffffffffffffffffffff16600160009054906101000a900473ffffffffffffffffffffffffffffffffffffffff1673ffffffffffffffffffffffffffffffffffffffff1660008054906101000a900473ffffffffffffffffffffffffffffffffffffffff1673ffffffffffffffffffffffffffffffffffffffff167fd5b15d880a99babcad7baedddbe6d03dcc853b8484aa58ec19d1db08eeebc29660405160405180910390a481600860006101000a81548173ffffffffffffffffffffffffffffffffffffffff021916908373ffffffffffffffffffffffffffffffffffffffff160217905550600860009054906101000a900473ffffffffffffffffffffffffffffffffffffffff1673ffffffffffffffffffffffffffffffffffffffff166343aaa6908832308a6040518563ffffffff1660e01b815260040161028694939291906105f1565b600060405180830381600087803b1580156102a057600080fd5b505af11580156102b4573d6000803e3d6000fd5b50505050600860009054906101000a900473ffffffffffffffffffffffffffffffffffffffff1673ffffffffffffffffffffffffffffffffffffffff166343aaa690863230886040518563ffffffff1660e01b815260040161031994939291906105f1565b600060405180830381600087803b15801561033357600080fd5b505af1158015610347573d6000803e3d6000fd5b505050506000610367858861035c9190610665565b61041e60201b60201c565b905080600781905550600260009054906101000a900473ffffffffffffffffffffffffffffffffffffffff1673ffffffffffffffffffffffffffffffffffffffff166340c10f1932836040518363ffffffff1660e01b81526004016103cd9291906106a7565b6020604051808303816000875af11580156103ec573d6000803e3d6000fd5b505050506040513d601f19601f820116820180604052508101906104109190610708565b5050505050505050506107c9565b60006003821115610485578190506000600160028461043d9190610764565b6104479190610795565b90505b8181101561047f5780915060028182856104649190610764565b61046e9190610795565b6104789190610764565b905061044a565b50610493565b6000821461049257600190505b5b919050565b600080fd5b600073ffffffffffffffffffffffffffffffffffffffff82169050919050565b60006104c88261049d565b9050919050565b6104d8816104bd565b81146104e357600080fd5b50565b6000815190506104f5816104cf565b92915050565b6000819050919050565b61050e816104fb565b811461051957600080fd5b50565b60008151905061052b81610505565b92915050565b600080600080600080600060e0888a0312156105505761054f610498565b5b600061055e8a828b016104e6565b975050602061056f8a828b0161051c565b96505060406105808a828b016104e6565b95505060606105918a828b0161051c565b94505060806105a28a828b0161051c565b93505060a06105b38a828b016104e6565b92505060c06105c48a828b016104e6565b91505092959891949750929550565b6105dc816104bd565b82525050565b6105eb816104fb565b82525050565b600060808201905061060660008301876105d3565b61061360208301866105d3565b61062060408301856105d3565b61062d60608301846105e2565b95945050505050565b7f4e487b7100000000000000000000000000000000000000000000000000000000600052601160045260246000fd5b6000610670826104fb565b915061067b836104fb565b9250828202610689816104fb565b915082820484148315176106a05761069f610636565b5b5092915050565b60006040820190506106bc60008301856105d3565b6106c960208301846105e2565b9392505050565b60008115159050919050565b6106e5816106d0565b81146106f057600080fd5b50565b600081519050610702816106dc565b92915050565b60006020828403121561071e5761071d610498565b5b600061072c848285016106f3565b91505092915050565b7f4e487b7100000000000000000000000000000000000000000000000000000000600052601260045260246000fd5b600061076f826104fb565b915061077a836104fb565b92508261078a57610789610735565b5b828204905092915050565b60006107a0826104fb565b91506107ab836104fb565b92508282019050808211156107c3576107c2610636565b5b92915050565b611b5e806107d86000396000f3fe608060405234801561001057600080fd5b50600436106100a95760003560e01c80639c8f9f23116100715780639c8f9f2314610143578063a001ecdd1461015f578063b7d19fc41461017d578063c71cca621461019b578063e650cd8f146101b9578063fa5e3b6d146101d5576100a9565b80630902f1ac146100ae57806316dc165b146100cd578063180b0d7e146100eb57806343cd8f7e146101095780638a3aacb314610127575b600080fd5b6100b66101f3565b6040516100c49291906112de565b60405180910390f35b6100d5610204565b6040516100e29190611386565b60405180910390f35b6100f3610228565b60405161010091906113a1565b60405180910390f35b61011161022e565b60405161011e9190611386565b60405180910390f35b610141600480360381019061013c9190611425565b610254565b005b61015d60048036038101906101589190611465565b610519565b005b610167610af7565b60405161017491906113a1565b60405180910390f35b610185610afd565b6040516101929190611386565b60405180910390f35b6101a3610b23565b6040516101b091906113a1565b60405180910390f35b6101d360048036038101906101ce91906114d0565b610b29565b005b6101dd610def565b6040516101ea91906113a1565b60405180910390f35b600080600554600654915091509091565b60008054906101000a900473ffffffffffffffffffffffffffffffffffffffff1681565b60045481565b600260009054906101000a900473ffffffffffffffffffffffffffffffffffffffff1681565b60008211610297576040517f08c379a000000000000000000000000000000000000000000000000000000000815260040161028e90611594565b60405180910390fd5b6000806000806102a685610df5565b93509350935093506000841180156102be5750600083115b6102fd576040517f08c379a00000000000000000000000000000000000000000000000000000000081526004016102f490611600565b60405180910390fd5b600083878661030c919061164f565b61031691906116c0565b90506000811161035b576040517f08c379a00000000000000000000000000000000000000000000000000000000081526004016103529061173d565b60405180910390fd5b61036783323084610eb2565b6103738232308a610eb2565b6000600260009054906101000a900473ffffffffffffffffffffffffffffffffffffffff1673ffffffffffffffffffffffffffffffffffffffff166318160ddd6040518163ffffffff1660e01b8152600401602060405180830381865afa1580156103e2573d6000803e3d6000fd5b505050506040513d601f19601f820116820180604052508101906104069190611772565b905061041432838a8a610f4b565b600081600260009054906101000a900473ffffffffffffffffffffffffffffffffffffffff1673ffffffffffffffffffffffffffffffffffffffff166318160ddd6040518163ffffffff1660e01b8152600401602060405180830381865afa158015610484573d6000803e3d6000fd5b505050506040513d601f19601f820116820180604052508101906104a89190611772565b6104b2919061179f565b90506104bc61107a565b3273ffffffffffffffffffffffffffffffffffffffff167fbeb3885786d637a474cbc287c0a44587231633a077f0bd30354d5a4b18996fce848b84604051610506939291906117d3565b60405180910390a2505050505050505050565b6000811161055c576040517f08c379a000000000000000000000000000000000000000000000000000000000815260040161055390611856565b60405180910390fd5b80600260009054906101000a900473ffffffffffffffffffffffffffffffffffffffff1673ffffffffffffffffffffffffffffffffffffffff166370a08231326040518263ffffffff1660e01b81526004016105b89190611885565b602060405180830381865afa1580156105d5573d6000803e3d6000fd5b505050506040513d601f19601f820116820180604052508101906105f99190611772565b101561063a576040517f08c379a0000000000000000000000000000000000000000000000000000000008152600401610631906118ec565b60405180910390fd5b60006005549050600060065490506000821180156106585750600081115b610697576040517f08c379a000000000000000000000000000000000000000000000000000000000815260040161068e90611600565b60405180910390fd5b600060075484846106a8919061164f565b6106b291906116c0565b9050600060075485846106c5919061164f565b6106cf91906116c0565b90506000821180156106e15750600081115b610720576040517f08c379a000000000000000000000000000000000000000000000000000000000815260040161071790611856565b60405180910390fd5b600260009054906101000a900473ffffffffffffffffffffffffffffffffffffffff1673ffffffffffffffffffffffffffffffffffffffff166323b872dd3230886040518463ffffffff1660e01b815260040161077f9392919061190c565b6020604051808303816000875af115801561079e573d6000803e3d6000fd5b505050506040513d601f19601f820116820180604052508101906107c29190611958565b50600260009054906101000a900473ffffffffffffffffffffffffffffffffffffffff1673ffffffffffffffffffffffffffffffffffffffff166342966c68866040518263ffffffff1660e01b815260040161081e91906113a1565b6020604051808303816000875af115801561083d573d6000803e3d6000fd5b505050506040513d601f19601f820116820180604052508101906108619190611958565b508460076000828254610874919061179f565b9250508190555060008054906101000a900473ffffffffffffffffffffffffffffffffffffffff1673ffffffffffffffffffffffffffffffffffffffff1663095ea7b3600860009054906101000a900473ffffffffffffffffffffffffffffffffffffffff16846040518363ffffffff1660e01b81526004016108f8929190611985565b6020604051808303816000875af1158015610917573d6000803e3d6000fd5b505050506040513d601f19601f8201168201806040525081019061093b9190611958565b50600160009054906101000a900473ffffffffffffffffffffffffffffffffffffffff1673ffffffffffffffffffffffffffffffffffffffff1663095ea7b3600860009054906101000a900473ffffffffffffffffffffffffffffffffffffffff16836040518363ffffffff1660e01b81526004016109bb929190611985565b6020604051808303816000875af11580156109da573d6000803e3d6000fd5b505050506040513d601f19601f820116820180604052508101906109fe9190611958565b50610a2b60008054906101000a900473ffffffffffffffffffffffffffffffffffffffff16303285610eb2565b610a59600160009054906101000a900473ffffffffffffffffffffffffffffffffffffffff16303284610eb2565b610a6161107a565b3373ffffffffffffffffffffffffffffffffffffffff167f59c3a0b60c6ab7deb62e1440c9e72441db6db7dfe514dba8cb18e60c0d896efa838388604051610aab939291906117d3565b60405180910390a27fcf2aa50876cdfbb541206f89af0ee78d44a2abf8d328e37fa4917f982149848a600554600654604051610ae89291906112de565b60405180910390a15050505050565b60035481565b600160009054906101000a900473ffffffffffffffffffffffffffffffffffffffff1681565b60055481565b60008311610b6c576040517f08c379a0000000000000000000000000000000000000000000000000000000008152600401610b6390611594565b60405180910390fd5b600073ffffffffffffffffffffffffffffffffffffffff168173ffffffffffffffffffffffffffffffffffffffff1603610bdb576040517f08c379a0000000000000000000000000000000000000000000000000000000008152600401610bd2906119fa565b60405180910390fd5b6000806000806000610bee88888b611206565b9450945094509450945060008511610c3b576040517f08c379a0000000000000000000000000000000000000000000000000000000008152600401610c3290611600565b60405180910390fd5b60008185610c499190611a1a565b86610c5491906116c0565b85610c5f919061179f565b905060008111610ca4576040517f08c379a0000000000000000000000000000000000000000000000000000000008152600401610c9b90611a9a565b60405180910390fd5b610cb084883085610eb2565b8273ffffffffffffffffffffffffffffffffffffffff1663095ea7b3600860009054906101000a900473ffffffffffffffffffffffffffffffffffffffff16836040518363ffffffff1660e01b8152600401610d0d929190611985565b6020604051808303816000875af1158015610d2c573d6000803e3d6000fd5b505050506040513d601f19601f82011682018060405250810190610d509190611958565b50610d5d83308984610eb2565b610d6561107a565b8273ffffffffffffffffffffffffffffffffffffffff168473ffffffffffffffffffffffffffffffffffffffff163373ffffffffffffffffffffffffffffffffffffffff167fcd3829a3813dc3cdd188fd3d01dcf3268c16be2fdd2dd21d0665418816e460628585604051610ddb9291906112de565b60405180910390a450505050505050505050565b60065481565b6000806000808415610e58576005549350600654925060008054906101000a900473ffffffffffffffffffffffffffffffffffffffff169150600160009054906101000a900473ffffffffffffffffffffffffffffffffffffffff169050610eab565b60065493506005549250600160009054906101000a900473ffffffffffffffffffffffffffffffffffffffff16915060008054906101000a900473ffffffffffffffffffffffffffffffffffffffff1690505b9193509193565b600860009054906101000a900473ffffffffffffffffffffffffffffffffffffffff1673ffffffffffffffffffffffffffffffffffffffff166343aaa690858585856040518563ffffffff1660e01b8152600401610f139493929190611aba565b600060405180830381600087803b158015610f2d57600080fd5b505af1158015610f41573d6000803e3d6000fd5b5050505050505050565b60008082610f625760055491506006549050610f6d565b600654915060055490505b60008260075487610f7e919061164f565b610f8891906116c0565b905060008260075487610f9b919061164f565b610fa591906116c0565b90506000610fb383836112ac565b90508060076000828254610fc79190611a1a565b92505081905550600260009054906101000a900473ffffffffffffffffffffffffffffffffffffffff1673ffffffffffffffffffffffffffffffffffffffff166340c10f198a836040518363ffffffff1660e01b815260040161102b929190611985565b6020604051808303816000875af115801561104a573d6000803e3d6000fd5b505050506040513d601f19601f8201168201806040525081019061106e9190611958565b50505050505050505050565b600860009054906101000a900473ffffffffffffffffffffffffffffffffffffffff1673ffffffffffffffffffffffffffffffffffffffff1663c489744b60008054906101000a900473ffffffffffffffffffffffffffffffffffffffff16306040518363ffffffff1660e01b81526004016110f7929190611aff565b602060405180830381865afa158015611114573d6000803e3d6000fd5b505050506040513d601f19601f820116820180604052508101906111389190611772565b600581905550600860009054906101000a900473ffffffffffffffffffffffffffffffffffffffff1673ffffffffffffffffffffffffffffffffffffffff1663c489744b600160009054906101000a900473ffffffffffffffffffffffffffffffffffffffff16306040518363ffffffff1660e01b81526004016111bd929190611aff565b602060405180830381865afa1580156111da573d6000803e3d6000fd5b505050506040513d601f19601f820116820180604052508101906111fe9190611772565b600681905550565b600080600080600060065460055461121e919061164f565b94506103e86103e589611231919061164f565b61123b91906116c0565b90508615611275576005549350859250600160009054906101000a900473ffffffffffffffffffffffffffffffffffffffff1691506112a1565b600654935060008054906101000a900473ffffffffffffffffffffffffffffffffffffffff1692508591505b939792965093509350565b60008183106112bb57816112bd565b825b905092915050565b6000819050919050565b6112d8816112c5565b82525050565b60006040820190506112f360008301856112cf565b61130060208301846112cf565b9392505050565b600073ffffffffffffffffffffffffffffffffffffffff82169050919050565b6000819050919050565b600061134c61134761134284611307565b611327565b611307565b9050919050565b600061135e82611331565b9050919050565b600061137082611353565b9050919050565b61138081611365565b82525050565b600060208201905061139b6000830184611377565b92915050565b60006020820190506113b660008301846112cf565b92915050565b600080fd5b6113ca816112c5565b81146113d557600080fd5b50565b6000813590506113e7816113c1565b92915050565b60008115159050919050565b611402816113ed565b811461140d57600080fd5b50565b60008135905061141f816113f9565b92915050565b6000806040838503121561143c5761143b6113bc565b5b600061144a858286016113d8565b925050602061145b85828601611410565b9150509250929050565b60006020828403121561147b5761147a6113bc565b5b6000611489848285016113d8565b91505092915050565b600061149d82611307565b9050919050565b6114ad81611492565b81146114b857600080fd5b50565b6000813590506114ca816114a4565b92915050565b600080600080608085870312156114ea576114e96113bc565b5b60006114f8878288016114bb565b9450506020611509878288016113d8565b935050604061151a87828801611410565b925050606061152b878288016114bb565b91505092959194509250565b600082825260208201905092915050565b7f4130000000000000000000000000000000000000000000000000000000000000600082015250565b600061157e600283611537565b915061158982611548565b602082019050919050565b600060208201905081810360008301526115ad81611571565b9050919050565b7f4230000000000000000000000000000000000000000000000000000000000000600082015250565b60006115ea600283611537565b91506115f5826115b4565b602082019050919050565b60006020820190508181036000830152611619816115dd565b9050919050565b7f4e487b7100000000000000000000000000000000000000000000000000000000600052601160045260246000fd5b600061165a826112c5565b9150611665836112c5565b9250828202611673816112c5565b9150828204841483151761168a57611689611620565b5b5092915050565b7f4e487b7100000000000000000000000000000000000000000000000000000000600052601260045260246000fd5b60006116cb826112c5565b91506116d6836112c5565b9250826116e6576116e5611691565b5b828204905092915050565b7f4232000000000000000000000000000000000000000000000000000000000000600082015250565b6000611727600283611537565b9150611732826116f1565b602082019050919050565b600060208201905081810360008301526117568161171a565b9050919050565b60008151905061176c816113c1565b92915050565b600060208284031215611788576117876113bc565b5b60006117968482850161175d565b91505092915050565b60006117aa826112c5565b91506117b5836112c5565b92508282039050818111156117cd576117cc611620565b5b92915050565b60006060820190506117e860008301866112cf565b6117f560208301856112cf565b61180260408301846112cf565b949350505050565b7f4330000000000000000000000000000000000000000000000000000000000000600082015250565b6000611840600283611537565b915061184b8261180a565b602082019050919050565b6000602082019050818103600083015261186f81611833565b9050919050565b61187f81611492565b82525050565b600060208201905061189a6000830184611876565b92915050565b7f4331000000000000000000000000000000000000000000000000000000000000600082015250565b60006118d6600283611537565b91506118e1826118a0565b602082019050919050565b60006020820190508181036000830152611905816118c9565b9050919050565b60006060820190506119216000830186611876565b61192e6020830185611876565b61193b60408301846112cf565b949350505050565b600081519050611952816113f9565b92915050565b60006020828403121561196e5761196d6113bc565b5b600061197c84828501611943565b91505092915050565b600060408201905061199a6000830185611876565b6119a760208301846112cf565b9392505050565b7f4131000000000000000000000000000000000000000000000000000000000000600082015250565b60006119e4600283611537565b91506119ef826119ae565b602082019050919050565b60006020820190508181036000830152611a13816119d7565b9050919050565b6000611a25826112c5565b9150611a30836112c5565b9250828201905080821115611a4857611a47611620565b5b92915050565b7f4231000000000000000000000000000000000000000000000000000000000000600082015250565b6000611a84600283611537565b9150611a8f82611a4e565b602082019050919050565b60006020820190508181036000830152611ab381611a77565b9050919050565b6000608082019050611acf6000830187611876565b611adc6020830186611876565b611ae96040830185611876565b611af660608301846112cf565b95945050505050565b6000604082019050611b146000830185611876565b611b216020830184611876565b939250505056fea2646970667358221220f9a20564edcd28ef3267531f0eda3330800df04844c116413ba6026c8e423e0764736f6c634300081c0033",
  "linkReferences": {},
  "deployedLinkReferences": {}
}