{
  "_format": "hh-sol-artifact-1",
  "contractName": "QswapConstantProductPair",
  "sourceName": "contracts/swap/qswapPair.sol",
  "abi": [
    {
      "inputs": [
        {
          "internalType": "address",
          "name": "_tokenX",
          "type": "address"
        },
        {
          "internalType": "uint256",
          "name": "_amountTokenX",
          "type": "uint256"
        },
        {
          "internalType": "address",
          "name": "_tokenY",
          "type": "address"
        },
        {
          "internalType": "uint256",
          "name": "_amountTokenY",
          "type": "uint256"
        },
        {
          "internalType": "uint256",
          "name": "_fee",
          "type": "uint256"
        },
        {
          "internalType": "address",
          "name": "tokenBalanceUpdater",
          "type": "address"
        },
        {
          "internalType": "address",
          "name": "_liquidityToken",
          "type": "address"
        }
      ],
      "stateMutability": "nonpayable",
      "type": "constructor"
    },
    {
      "anonymous": false,
      "inputs": [
        {
          "indexed": true,
          "internalType": "address",
          "name": "sender",
          "type": "address"
        },
        {
          "indexed": false,
          "internalType": "uint256",
          "name": "amountX",
          "type": "uint256"
        },
        {
          "indexed": false,
          "internalType": "uint256",
          "name": "amountY",
          "type": "uint256"
        },
        {
          "indexed": false,
          "internalType": "uint256",
          "name": "liquidityMinted",
          "type": "uint256"
        }
      ],
      "name": "AddLiquidity",
      "type": "event"
    },
    {
      "anonymous": false,
      "inputs": [
        {
          "indexed": true,
          "internalType": "address",
          "name": "tokenX",
          "type": "address"
        },
        {
          "indexed": true,
          "internalType": "address",
          "name": "tokenY",
          "type": "address"
        },
        {
          "indexed": true,
          "internalType": "address",
          "name": "liquidityToken",
          "type": "address"
        }
      ],
      "name": "LiquidityTokenCreated",
      "type": "event"
    },
    {
      "anonymous": false,
      "inputs": [
        {
          "indexed": true,
          "internalType": "address",
          "name": "sender",
          "type": "address"
        },
        {
          "indexed": false,
          "internalType": "uint256",
          "name": "amount0",
          "type": "uint256"
        },
        {
          "indexed": false,
          "internalType": "uint256",
          "name": "amount1",
          "type": "uint256"
        },
        {
          "indexed": false,
          "internalType": "uint256",
          "name": "liquidity",
          "type": "uint256"
        }
      ],
      "name": "RemoveLiquidity",
      "type": "event"
    },
    {
      "anonymous": false,
      "inputs": [
        {
          "indexed": true,
          "internalType": "address",
          "name": "sender",
          "type": "address"
        },
        {
          "indexed": true,
          "internalType": "address",
          "name": "tokenIn",
          "type": "address"
        },
        {
          "indexed": true,
          "internalType": "address",
          "name": "tokenOut",
          "type": "address"
        },
        {
          "indexed": false,
          "internalType": "uint256",
          "name": "amountIn",
          "type": "uint256"
        },
        {
          "indexed": false,
          "internalType": "uint256",
          "name": "amountOut",
          "type": "uint256"
        }
      ],
      "name": "Swap",
      "type": "event"
    },
    {
      "anonymous": false,
      "inputs": [
        {
          "indexed": false,
          "internalType": "uint256",
          "name": "reserveX",
          "type": "uint256"
        },
        {
          "indexed": false,
          "internalType": "uint256",
          "name": "reserveY",
          "type": "uint256"
        }
      ],
      "name": "Sync",
      "type": "event"
    },
    {
      "inputs": [],
      "name": "_reserveX",
      "outputs": [
        {
          "internalType": "uint256",
          "name": "",
          "type": "uint256"
        }
      ],
      "stateMutability": "view",
      "type": "function"
    },
    {
      "inputs": [],
      "name": "_reserveY",
      "outputs": [
        {
          "internalType": "uint256",
          "name": "",
          "type": "uint256"
        }
      ],
      "stateMutability": "view",
      "type": "function"
    },
    {
      "inputs": [
        {
          "internalType": "uint256",
          "name": "amount",
          "type": "uint256"
        },
        {
          "internalType": "bool",
          "name": "isReverse",
          "type": "bool"
        }
      ],
      "name": "addLiquidity",
      "outputs": [],
      "stateMutability": "nonpayable",
      "type": "function"
    },
    {
      "inputs": [],
      "name": "feeDenominator",
      "outputs": [
        {
          "internalType": "uint256",
          "name": "",
          "type": "uint256"
        }
      ],
      "stateMutability": "view",
      "type": "function"
    },
    {
      "inputs": [],
      "name": "feePercentage",
      "outputs": [
        {
          "internalType": "uint256",
          "name": "",
          "type": "uint256"
        }
      ],
      "stateMutability": "view",
      "type": "function"
    },
    {
      "inputs": [],
      "name": "getReserves",
      "outputs": [
        {
          "internalType": "uint256",
          "name": "",
          "type": "uint256"
        },
        {
          "internalType": "uint256",
          "name": "",
          "type": "uint256"
        }
      ],
      "stateMutability": "view",
      "type": "function"
    },
    {
      "inputs": [],
      "name": "liquidityToken",
      "outputs": [
        {
          "internalType": "contract QswapTokenCreator",
          "name": "",
          "type": "address"
        }
      ],
      "stateMutability": "view",
      "type": "function"
    },
    {
      "inputs": [
        {
          "internalType": "uint256",
          "name": "liquidity",
          "type": "uint256"
        }
      ],
      "name": "removeLiquidity",
      "outputs": [],
      "stateMutability": "nonpayable",
      "type": "function"
    },
    {
      "inputs": [
        {
          "internalType": "address",
          "name": "addressTokenToswap",
          "type": "address"
        },
        {
          "internalType": "uint256",
          "name": "amountToSwap",
          "type": "uint256"
        },
        {
          "internalType": "bool",
          "name": "isReverse",
          "type": "bool"
        },
        {
          "internalType": "address",
          "name": "to",
          "type": "address"
        }
      ],
      "name": "swap",
      "outputs": [],
      "stateMutability": "nonpayable",
      "type": "function"
    },
    {
      "inputs": [],
      "name": "tokenX",
      "outputs": [
        {
          "internalType": "contract QswapTokenCreator",
          "name": "",
          "type": "address"
        }
      ],
      "stateMutability": "view",
      "type": "function"
    },
    {
      "inputs": [],
      "name": "tokenY",
      "outputs": [
        {
          "internalType": "contract QswapTokenCreator",
          "name": "",
          "type": "address"
        }
      ],
      "stateMutability": "view",
      "type": "function"
    }
  ],
  "bytecode": "0x608060405261271060045534801561001657600080fd5b506040516123fb3803806123fb83398181016040528101906100389190610531565b866000806101000a81548173ffffffffffffffffffffffffffffffffffffffff021916908373ffffffffffffffffffffffffffffffffffffffff16021790555084600160006101000a81548173ffffffffffffffffffffffffffffffffffffffff021916908373ffffffffffffffffffffffffffffffffffffffff16021790555085600581905550836006819055508260038190555080600260006101000a81548173ffffffffffffffffffffffffffffffffffffffff021916908373ffffffffffffffffffffffffffffffffffffffff160217905550600260009054906101000a900473ffffffffffffffffffffffffffffffffffffffff1673ffffffffffffffffffffffffffffffffffffffff16600160009054906101000a900473ffffffffffffffffffffffffffffffffffffffff1673ffffffffffffffffffffffffffffffffffffffff1660008054906101000a900473ffffffffffffffffffffffffffffffffffffffff1673ffffffffffffffffffffffffffffffffffffffff167fd5b15d880a99babcad7baedddbe6d03dcc853b8484aa58ec19d1db08eeebc29660405160405180910390a481600860006101000a81548173ffffffffffffffffffffffffffffffffffffffff021916908373ffffffffffffffffffffffffffffffffffffffff160217905550600860009054906101000a900473ffffffffffffffffffffffffffffffffffffffff1673ffffffffffffffffffffffffffffffffffffffff166343aaa6908832308a6040518563ffffffff1660e01b815260040161028694939291906105f1565b600060405180830381600087803b1580156102a057600080fd5b505af11580156102b4573d6000803e3d6000fd5b50505050600860009054906101000a900473ffffffffffffffffffffffffffffffffffffffff1673ffffffffffffffffffffffffffffffffffffffff166343aaa690863230886040518563ffffffff1660e01b815260040161031994939291906105f1565b600060405180830381600087803b15801561033357600080fd5b505af1158015610347573d6000803e3d6000fd5b505050506000610367858861035c9190610665565b61041e60201b60201c565b905080600781905550600260009054906101000a900473ffffffffffffffffffffffffffffffffffffffff1673ffffffffffffffffffffffffffffffffffffffff166340c10f1932836040518363ffffffff1660e01b81526004016103cd9291906106a7565b6020604051808303816000875af11580156103ec573d6000803e3d6000fd5b505050506040513d601f19601f820116820180604052508101906104109190610708565b5050505050505050506107c9565b60006003821115610485578190506000600160028461043d9190610764565b6104479190610795565b90505b8181101561047f5780915060028182856104649190610764565b61046e9190610795565b6104789190610764565b905061044a565b50610493565b6000821461049257600190505b5b919050565b600080fd5b600073ffffffffffffffffffffffffffffffffffffffff82169050919050565b60006104c88261049d565b9050919050565b6104d8816104bd565b81146104e357600080fd5b50565b6000815190506104f5816104cf565b92915050565b6000819050919050565b61050e816104fb565b811461051957600080fd5b50565b60008151905061052b81610505565b92915050565b600080600080600080600060e0888a0312156105505761054f610498565b5b600061055e8a828b016104e6565b975050602061056f8a828b0161051c565b96505060406105808a828b016104e6565b95505060606105918a828b0161051c565b94505060806105a28a828b0161051c565b93505060a06105b38a828b016104e6565b92505060c06105c48a828b016104e6565b91505092959891949750929550565b6105dc816104bd565b82525050565b6105eb816104fb565b82525050565b600060808201905061060660008301876105d3565b61061360208301866105d3565b61062060408301856105d3565b61062d60608301846105e2565b95945050505050565b7f4e487b7100000000000000000000000000000000000000000000000000000000600052601160045260246000fd5b6000610670826104fb565b915061067b836104fb565b9250828202610689816104fb565b915082820484148315176106a05761069f610636565b5b5092915050565b60006040820190506106bc60008301856105d3565b6106c960208301846105e2565b9392505050565b60008115159050919050565b6106e5816106d0565b81146106f057600080fd5b50565b600081519050610702816106dc565b92915050565b60006020828403121561071e5761071d610498565b5b600061072c848285016106f3565b91505092915050565b7f4e487b7100000000000000000000000000000000000000000000000000000000600052601260045260246000fd5b600061076f826104fb565b915061077a836104fb565b92508261078a57610789610735565b5b828204905092915050565b60006107a0826104fb565b91506107ab836104fb565b92508282019050808211156107c3576107c2610636565b5b92915050565b611c23806107d86000396000f3fe608060405234801561001057600080fd5b50600436106100a95760003560e01c80639c8f9f23116100715780639c8f9f2314610143578063a001ecdd1461015f578063b7d19fc41461017d578063c71cca621461019b578063e650cd8f146101b9578063fa5e3b6d146101d5576100a9565b80630902f1ac146100ae57806316dc165b146100cd578063180b0d7e146100eb57806343cd8f7e146101095780638a3aacb314610127575b600080fd5b6100b66101f3565b6040516100c4929190611337565b60405180910390f35b6100d5610204565b6040516100e291906113df565b60405180910390f35b6100f3610228565b60405161010091906113fa565b60405180910390f35b61011161022e565b60405161011e91906113df565b60405180910390f35b610141600480360381019061013c919061147e565b610254565b005b61015d600480360381019061015891906114be565b610519565b005b610167610af7565b60405161017491906113fa565b60405180910390f35b610185610afd565b60405161019291906113df565b60405180910390f35b6101a3610b23565b6040516101b091906113fa565b60405180910390f35b6101d360048036038101906101ce9190611529565b610b29565b005b6101dd610dfa565b6040516101ea91906113fa565b60405180910390f35b600080600554600654915091509091565b60008054906101000a900473ffffffffffffffffffffffffffffffffffffffff1681565b60045481565b600260009054906101000a900473ffffffffffffffffffffffffffffffffffffffff1681565b60008211610297576040517f08c379a000000000000000000000000000000000000000000000000000000000815260040161028e906115ed565b60405180910390fd5b6000806000806102a685610e00565b93509350935093506000841180156102be5750600083115b6102fd576040517f08c379a00000000000000000000000000000000000000000000000000000000081526004016102f490611659565b60405180910390fd5b600083878661030c91906116a8565b6103169190611719565b90506000811161035b576040517f08c379a000000000000000000000000000000000000000000000000000000000815260040161035290611796565b60405180910390fd5b61036783323084610ebd565b6103738232308a610ebd565b6000600260009054906101000a900473ffffffffffffffffffffffffffffffffffffffff1673ffffffffffffffffffffffffffffffffffffffff166318160ddd6040518163ffffffff1660e01b8152600401602060405180830381865afa1580156103e2573d6000803e3d6000fd5b505050506040513d601f19601f8201168201806040525081019061040691906117cb565b905061041432838a8a610f56565b600081600260009054906101000a900473ffffffffffffffffffffffffffffffffffffffff1673ffffffffffffffffffffffffffffffffffffffff166318160ddd6040518163ffffffff1660e01b8152600401602060405180830381865afa158015610484573d6000803e3d6000fd5b505050506040513d601f19601f820116820180604052508101906104a891906117cb565b6104b291906117f8565b90506104bc611085565b3273ffffffffffffffffffffffffffffffffffffffff167fbeb3885786d637a474cbc287c0a44587231633a077f0bd30354d5a4b18996fce848b846040516105069392919061182c565b60405180910390a2505050505050505050565b6000811161055c576040517f08c379a0000000000000000000000000000000000000000000000000000000008152600401610553906118af565b60405180910390fd5b80600260009054906101000a900473ffffffffffffffffffffffffffffffffffffffff1673ffffffffffffffffffffffffffffffffffffffff166370a08231326040518263ffffffff1660e01b81526004016105b891906118de565b602060405180830381865afa1580156105d5573d6000803e3d6000fd5b505050506040513d601f19601f820116820180604052508101906105f991906117cb565b101561063a576040517f08c379a000000000000000000000000000000000000000000000000000000000815260040161063190611945565b60405180910390fd5b60006005549050600060065490506000821180156106585750600081115b610697576040517f08c379a000000000000000000000000000000000000000000000000000000000815260040161068e90611659565b60405180910390fd5b600060075484846106a891906116a8565b6106b29190611719565b9050600060075485846106c591906116a8565b6106cf9190611719565b90506000821180156106e15750600081115b610720576040517f08c379a0000000000000000000000000000000000000000000000000000000008152600401610717906118af565b60405180910390fd5b600260009054906101000a900473ffffffffffffffffffffffffffffffffffffffff1673ffffffffffffffffffffffffffffffffffffffff166323b872dd3230886040518463ffffffff1660e01b815260040161077f93929190611965565b6020604051808303816000875af115801561079e573d6000803e3d6000fd5b505050506040513d601f19601f820116820180604052508101906107c291906119b1565b50600260009054906101000a900473ffffffffffffffffffffffffffffffffffffffff1673ffffffffffffffffffffffffffffffffffffffff166342966c68866040518263ffffffff1660e01b815260040161081e91906113fa565b6020604051808303816000875af115801561083d573d6000803e3d6000fd5b505050506040513d601f19601f8201168201806040525081019061086191906119b1565b50846007600082825461087491906117f8565b9250508190555060008054906101000a900473ffffffffffffffffffffffffffffffffffffffff1673ffffffffffffffffffffffffffffffffffffffff1663095ea7b3600860009054906101000a900473ffffffffffffffffffffffffffffffffffffffff16846040518363ffffffff1660e01b81526004016108f89291906119de565b6020604051808303816000875af1158015610917573d6000803e3d6000fd5b505050506040513d601f19601f8201168201806040525081019061093b91906119b1565b50600160009054906101000a900473ffffffffffffffffffffffffffffffffffffffff1673ffffffffffffffffffffffffffffffffffffffff1663095ea7b3600860009054906101000a900473ffffffffffffffffffffffffffffffffffffffff16836040518363ffffffff1660e01b81526004016109bb9291906119de565b6020604051808303816000875af11580156109da573d6000803e3d6000fd5b505050506040513d601f19601f820116820180604052508101906109fe91906119b1565b50610a2b60008054906101000a900473ffffffffffffffffffffffffffffffffffffffff16303285610ebd565b610a59600160009054906101000a900473ffffffffffffffffffffffffffffffffffffffff16303284610ebd565b610a61611085565b3373ffffffffffffffffffffffffffffffffffffffff167f59c3a0b60c6ab7deb62e1440c9e72441db6db7dfe514dba8cb18e60c0d896efa838388604051610aab9392919061182c565b60405180910390a27fcf2aa50876cdfbb541206f89af0ee78d44a2abf8d328e37fa4917f982149848a600554600654604051610ae8929190611337565b60405180910390a15050505050565b60035481565b600160009054906101000a900473ffffffffffffffffffffffffffffffffffffffff1681565b60055481565b60008311610b6c576040517f08c379a0000000000000000000000000000000000000000000000000000000008152600401610b63906115ed565b60405180910390fd5b600073ffffffffffffffffffffffffffffffffffffffff168173ffffffffffffffffffffffffffffffffffffffff1603610bdb576040517f08c379a0000000000000000000000000000000000000000000000000000000008152600401610bd290611a53565b60405180910390fd5b6000806000806000610bee88888b611211565b95509550955095505094506000633b9aca00905060008183610c109190611719565b905060008187610c209190611a73565b905060008111610c65576040517f08c379a0000000000000000000000000000000000000000000000000000000008152600401610c5c90611af3565b60405180910390fd5b60008189610c739190611719565b905080881015610cb8576040517f08c379a0000000000000000000000000000000000000000000000000000000008152600401610caf90611b5f565b60405180910390fd5b60008189610cc691906117f8565b905060008582610cd691906116a8565b9050610ce4898d308a610ebd565b8773ffffffffffffffffffffffffffffffffffffffff1663a9059cbb32836040518363ffffffff1660e01b8152600401610d1f9291906119de565b6020604051808303816000875af1158015610d3e573d6000803e3d6000fd5b505050506040513d601f19601f82011682018060405250810190610d6291906119b1565b50610d6b611085565b8773ffffffffffffffffffffffffffffffffffffffff168973ffffffffffffffffffffffffffffffffffffffff163373ffffffffffffffffffffffffffffffffffffffff167fcd3829a3813dc3cdd188fd3d01dcf3268c16be2fdd2dd21d0665418816e460628a85604051610de1929190611337565b60405180910390a4505050505050505050505050505050565b60065481565b6000806000808415610e63576005549350600654925060008054906101000a900473ffffffffffffffffffffffffffffffffffffffff169150600160009054906101000a900473ffffffffffffffffffffffffffffffffffffffff169050610eb6565b60065493506005549250600160009054906101000a900473ffffffffffffffffffffffffffffffffffffffff16915060008054906101000a900473ffffffffffffffffffffffffffffffffffffffff1690505b9193509193565b600860009054906101000a900473ffffffffffffffffffffffffffffffffffffffff1673ffffffffffffffffffffffffffffffffffffffff166343aaa690858585856040518563ffffffff1660e01b8152600401610f1e9493929190611b7f565b600060405180830381600087803b158015610f3857600080fd5b505af1158015610f4c573d6000803e3d6000fd5b5050505050505050565b60008082610f6d5760055491506006549050610f78565b600654915060055490505b60008260075487610f8991906116a8565b610f939190611719565b905060008260075487610fa691906116a8565b610fb09190611719565b90506000610fbe8383611305565b90508060076000828254610fd29190611a73565b92505081905550600260009054906101000a900473ffffffffffffffffffffffffffffffffffffffff1673ffffffffffffffffffffffffffffffffffffffff166340c10f198a836040518363ffffffff1660e01b81526004016110369291906119de565b6020604051808303816000875af1158015611055573d6000803e3d6000fd5b505050506040513d601f19601f8201168201806040525081019061107991906119b1565b50505050505050505050565b600860009054906101000a900473ffffffffffffffffffffffffffffffffffffffff1673ffffffffffffffffffffffffffffffffffffffff1663c489744b60008054906101000a900473ffffffffffffffffffffffffffffffffffffffff16306040518363ffffffff1660e01b8152600401611102929190611bc4565b602060405180830381865afa15801561111f573d6000803e3d6000fd5b505050506040513d601f19601f8201168201806040525081019061114391906117cb565b600581905550600860009054906101000a900473ffffffffffffffffffffffffffffffffffffffff1673ffffffffffffffffffffffffffffffffffffffff1663c489744b600160009054906101000a900473ffffffffffffffffffffffffffffffffffffffff16306040518363ffffffff1660e01b81526004016111c8929190611bc4565b602060405180830381865afa1580156111e5573d6000803e3d6000fd5b505050506040513d601f19601f8201168201806040525081019061120991906117cb565b600681905550565b6000806000806000806000633b9aca0090506103e86003546103e861123691906117f8565b8b61124191906116a8565b61124b9190611719565b91506000808a61128c5760055491506006549050899550600160009054906101000a900473ffffffffffffffffffffffffffffffffffffffff1694506112bd565b6006549150600554905089955060008054906101000a900473ffffffffffffffffffffffffffffffffffffffff1694505b600083836112cb9190611719565b9050600084836112db9190611719565b905080826112e991906116a8565b9a508a82829a509a509a50505050505093975093979195509350565b60008183106113145781611316565b825b905092915050565b6000819050919050565b6113318161131e565b82525050565b600060408201905061134c6000830185611328565b6113596020830184611328565b9392505050565b600073ffffffffffffffffffffffffffffffffffffffff82169050919050565b6000819050919050565b60006113a56113a061139b84611360565b611380565b611360565b9050919050565b60006113b78261138a565b9050919050565b60006113c9826113ac565b9050919050565b6113d9816113be565b82525050565b60006020820190506113f460008301846113d0565b92915050565b600060208201905061140f6000830184611328565b92915050565b600080fd5b6114238161131e565b811461142e57600080fd5b50565b6000813590506114408161141a565b92915050565b60008115159050919050565b61145b81611446565b811461146657600080fd5b50565b60008135905061147881611452565b92915050565b6000806040838503121561149557611494611415565b5b60006114a385828601611431565b92505060206114b485828601611469565b9150509250929050565b6000602082840312156114d4576114d3611415565b5b60006114e284828501611431565b91505092915050565b60006114f682611360565b9050919050565b611506816114eb565b811461151157600080fd5b50565b600081359050611523816114fd565b92915050565b6000806000806080858703121561154357611542611415565b5b600061155187828801611514565b945050602061156287828801611431565b935050604061157387828801611469565b925050606061158487828801611514565b91505092959194509250565b600082825260208201905092915050565b7f4130000000000000000000000000000000000000000000000000000000000000600082015250565b60006115d7600283611590565b91506115e2826115a1565b602082019050919050565b60006020820190508181036000830152611606816115ca565b9050919050565b7f4230000000000000000000000000000000000000000000000000000000000000600082015250565b6000611643600283611590565b915061164e8261160d565b602082019050919050565b6000602082019050818103600083015261167281611636565b9050919050565b7f4e487b7100000000000000000000000000000000000000000000000000000000600052601160045260246000fd5b60006116b38261131e565b91506116be8361131e565b92508282026116cc8161131e565b915082820484148315176116e3576116e2611679565b5b5092915050565b7f4e487b7100000000000000000000000000000000000000000000000000000000600052601260045260246000fd5b60006117248261131e565b915061172f8361131e565b92508261173f5761173e6116ea565b5b828204905092915050565b7f4232000000000000000000000000000000000000000000000000000000000000600082015250565b6000611780600283611590565b915061178b8261174a565b602082019050919050565b600060208201905081810360008301526117af81611773565b9050919050565b6000815190506117c58161141a565b92915050565b6000602082840312156117e1576117e0611415565b5b60006117ef848285016117b6565b91505092915050565b60006118038261131e565b915061180e8361131e565b925082820390508181111561182657611825611679565b5b92915050565b60006060820190506118416000830186611328565b61184e6020830185611328565b61185b6040830184611328565b949350505050565b7f4330000000000000000000000000000000000000000000000000000000000000600082015250565b6000611899600283611590565b91506118a482611863565b602082019050919050565b600060208201905081810360008301526118c88161188c565b9050919050565b6118d8816114eb565b82525050565b60006020820190506118f360008301846118cf565b92915050565b7f4331000000000000000000000000000000000000000000000000000000000000600082015250565b600061192f600283611590565b915061193a826118f9565b602082019050919050565b6000602082019050818103600083015261195e81611922565b9050919050565b600060608201905061197a60008301866118cf565b61198760208301856118cf565b6119946040830184611328565b949350505050565b6000815190506119ab81611452565b92915050565b6000602082840312156119c7576119c6611415565b5b60006119d58482850161199c565b91505092915050565b60006040820190506119f360008301856118cf565b611a006020830184611328565b9392505050565b7f4131000000000000000000000000000000000000000000000000000000000000600082015250565b6000611a3d600283611590565b9150611a4882611a07565b602082019050919050565b60006020820190508181036000830152611a6c81611a30565b9050919050565b6000611a7e8261131e565b9150611a898361131e565b9250828201905080821115611aa157611aa0611679565b5b92915050565b7f446976696465206279207a65726f000000000000000000000000000000000000600082015250565b6000611add600e83611590565b9150611ae882611aa7565b602082019050919050565b60006020820190508181036000830152611b0c81611ad0565b9050919050565b7f556e646572666c6f770000000000000000000000000000000000000000000000600082015250565b6000611b49600983611590565b9150611b5482611b13565b602082019050919050565b60006020820190508181036000830152611b7881611b3c565b9050919050565b6000608082019050611b9460008301876118cf565b611ba160208301866118cf565b611bae60408301856118cf565b611bbb6060830184611328565b95945050505050565b6000604082019050611bd960008301856118cf565b611be660208301846118cf565b939250505056fea2646970667358221220ed0dff29efd23a5e11ba9234c6e9620a9060f6274f65883ff2344e7874a2629c64736f6c634300081c0033",
  "linkReferences": {},
  "deployedLinkReferences": {}
}