{
  "_format": "hh-sol-artifact-1",
  "contractName": "QswapTokenCreator",
  "sourceName": "contracts/token.sol",
  "abi": [
    {
      "inputs": [
        {
          "internalType": "uint256",
          "name": "initialSupply",
          "type": "uint256"
        },
        {
          "internalType": "string",
          "name": "_name",
          "type": "string"
        },
        {
          "internalType": "string",
          "name": "_symbol",
          "type": "string"
        },
        {
          "internalType": "bool",
          "name": "_isMintable",
          "type": "bool"
        },
        {
          "internalType": "bool",
          "name": "_isBurnable",
          "type": "bool"
        }
      ],
      "stateMutability": "nonpayable",
      "type": "constructor"
    },
    {
      "anonymous": false,
      "inputs": [
        {
          "indexed": true,
          "internalType": "address",
          "name": "owner",
          "type": "address"
        },
        {
          "indexed": true,
          "internalType": "address",
          "name": "spender",
          "type": "address"
        },
        {
          "indexed": false,
          "internalType": "uint256",
          "name": "value",
          "type": "uint256"
        }
      ],
      "name": "Approval",
      "type": "event"
    },
    {
      "anonymous": false,
      "inputs": [
        {
          "indexed": true,
          "internalType": "address",
          "name": "from",
          "type": "address"
        },
        {
          "indexed": false,
          "internalType": "uint256",
          "name": "amount",
          "type": "uint256"
        }
      ],
      "name": "Burn",
      "type": "event"
    },
    {
      "anonymous": false,
      "inputs": [
        {
          "indexed": true,
          "internalType": "address",
          "name": "to",
          "type": "address"
        },
        {
          "indexed": false,
          "internalType": "uint256",
          "name": "amount",
          "type": "uint256"
        }
      ],
      "name": "Mint",
      "type": "event"
    },
    {
      "anonymous": false,
      "inputs": [
        {
          "indexed": true,
          "internalType": "address",
          "name": "from",
          "type": "address"
        },
        {
          "indexed": true,
          "internalType": "address",
          "name": "to",
          "type": "address"
        },
        {
          "indexed": false,
          "internalType": "uint256",
          "name": "value",
          "type": "uint256"
        }
      ],
      "name": "Transfer",
      "type": "event"
    },
    {
      "inputs": [
        {
          "internalType": "address",
          "name": "",
          "type": "address"
        },
        {
          "internalType": "address",
          "name": "",
          "type": "address"
        }
      ],
      "name": "allowance",
      "outputs": [
        {
          "internalType": "uint256",
          "name": "",
          "type": "uint256"
        }
      ],
      "stateMutability": "view",
      "type": "function"
    },
    {
      "inputs": [
        {
          "internalType": "address",
          "name": "spender",
          "type": "address"
        },
        {
          "internalType": "uint256",
          "name": "amount",
          "type": "uint256"
        }
      ],
      "name": "approve",
      "outputs": [
        {
          "internalType": "bool",
          "name": "",
          "type": "bool"
        }
      ],
      "stateMutability": "nonpayable",
      "type": "function"
    },
    {
      "inputs": [
        {
          "internalType": "address",
          "name": "",
          "type": "address"
        }
      ],
      "name": "balanceOf",
      "outputs": [
        {
          "internalType": "uint256",
          "name": "",
          "type": "uint256"
        }
      ],
      "stateMutability": "view",
      "type": "function"
    },
    {
      "inputs": [
        {
          "internalType": "uint256",
          "name": "amount",
          "type": "uint256"
        }
      ],
      "name": "burn",
      "outputs": [
        {
          "internalType": "bool",
          "name": "",
          "type": "bool"
        }
      ],
      "stateMutability": "nonpayable",
      "type": "function"
    },
    {
      "inputs": [],
      "name": "decimals",
      "outputs": [
        {
          "internalType": "uint8",
          "name": "",
          "type": "uint8"
        }
      ],
      "stateMutability": "view",
      "type": "function"
    },
    {
      "inputs": [],
      "name": "isBurnable",
      "outputs": [
        {
          "internalType": "bool",
          "name": "",
          "type": "bool"
        }
      ],
      "stateMutability": "view",
      "type": "function"
    },
    {
      "inputs": [],
      "name": "isMintable",
      "outputs": [
        {
          "internalType": "bool",
          "name": "",
          "type": "bool"
        }
      ],
      "stateMutability": "view",
      "type": "function"
    },
    {
      "inputs": [
        {
          "internalType": "address",
          "name": "to",
          "type": "address"
        },
        {
          "internalType": "uint256",
          "name": "amount",
          "type": "uint256"
        }
      ],
      "name": "mint",
      "outputs": [
        {
          "internalType": "bool",
          "name": "",
          "type": "bool"
        }
      ],
      "stateMutability": "nonpayable",
      "type": "function"
    },
    {
      "inputs": [],
      "name": "name",
      "outputs": [
        {
          "internalType": "string",
          "name": "",
          "type": "string"
        }
      ],
      "stateMutability": "view",
      "type": "function"
    },
    {
      "inputs": [],
      "name": "symbol",
      "outputs": [
        {
          "internalType": "string",
          "name": "",
          "type": "string"
        }
      ],
      "stateMutability": "view",
      "type": "function"
    },
    {
      "inputs": [],
      "name": "totalSupply",
      "outputs": [
        {
          "internalType": "uint256",
          "name": "",
          "type": "uint256"
        }
      ],
      "stateMutability": "view",
      "type": "function"
    },
    {
      "inputs": [
        {
          "internalType": "address",
          "name": "recipient",
          "type": "address"
        },
        {
          "internalType": "uint256",
          "name": "amount",
          "type": "uint256"
        }
      ],
      "name": "transfer",
      "outputs": [
        {
          "internalType": "bool",
          "name": "",
          "type": "bool"
        }
      ],
      "stateMutability": "nonpayable",
      "type": "function"
    },
    {
      "inputs": [
        {
          "internalType": "address",
          "name": "sender",
          "type": "address"
        },
        {
          "internalType": "address",
          "name": "recipient",
          "type": "address"
        },
        {
          "internalType": "uint256",
          "name": "amount",
          "type": "uint256"
        }
      ],
      "name": "transferFrom",
      "outputs": [
        {
          "internalType": "bool",
          "name": "",
          "type": "bool"
        }
      ],
      "stateMutability": "nonpayable",
      "type": "function"
    }
  ],
  "bytecode": "0x608060405260126002806101000a81548160ff021916908360ff16021790555034801561002b57600080fd5b50604051611c71380380611c71833981810160405281019061004d9190610302565b81600260006101000a81548160ff02191690831515021790555080600260016101000a81548160ff021916908315150217905550836000908161009091906105cc565b5082600190816100a091906105cc565b5060028054906101000a900460ff1660ff16600a6100be9190610800565b856100c9919061084b565b600381905550600354600460003373ffffffffffffffffffffffffffffffffffffffff1673ffffffffffffffffffffffffffffffffffffffff16815260200190815260200160002081905550505050505061088d565b6000604051905090565b600080fd5b600080fd5b6000819050919050565b61014681610133565b811461015157600080fd5b50565b6000815190506101638161013d565b92915050565b600080fd5b600080fd5b6000601f19601f8301169050919050565b7f4e487b7100000000000000000000000000000000000000000000000000000000600052604160045260246000fd5b6101bc82610173565b810181811067ffffffffffffffff821117156101db576101da610184565b5b80604052505050565b60006101ee61011f565b90506101fa82826101b3565b919050565b600067ffffffffffffffff82111561021a57610219610184565b5b61022382610173565b9050602081019050919050565b60005b8381101561024e578082015181840152602081019050610233565b60008484015250505050565b600061026d610268846101ff565b6101e4565b9050828152602081018484840111156102895761028861016e565b5b610294848285610230565b509392505050565b600082601f8301126102b1576102b0610169565b5b81516102c184826020860161025a565b91505092915050565b60008115159050919050565b6102df816102ca565b81146102ea57600080fd5b50565b6000815190506102fc816102d6565b92915050565b600080600080600060a0868803121561031e5761031d610129565b5b600061032c88828901610154565b955050602086015167ffffffffffffffff81111561034d5761034c61012e565b5b6103598882890161029c565b945050604086015167ffffffffffffffff81111561037a5761037961012e565b5b6103868882890161029c565b9350506060610397888289016102ed565b92505060806103a8888289016102ed565b9150509295509295909350565b600081519050919050565b7f4e487b7100000000000000000000000000000000000000000000000000000000600052602260045260246000fd5b6000600282049050600182168061040757607f821691505b60208210810361041a576104196103c0565b5b50919050565b60008190508160005260206000209050919050565b60006020601f8301049050919050565b600082821b905092915050565b6000600883026104827fffffffffffffffffffffffffffffffffffffffffffffffffffffffffffffffff82610445565b61048c8683610445565b95508019841693508086168417925050509392505050565b6000819050919050565b60006104c96104c46104bf84610133565b6104a4565b610133565b9050919050565b6000819050919050565b6104e3836104ae565b6104f76104ef826104d0565b848454610452565b825550505050565b600090565b61050c6104ff565b6105178184846104da565b505050565b5b8181101561053b57610530600082610504565b60018101905061051d565b5050565b601f8211156105805761055181610420565b61055a84610435565b81016020851015610569578190505b61057d61057585610435565b83018261051c565b50505b505050565b600082821c905092915050565b60006105a360001984600802610585565b1980831691505092915050565b60006105bc8383610592565b9150826002028217905092915050565b6105d5826103b5565b67ffffffffffffffff8111156105ee576105ed610184565b5b6105f882546103ef565b61060382828561053f565b600060209050601f8311600181146106365760008415610624578287015190505b61062e85826105b0565b865550610696565b601f19841661064486610420565b60005b8281101561066c57848901518255600182019150602085019450602081019050610647565b868310156106895784890151610685601f891682610592565b8355505b6001600288020188555050505b505050505050565b7f4e487b7100000000000000000000000000000000000000000000000000000000600052601160045260246000fd5b60008160011c9050919050565b6000808291508390505b600185111561072457808604811115610700576106ff61069e565b5b600185161561070f5780820291505b808102905061071d856106cd565b94506106e4565b94509492505050565b60008261073d57600190506107f9565b8161074b57600090506107f9565b8160018114610761576002811461076b5761079a565b60019150506107f9565b60ff84111561077d5761077c61069e565b5b8360020a9150848211156107945761079361069e565b5b506107f9565b5060208310610133831016604e8410600b84101617156107cf5782820a9050838111156107ca576107c961069e565b5b6107f9565b6107dc84848460016106da565b925090508184048111156107f3576107f261069e565b5b81810290505b9392505050565b600061080b82610133565b915061081683610133565b92506108437fffffffffffffffffffffffffffffffffffffffffffffffffffffffffffffffff848461072d565b905092915050565b600061085682610133565b915061086183610133565b925082820261086f81610133565b915082820484148315176108865761088561069e565b5b5092915050565b6113d58061089c6000396000f3fe608060405234801561001057600080fd5b50600436106100cf5760003560e01c806342966c681161008c578063883356d911610066578063883356d91461023c57806395d89b411461025a578063a9059cbb14610278578063dd62ed3e146102a8576100cf565b806342966c68146101be57806346b45af7146101ee57806370a082311461020c576100cf565b806306fdde03146100d4578063095ea7b3146100f257806318160ddd1461012257806323b872dd14610140578063313ce5671461017057806340c10f191461018e575b600080fd5b6100dc6102d8565b6040516100e99190610da1565b60405180910390f35b61010c60048036038101906101079190610e5c565b610366565b6040516101199190610eb7565b60405180910390f35b61012a610458565b6040516101379190610ee1565b60405180910390f35b61015a60048036038101906101559190610efc565b61045e565b6040516101679190610eb7565b60405180910390f35b610178610750565b6040516101859190610f6b565b60405180910390f35b6101a860048036038101906101a39190610e5c565b610761565b6040516101b59190610eb7565b60405180910390f35b6101d860048036038101906101d39190610f86565b6108e8565b6040516101e59190610eb7565b60405180910390f35b6101f6610a81565b6040516102039190610eb7565b60405180910390f35b61022660048036038101906102219190610fb3565b610a94565b6040516102339190610ee1565b60405180910390f35b610244610aac565b6040516102519190610eb7565b60405180910390f35b610262610abf565b60405161026f9190610da1565b60405180910390f35b610292600480360381019061028d9190610e5c565b610b4d565b60405161029f9190610eb7565b60405180910390f35b6102c260048036038101906102bd9190610fe0565b610cec565b6040516102cf9190610ee1565b60405180910390f35b600080546102e59061104f565b80601f01602080910402602001604051908101604052809291908181526020018280546103119061104f565b801561035e5780601f106103335761010080835404028352916020019161035e565b820191906000526020600020905b81548152906001019060200180831161034157829003601f168201915b505050505081565b600081600560003373ffffffffffffffffffffffffffffffffffffffff1673ffffffffffffffffffffffffffffffffffffffff16815260200190815260200160002060008573ffffffffffffffffffffffffffffffffffffffff1673ffffffffffffffffffffffffffffffffffffffff168152602001908152602001600020819055508273ffffffffffffffffffffffffffffffffffffffff163373ffffffffffffffffffffffffffffffffffffffff167f8c5be1e5ebec7d5bd14f71427d1e84f3dd0314c0f7b2291e5b200ac8c7c3b925846040516104469190610ee1565b60405180910390a36001905092915050565b60035481565b600081600460008673ffffffffffffffffffffffffffffffffffffffff1673ffffffffffffffffffffffffffffffffffffffff1681526020019081526020016000205410156104e2576040517f08c379a00000000000000000000000000000000000000000000000000000000081526004016104d9906110cc565b60405180910390fd5b81600560008673ffffffffffffffffffffffffffffffffffffffff1673ffffffffffffffffffffffffffffffffffffffff16815260200190815260200160002060003373ffffffffffffffffffffffffffffffffffffffff1673ffffffffffffffffffffffffffffffffffffffff1681526020019081526020016000205410156105a1576040517f08c379a000000000000000000000000000000000000000000000000000000000815260040161059890611138565b60405180910390fd5b81600460008673ffffffffffffffffffffffffffffffffffffffff1673ffffffffffffffffffffffffffffffffffffffff16815260200190815260200160002060008282546105f09190611187565b9250508190555081600460008573ffffffffffffffffffffffffffffffffffffffff1673ffffffffffffffffffffffffffffffffffffffff168152602001908152602001600020600082825461064691906111bb565b9250508190555081600560008673ffffffffffffffffffffffffffffffffffffffff1673ffffffffffffffffffffffffffffffffffffffff16815260200190815260200160002060003373ffffffffffffffffffffffffffffffffffffffff1673ffffffffffffffffffffffffffffffffffffffff16815260200190815260200160002060008282546106d99190611187565b925050819055508273ffffffffffffffffffffffffffffffffffffffff168473ffffffffffffffffffffffffffffffffffffffff167fddf252ad1be2c89b69c2b068fc378daa952ba7f163c4a11628f55a4df523b3ef8460405161073d9190610ee1565b60405180910390a3600190509392505050565b60028054906101000a900460ff1681565b6000600260009054906101000a900460ff166107b2576040517f08c379a00000000000000000000000000000000000000000000000000000000081526004016107a99061123b565b60405180910390fd5b600073ffffffffffffffffffffffffffffffffffffffff168373ffffffffffffffffffffffffffffffffffffffff1603610821576040517f08c379a0000000000000000000000000000000000000000000000000000000008152600401610818906112a7565b60405180910390fd5b816003600082825461083391906111bb565b9250508190555081600460008573ffffffffffffffffffffffffffffffffffffffff1673ffffffffffffffffffffffffffffffffffffffff168152602001908152602001600020600082825461088991906111bb565b925050819055508273ffffffffffffffffffffffffffffffffffffffff167f0f6798a560793a54c3bcfe86a93cde1e73087d944c0ea20544137d4121396885836040516108d69190610ee1565b60405180910390a26001905092915050565b6000600260019054906101000a900460ff16610939576040517f08c379a000000000000000000000000000000000000000000000000000000000815260040161093090611313565b60405180910390fd5b81600460003373ffffffffffffffffffffffffffffffffffffffff1673ffffffffffffffffffffffffffffffffffffffff1681526020019081526020016000205410156109bb576040517f08c379a00000000000000000000000000000000000000000000000000000000081526004016109b29061137f565b60405180910390fd5b81600360008282546109cd9190611187565b9250508190555081600460003373ffffffffffffffffffffffffffffffffffffffff1673ffffffffffffffffffffffffffffffffffffffff1681526020019081526020016000206000828254610a239190611187565b925050819055503373ffffffffffffffffffffffffffffffffffffffff167fcc16f5dbb4873280815c1ee09dbd06736cffcc184412cf7a71a0fdb75d397ca583604051610a709190610ee1565b60405180910390a260019050919050565b600260009054906101000a900460ff1681565b60046020528060005260406000206000915090505481565b600260019054906101000a900460ff1681565b60018054610acc9061104f565b80601f0160208091040260200160405190810160405280929190818152602001828054610af89061104f565b8015610b455780601f10610b1a57610100808354040283529160200191610b45565b820191906000526020600020905b815481529060010190602001808311610b2857829003601f168201915b505050505081565b600081600460003373ffffffffffffffffffffffffffffffffffffffff1673ffffffffffffffffffffffffffffffffffffffff168152602001908152602001600020541015610bd1576040517f08c379a0000000000000000000000000000000000000000000000000000000008152600401610bc8906110cc565b60405180910390fd5b81600460003373ffffffffffffffffffffffffffffffffffffffff1673ffffffffffffffffffffffffffffffffffffffff1681526020019081526020016000206000828254610c209190611187565b9250508190555081600460008573ffffffffffffffffffffffffffffffffffffffff1673ffffffffffffffffffffffffffffffffffffffff1681526020019081526020016000206000828254610c7691906111bb565b925050819055508273ffffffffffffffffffffffffffffffffffffffff163373ffffffffffffffffffffffffffffffffffffffff167fddf252ad1be2c89b69c2b068fc378daa952ba7f163c4a11628f55a4df523b3ef84604051610cda9190610ee1565b60405180910390a36001905092915050565b6005602052816000526040600020602052806000526040600020600091509150505481565b600081519050919050565b600082825260208201905092915050565b60005b83811015610d4b578082015181840152602081019050610d30565b60008484015250505050565b6000601f19601f8301169050919050565b6000610d7382610d11565b610d7d8185610d1c565b9350610d8d818560208601610d2d565b610d9681610d57565b840191505092915050565b60006020820190508181036000830152610dbb8184610d68565b905092915050565b600080fd5b600073ffffffffffffffffffffffffffffffffffffffff82169050919050565b6000610df382610dc8565b9050919050565b610e0381610de8565b8114610e0e57600080fd5b50565b600081359050610e2081610dfa565b92915050565b6000819050919050565b610e3981610e26565b8114610e4457600080fd5b50565b600081359050610e5681610e30565b92915050565b60008060408385031215610e7357610e72610dc3565b5b6000610e8185828601610e11565b9250506020610e9285828601610e47565b9150509250929050565b60008115159050919050565b610eb181610e9c565b82525050565b6000602082019050610ecc6000830184610ea8565b92915050565b610edb81610e26565b82525050565b6000602082019050610ef66000830184610ed2565b92915050565b600080600060608486031215610f1557610f14610dc3565b5b6000610f2386828701610e11565b9350506020610f3486828701610e11565b9250506040610f4586828701610e47565b9150509250925092565b600060ff82169050919050565b610f6581610f4f565b82525050565b6000602082019050610f806000830184610f5c565b92915050565b600060208284031215610f9c57610f9b610dc3565b5b6000610faa84828501610e47565b91505092915050565b600060208284031215610fc957610fc8610dc3565b5b6000610fd784828501610e11565b91505092915050565b60008060408385031215610ff757610ff6610dc3565b5b600061100585828601610e11565b925050602061101685828601610e11565b9150509250929050565b7f4e487b7100000000000000000000000000000000000000000000000000000000600052602260045260246000fd5b6000600282049050600182168061106757607f821691505b60208210810361107a57611079611020565b5b50919050565b7f496e73756666696369656e742062616c616e6365000000000000000000000000600082015250565b60006110b6601483610d1c565b91506110c182611080565b602082019050919050565b600060208201905081810360008301526110e5816110a9565b9050919050565b7f416c6c6f77616e63652065786365656465640000000000000000000000000000600082015250565b6000611122601283610d1c565b915061112d826110ec565b602082019050919050565b6000602082019050818103600083015261115181611115565b9050919050565b7f4e487b7100000000000000000000000000000000000000000000000000000000600052601160045260246000fd5b600061119282610e26565b915061119d83610e26565b92508282039050818111156111b5576111b4611158565b5b92915050565b60006111c682610e26565b91506111d183610e26565b92508282019050808211156111e9576111e8611158565b5b92915050565b7f4d696e74696e67206973206e6f7420616c6c6f77656400000000000000000000600082015250565b6000611225601683610d1c565b9150611230826111ef565b602082019050919050565b6000602082019050818103600083015261125481611218565b9050919050565b7f43616e6e6f74206d696e7420746f20746865207a65726f206164647265737300600082015250565b6000611291601f83610d1c565b915061129c8261125b565b602082019050919050565b600060208201905081810360008301526112c081611284565b9050919050565b7f4275726e696e67206973206e6f7420616c6c6f77656400000000000000000000600082015250565b60006112fd601683610d1c565b9150611308826112c7565b602082019050919050565b6000602082019050818103600083015261132c816112f0565b9050919050565b7f496e73756666696369656e742062616c616e636520746f206275726e00000000600082015250565b6000611369601c83610d1c565b915061137482611333565b602082019050919050565b600060208201905081810360008301526113988161135c565b905091905056fea2646970667358221220194b0725b4a2f8a88054617cc6f33fd610d6d1d31d4e7053097b700139e7262364736f6c634300081c0033",
  "linkReferences": {},
  "deployedLinkReferences": {}
}