{
  "_format": "hh-sol-artifact-1",
  "contractName": "TokenBalanceUpdater",
  "sourceName": "contracts/swap/tokenBalanceUpdater.sol",
  "abi": [
    {
      "inputs": [
        {
          "internalType": "address",
          "name": "tokenAdress",
          "type": "address"
        },
        {
          "internalType": "address",
          "name": "account",
          "type": "address"
        }
      ],
      "name": "getTokenBalance",
      "outputs": [
        {
          "internalType": "uint256",
          "name": "",
          "type": "uint256"
        }
      ],
      "stateMutability": "view",
      "type": "function"
    },
    {
      "inputs": [
        {
          "internalType": "address",
          "name": "tokenAdress",
          "type": "address"
        },
        {
          "internalType": "address",
          "name": "fromAddress",
          "type": "address"
        },
        {
          "internalType": "address",
          "name": "toAddress",
          "type": "address"
        },
        {
          "internalType": "uint256",
          "name": "amount",
          "type": "uint256"
        }
      ],
      "name": "updateBalance",
      "outputs": [],
      "stateMutability": "nonpayable",
      "type": "function"
    }
  ],
  "bytecode": "0x6080604052348015600f57600080fd5b506105068061001f6000396000f3fe608060405234801561001057600080fd5b50600436106100365760003560e01c806343aaa6901461003b578063c489744b14610057575b600080fd5b6100556004803603810190610050919061027a565b610087565b005b610071600480360381019061006c91906102e1565b610158565b60405161007e9190610330565b60405180910390f35b600084905060008290508173ffffffffffffffffffffffffffffffffffffffff166323b872dd8686846040518463ffffffff1660e01b81526004016100ce9392919061035a565b6020604051808303816000875af11580156100ed573d6000803e3d6000fd5b505050506040513d601f19601f8201168201806040525081019061011191906103c9565b610150576040517f08c379a000000000000000000000000000000000000000000000000000000000815260040161014790610453565b60405180910390fd5b505050505050565b6000808390508073ffffffffffffffffffffffffffffffffffffffff166370a08231846040518263ffffffff1660e01b81526004016101979190610473565b602060405180830381865afa1580156101b4573d6000803e3d6000fd5b505050506040513d601f19601f820116820180604052508101906101d891906104a3565b91505092915050565b600080fd5b600073ffffffffffffffffffffffffffffffffffffffff82169050919050565b6000610211826101e6565b9050919050565b61022181610206565b811461022c57600080fd5b50565b60008135905061023e81610218565b92915050565b6000819050919050565b61025781610244565b811461026257600080fd5b50565b6000813590506102748161024e565b92915050565b60008060008060808587031215610294576102936101e1565b5b60006102a28782880161022f565b94505060206102b38782880161022f565b93505060406102c48782880161022f565b92505060606102d587828801610265565b91505092959194509250565b600080604083850312156102f8576102f76101e1565b5b60006103068582860161022f565b92505060206103178582860161022f565b9150509250929050565b61032a81610244565b82525050565b60006020820190506103456000830184610321565b92915050565b61035481610206565b82525050565b600060608201905061036f600083018661034b565b61037c602083018561034b565b6103896040830184610321565b949350505050565b60008115159050919050565b6103a681610391565b81146103b157600080fd5b50565b6000815190506103c38161039d565b92915050565b6000602082840312156103df576103de6101e1565b5b60006103ed848285016103b4565b91505092915050565b600082825260208201905092915050565b7f5472616e73666572206661696c65640000000000000000000000000000000000600082015250565b600061043d600f836103f6565b915061044882610407565b602082019050919050565b6000602082019050818103600083015261046c81610430565b9050919050565b6000602082019050610488600083018461034b565b92915050565b60008151905061049d8161024e565b92915050565b6000602082840312156104b9576104b86101e1565b5b60006104c78482850161048e565b9150509291505056fea26469706673582212202070d94ef4e914e7050291535de08f720c9c227d3e51df010adbc33277e3970764736f6c634300081c0033",
  "linkReferences": {},
  "deployedLinkReferences": {}
}