{
  "_format": "hh-sol-artifact-1",
  "contractName": "TokenBalanceUpdater",
  "sourceName": "contracts/swap/tokenBalanceUpdater.sol",
  "abi": [
    {
      "inputs": [
        {
          "internalType": "address",
          "name": "tokenAdress",
          "type": "address"
        },
        {
          "internalType": "address",
          "name": "account",
          "type": "address"
        }
      ],
      "name": "getTokenBalance",
      "outputs": [
        {
          "internalType": "uint256",
          "name": "",
          "type": "uint256"
        }
      ],
      "stateMutability": "view",
      "type": "function"
    },
    {
      "inputs": [
        {
          "internalType": "address",
          "name": "tokenAdress",
          "type": "address"
        },
        {
          "internalType": "address",
          "name": "fromAddress",
          "type": "address"
        },
        {
          "internalType": "address",
          "name": "toAddress",
          "type": "address"
        },
        {
          "internalType": "uint256",
          "name": "amount",
          "type": "uint256"
        }
      ],
      "name": "updateBalance",
      "outputs": [],
      "stateMutability": "nonpayable",
      "type": "function"
    }
  ],
  "bytecode": "0x6080604052348015600f57600080fd5b506105008061001f6000396000f3fe608060405234801561001057600080fd5b50600436106100365760003560e01c806343aaa6901461003b578063c489744b14610057575b600080fd5b61005560048036038101906100509190610274565b610087565b005b610071600480360381019061006c91906102db565b610152565b60405161007e919061032a565b60405180910390f35b60008490508073ffffffffffffffffffffffffffffffffffffffff166323b872dd8585856040518463ffffffff1660e01b81526004016100c993929190610354565b6020604051808303816000875af11580156100e8573d6000803e3d6000fd5b505050506040513d601f19601f8201168201806040525081019061010c91906103c3565b61014b576040517f08c379a00000000000000000000000000000000000000000000000000000000081526004016101429061044d565b60405180910390fd5b5050505050565b6000808390508073ffffffffffffffffffffffffffffffffffffffff166370a08231846040518263ffffffff1660e01b8152600401610191919061046d565b602060405180830381865afa1580156101ae573d6000803e3d6000fd5b505050506040513d601f19601f820116820180604052508101906101d2919061049d565b91505092915050565b600080fd5b600073ffffffffffffffffffffffffffffffffffffffff82169050919050565b600061020b826101e0565b9050919050565b61021b81610200565b811461022657600080fd5b50565b60008135905061023881610212565b92915050565b6000819050919050565b6102518161023e565b811461025c57600080fd5b50565b60008135905061026e81610248565b92915050565b6000806000806080858703121561028e5761028d6101db565b5b600061029c87828801610229565b94505060206102ad87828801610229565b93505060406102be87828801610229565b92505060606102cf8782880161025f565b91505092959194509250565b600080604083850312156102f2576102f16101db565b5b600061030085828601610229565b925050602061031185828601610229565b9150509250929050565b6103248161023e565b82525050565b600060208201905061033f600083018461031b565b92915050565b61034e81610200565b82525050565b60006060820190506103696000830186610345565b6103766020830185610345565b610383604083018461031b565b949350505050565b60008115159050919050565b6103a08161038b565b81146103ab57600080fd5b50565b6000815190506103bd81610397565b92915050565b6000602082840312156103d9576103d86101db565b5b60006103e7848285016103ae565b91505092915050565b600082825260208201905092915050565b7f5472616e73666572206661696c65640000000000000000000000000000000000600082015250565b6000610437600f836103f0565b915061044282610401565b602082019050919050565b600060208201905081810360008301526104668161042a565b9050919050565b60006020820190506104826000830184610345565b92915050565b60008151905061049781610248565b92915050565b6000602082840312156104b3576104b26101db565b5b60006104c184828501610488565b9150509291505056fea2646970667358221220178d5b67c3450359dd61f1a376e7df308e9589dff075980ca201bd9393c50ecf64736f6c634300081c0033",
  "linkReferences": {},
  "deployedLinkReferences": {}
}