{
  "_format": "hh-sol-artifact-1",
  "contractName": "QswapProxy",
  "sourceName": "contracts/swap/qswapProxy.sol",
  "abi": [
    {
      "inputs": [],
      "stateMutability": "nonpayable",
      "type": "constructor"
    },
    {
      "anonymous": false,
      "inputs": [
        {
          "indexed": true,
          "internalType": "address",
          "name": "tokenX",
          "type": "address"
        },
        {
          "indexed": true,
          "internalType": "address",
          "name": "tokenY",
          "type": "address"
        },
        {
          "indexed": false,
          "internalType": "address",
          "name": "pair",
          "type": "address"
        },
        {
          "indexed": false,
          "internalType": "address",
          "name": "liquidityToken",
          "type": "address"
        }
      ],
      "name": "PairCreated",
      "type": "event"
    },
    {
      "inputs": [],
      "name": "_tokenBalanceUpdaterContract",
      "outputs": [
        {
          "internalType": "contract TokenBalanceUpdater",
          "name": "",
          "type": "address"
        }
      ],
      "stateMutability": "view",
      "type": "function"
    },
    {
      "inputs": [
        {
          "internalType": "address",
          "name": "tokenX",
          "type": "address"
        },
        {
          "internalType": "address",
          "name": "tokenY",
          "type": "address"
        },
        {
          "internalType": "uint256",
          "name": "amountA",
          "type": "uint256"
        }
      ],
      "name": "addLiquidity",
      "outputs": [
        {
          "internalType": "bool",
          "name": "isSuccess",
          "type": "bool"
        }
      ],
      "stateMutability": "nonpayable",
      "type": "function"
    },
    {
      "inputs": [
        {
          "internalType": "address",
          "name": "tokenX",
          "type": "address"
        },
        {
          "internalType": "uint256",
          "name": "amountTokenX",
          "type": "uint256"
        },
        {
          "internalType": "address",
          "name": "tokenY",
          "type": "address"
        },
        {
          "internalType": "uint256",
          "name": "amountTokenY",
          "type": "uint256"
        },
        {
          "internalType": "uint256",
          "name": "fee",
          "type": "uint256"
        }
      ],
      "name": "createPair",
      "outputs": [
        {
          "internalType": "address",
          "name": "pair",
          "type": "address"
        }
      ],
      "stateMutability": "nonpayable",
      "type": "function"
    },
    {
      "inputs": [
        {
          "internalType": "address",
          "name": "",
          "type": "address"
        }
      ],
      "name": "getLTPair",
      "outputs": [
        {
          "internalType": "address",
          "name": "",
          "type": "address"
        }
      ],
      "stateMutability": "view",
      "type": "function"
    },
    {
      "inputs": [
        {
          "internalType": "address",
          "name": "",
          "type": "address"
        },
        {
          "internalType": "address",
          "name": "",
          "type": "address"
        }
      ],
      "name": "getPair",
      "outputs": [
        {
          "internalType": "address",
          "name": "pairAddress",
          "type": "address"
        },
        {
          "internalType": "bool",
          "name": "isReverse",
          "type": "bool"
        }
      ],
      "stateMutability": "view",
      "type": "function"
    },
    {
      "inputs": [
        {
          "internalType": "address",
          "name": "liquidityTokenAddress",
          "type": "address"
        },
        {
          "internalType": "uint256",
          "name": "amount",
          "type": "uint256"
        }
      ],
      "name": "removeLiquidity",
      "outputs": [
        {
          "internalType": "bool",
          "name": "isSuccess",
          "type": "bool"
        }
      ],
      "stateMutability": "nonpayable",
      "type": "function"
    },
    {
      "inputs": [
        {
          "internalType": "address",
          "name": "tokenX",
          "type": "address"
        },
        {
          "internalType": "address",
          "name": "tokenY",
          "type": "address"
        },
        {
          "internalType": "uint256",
          "name": "amount",
          "type": "uint256"
        }
      ],
      "name": "swap",
      "outputs": [
        {
          "internalType": "bool",
          "name": "isSuccess",
          "type": "bool"
        }
      ],
      "stateMutability": "nonpayable",
      "type": "function"
    }
  ],
  "bytecode": "0x6080604052348015600f57600080fd5b50604051601a906079565b604051809103906000f0801580156035573d6000803e3d6000fd5b506000806101000a81548173ffffffffffffffffffffffffffffffffffffffff021916908373ffffffffffffffffffffffffffffffffffffffff1602179055506086565b6106f48061590283390190565b61586d806100956000396000f3fe608060405234801561001057600080fd5b506004361061007d5760003560e01c8063c515bfa91161005b578063c515bfa914610100578063df791e5014610130578063e4a7672614610160578063e6a43905146101905761007d565b806314b538ca14610082578063a201ccf6146100a0578063a3625b8f146100d0575b600080fd5b61008a6101c1565b6040516100979190610d44565b60405180910390f35b6100ba60048036038101906100b59190610de7565b6101e5565b6040516100c79190610e42565b60405180910390f35b6100ea60048036038101906100e59190610e5d565b6102c0565b6040516100f79190610e99565b60405180910390f35b61011a60048036038101906101159190610eb4565b6102f3565b6040516101279190610e99565b60405180910390f35b61014a60048036038101906101459190610f2f565b610930565b6040516101579190610e42565b60405180910390f35b61017a60048036038101906101759190610f2f565b610a36565b6040516101879190610e42565b60405180910390f35b6101aa60048036038101906101a59190610f82565b610b38565b6040516101b8929190610fc2565b60405180910390f35b60008054906101000a900473ffffffffffffffffffffffffffffffffffffffff1681565b600080600160008573ffffffffffffffffffffffffffffffffffffffff1673ffffffffffffffffffffffffffffffffffffffff16815260200190815260200160002060009054906101000a900473ffffffffffffffffffffffffffffffffffffffff1690508073ffffffffffffffffffffffffffffffffffffffff16639c8f9f23846040518263ffffffff1660e01b81526004016102839190610ffa565b600060405180830381600087803b15801561029d57600080fd5b505af11580156102b1573d6000803e3d6000fd5b50505050600191505092915050565b60016020528060005260406000206000915054906101000a900473ffffffffffffffffffffffffffffffffffffffff1681565b60008373ffffffffffffffffffffffffffffffffffffffff168673ffffffffffffffffffffffffffffffffffffffff1603610363576040517f08c379a000000000000000000000000000000000000000000000000000000000815260040161035a90611072565b60405180910390fd5b600073ffffffffffffffffffffffffffffffffffffffff16600260008873ffffffffffffffffffffffffffffffffffffffff1673ffffffffffffffffffffffffffffffffffffffff16815260200190815260200160002060008673ffffffffffffffffffffffffffffffffffffffff1673ffffffffffffffffffffffffffffffffffffffff16815260200190815260200160002060000160009054906101000a900473ffffffffffffffffffffffffffffffffffffffff1673ffffffffffffffffffffffffffffffffffffffff1614610471576040517f08c379a0000000000000000000000000000000000000000000000000000000008152600401610468906110de565b60405180910390fd5b6000808773ffffffffffffffffffffffffffffffffffffffff166306fdde036040518163ffffffff1660e01b8152600401600060405180830381865afa1580156104bf573d6000803e3d6000fd5b505050506040513d6000823e3d601f19601f820116820180604052508101906104e8919061125f565b8673ffffffffffffffffffffffffffffffffffffffff166306fdde036040518163ffffffff1660e01b8152600401600060405180830381865afa158015610533573d6000803e3d6000fd5b505050506040513d6000823e3d601f19601f8201168201806040525081019061055c919061125f565b60405160200161056d9291906112ef565b60405160208183030381529060405260018060405161058b90610cab565b61059894939291906113d3565b604051809103906000f0801580156105b4573d6000803e3d6000fd5b509050868686868660008054906101000a900473ffffffffffffffffffffffffffffffffffffffff16866040516105ea90610cb8565b6105fa9796959493929190611432565b604051809103906000f080158015610616573d6000803e3d6000fd5b50915060405180604001604052808373ffffffffffffffffffffffffffffffffffffffff16815260200160001515815250600260008973ffffffffffffffffffffffffffffffffffffffff1673ffffffffffffffffffffffffffffffffffffffff16815260200190815260200160002060008773ffffffffffffffffffffffffffffffffffffffff1673ffffffffffffffffffffffffffffffffffffffff16815260200190815260200160002060008201518160000160006101000a81548173ffffffffffffffffffffffffffffffffffffffff021916908373ffffffffffffffffffffffffffffffffffffffff16021790555060208201518160000160146101000a81548160ff02191690831515021790555090505060405180604001604052808373ffffffffffffffffffffffffffffffffffffffff16815260200160011515815250600260008773ffffffffffffffffffffffffffffffffffffffff1673ffffffffffffffffffffffffffffffffffffffff16815260200190815260200160002060008973ffffffffffffffffffffffffffffffffffffffff1673ffffffffffffffffffffffffffffffffffffffff16815260200190815260200160002060008201518160000160006101000a81548173ffffffffffffffffffffffffffffffffffffffff021916908373ffffffffffffffffffffffffffffffffffffffff16021790555060208201518160000160146101000a81548160ff02191690831515021790555090505081600160008373ffffffffffffffffffffffffffffffffffffffff1673ffffffffffffffffffffffffffffffffffffffff16815260200190815260200160002060006101000a81548173ffffffffffffffffffffffffffffffffffffffff021916908373ffffffffffffffffffffffffffffffffffffffff1602179055508473ffffffffffffffffffffffffffffffffffffffff168773ffffffffffffffffffffffffffffffffffffffff167f528a7392e6fd550c4de9e894c55879cd7a03e87f1ac9ddafe8677a2ac1d8cf9f848460405161091e9291906114a1565b60405180910390a35095945050505050565b600080600061093f8686610b96565b91509150600073ffffffffffffffffffffffffffffffffffffffff168173ffffffffffffffffffffffffffffffffffffffff16036109b2576040517f08c379a00000000000000000000000000000000000000000000000000000000081526004016109a990611516565b60405180910390fd5b60008190508073ffffffffffffffffffffffffffffffffffffffff1663e650cd8f888786336040518563ffffffff1660e01b81526004016109f69493929190611536565b600060405180830381600087803b158015610a1057600080fd5b505af1158015610a24573d6000803e3d6000fd5b50505050600193505050509392505050565b6000806000610a458686610b96565b91509150600073ffffffffffffffffffffffffffffffffffffffff168173ffffffffffffffffffffffffffffffffffffffff1603610ab8576040517f08c379a0000000000000000000000000000000000000000000000000000000008152600401610aaf90611516565b60405180910390fd5b60008190508073ffffffffffffffffffffffffffffffffffffffff16638a3aacb386856040518363ffffffff1660e01b8152600401610af892919061157b565b600060405180830381600087803b158015610b1257600080fd5b505af1158015610b26573d6000803e3d6000fd5b50505050600193505050509392505050565b6002602052816000526040600020602052806000526040600020600091509150508060000160009054906101000a900473ffffffffffffffffffffffffffffffffffffffff16908060000160149054906101000a900460ff16905082565b6000806000600260008673ffffffffffffffffffffffffffffffffffffffff1673ffffffffffffffffffffffffffffffffffffffff16815260200190815260200160002060008573ffffffffffffffffffffffffffffffffffffffff1673ffffffffffffffffffffffffffffffffffffffff1681526020019081526020016000206040518060400160405290816000820160009054906101000a900473ffffffffffffffffffffffffffffffffffffffff1673ffffffffffffffffffffffffffffffffffffffff1673ffffffffffffffffffffffffffffffffffffffff1681526020016000820160149054906101000a900460ff16151515158152505090508060200151816000015192509250509250929050565b611e98806115a583390190565b6123fb8061343d83390190565b600073ffffffffffffffffffffffffffffffffffffffff82169050919050565b6000819050919050565b6000610d0a610d05610d0084610cc5565b610ce5565b610cc5565b9050919050565b6000610d1c82610cef565b9050919050565b6000610d2e82610d11565b9050919050565b610d3e81610d23565b82525050565b6000602082019050610d596000830184610d35565b92915050565b6000604051905090565b600080fd5b600080fd5b6000610d7e82610cc5565b9050919050565b610d8e81610d73565b8114610d9957600080fd5b50565b600081359050610dab81610d85565b92915050565b6000819050919050565b610dc481610db1565b8114610dcf57600080fd5b50565b600081359050610de181610dbb565b92915050565b60008060408385031215610dfe57610dfd610d69565b5b6000610e0c85828601610d9c565b9250506020610e1d85828601610dd2565b9150509250929050565b60008115159050919050565b610e3c81610e27565b82525050565b6000602082019050610e576000830184610e33565b92915050565b600060208284031215610e7357610e72610d69565b5b6000610e8184828501610d9c565b91505092915050565b610e9381610d73565b82525050565b6000602082019050610eae6000830184610e8a565b92915050565b600080600080600060a08688031215610ed057610ecf610d69565b5b6000610ede88828901610d9c565b9550506020610eef88828901610dd2565b9450506040610f0088828901610d9c565b9350506060610f1188828901610dd2565b9250506080610f2288828901610dd2565b9150509295509295909350565b600080600060608486031215610f4857610f47610d69565b5b6000610f5686828701610d9c565b9350506020610f6786828701610d9c565b9250506040610f7886828701610dd2565b9150509250925092565b60008060408385031215610f9957610f98610d69565b5b6000610fa785828601610d9c565b9250506020610fb885828601610d9c565b9150509250929050565b6000604082019050610fd76000830185610e8a565b610fe46020830184610e33565b9392505050565b610ff481610db1565b82525050565b600060208201905061100f6000830184610feb565b92915050565b600082825260208201905092915050565b7f4430000000000000000000000000000000000000000000000000000000000000600082015250565b600061105c600283611015565b915061106782611026565b602082019050919050565b6000602082019050818103600083015261108b8161104f565b9050919050565b7f4431000000000000000000000000000000000000000000000000000000000000600082015250565b60006110c8600283611015565b91506110d382611092565b602082019050919050565b600060208201905081810360008301526110f7816110bb565b9050919050565b600080fd5b600080fd5b6000601f19601f8301169050919050565b7f4e487b7100000000000000000000000000000000000000000000000000000000600052604160045260246000fd5b61115182611108565b810181811067ffffffffffffffff821117156111705761116f611119565b5b80604052505050565b6000611183610d5f565b905061118f8282611148565b919050565b600067ffffffffffffffff8211156111af576111ae611119565b5b6111b882611108565b9050602081019050919050565b60005b838110156111e35780820151818401526020810190506111c8565b60008484015250505050565b60006112026111fd84611194565b611179565b90508281526020810184848401111561121e5761121d611103565b5b6112298482856111c5565b509392505050565b600082601f830112611246576112456110fe565b5b81516112568482602086016111ef565b91505092915050565b60006020828403121561127557611274610d69565b5b600082015167ffffffffffffffff81111561129357611292610d6e565b5b61129f84828501611231565b91505092915050565b600081519050919050565b600081905092915050565b60006112c9826112a8565b6112d381856112b3565b93506112e38185602086016111c5565b80840191505092915050565b60006112fb82856112be565b915061130782846112be565b91508190509392505050565b6000819050919050565b600061133861133361132e84611313565b610ce5565b610db1565b9050919050565b6113488161131d565b82525050565b6000611359826112a8565b6113638185611015565b93506113738185602086016111c5565b61137c81611108565b840191505092915050565b7f51534c5400000000000000000000000000000000000000000000000000000000600082015250565b60006113bd600483611015565b91506113c882611387565b602082019050919050565b600060a0820190506113e8600083018761133f565b81810360208301526113fa818661134e565b9050818103604083015261140d816113b0565b905061141c6060830185610e33565b6114296080830184610e33565b95945050505050565b600060e082019050611447600083018a610e8a565b6114546020830189610feb565b6114616040830188610e8a565b61146e6060830187610feb565b61147b6080830186610feb565b61148860a0830185610e8a565b61149560c0830184610e8a565b98975050505050505050565b60006040820190506114b66000830185610e8a565b6114c36020830184610e8a565b9392505050565b7f4432000000000000000000000000000000000000000000000000000000000000600082015250565b6000611500600283611015565b915061150b826114ca565b602082019050919050565b6000602082019050818103600083015261152f816114f3565b9050919050565b600060808201905061154b6000830187610e8a565b6115586020830186610feb565b6115656040830185610e33565b6115726060830184610e8a565b95945050505050565b60006040820190506115906000830185610feb565b61159d6020830184610e33565b939250505056fe60806040526012600660006101000a81548160ff021916908360ff16021790555034801561002c57600080fd5b50604051611e98380380611e98833981810160405281019061004e91906103db565b81600260006101000a81548160ff02191690831515021790555080600260016101000a81548160ff021916908315150217905550836000908161009191906106a5565b5082600190816100a191906106a5565b50600660009054906101000a900460ff1660ff16600a6100c191906108d9565b856100cc9190610924565b6003819055506100e13361013160201b60201c565b600354600760003373ffffffffffffffffffffffffffffffffffffffff1673ffffffffffffffffffffffffffffffffffffffff16815260200190815260200160002081905550505050505061099a565b600560008273ffffffffffffffffffffffffffffffffffffffff1673ffffffffffffffffffffffffffffffffffffffff16815260200190815260200160002060009054906101000a900460ff166101f5576001600560008373ffffffffffffffffffffffffffffffffffffffff1673ffffffffffffffffffffffffffffffffffffffff16815260200190815260200160002060006101000a81548160ff0219169083151502179055506001600460008282546101ed9190610966565b925050819055505b50565b6000604051905090565b600080fd5b600080fd5b6000819050919050565b61021f8161020c565b811461022a57600080fd5b50565b60008151905061023c81610216565b92915050565b600080fd5b600080fd5b6000601f19601f8301169050919050565b7f4e487b7100000000000000000000000000000000000000000000000000000000600052604160045260246000fd5b6102958261024c565b810181811067ffffffffffffffff821117156102b4576102b361025d565b5b80604052505050565b60006102c76101f8565b90506102d3828261028c565b919050565b600067ffffffffffffffff8211156102f3576102f261025d565b5b6102fc8261024c565b9050602081019050919050565b60005b8381101561032757808201518184015260208101905061030c565b60008484015250505050565b6000610346610341846102d8565b6102bd565b90508281526020810184848401111561036257610361610247565b5b61036d848285610309565b509392505050565b600082601f83011261038a57610389610242565b5b815161039a848260208601610333565b91505092915050565b60008115159050919050565b6103b8816103a3565b81146103c357600080fd5b50565b6000815190506103d5816103af565b92915050565b600080600080600060a086880312156103f7576103f6610202565b5b60006104058882890161022d565b955050602086015167ffffffffffffffff81111561042657610425610207565b5b61043288828901610375565b945050604086015167ffffffffffffffff81111561045357610452610207565b5b61045f88828901610375565b9350506060610470888289016103c6565b9250506080610481888289016103c6565b9150509295509295909350565b600081519050919050565b7f4e487b7100000000000000000000000000000000000000000000000000000000600052602260045260246000fd5b600060028204905060018216806104e057607f821691505b6020821081036104f3576104f2610499565b5b50919050565b60008190508160005260206000209050919050565b60006020601f8301049050919050565b600082821b905092915050565b60006008830261055b7fffffffffffffffffffffffffffffffffffffffffffffffffffffffffffffffff8261051e565b610565868361051e565b95508019841693508086168417925050509392505050565b6000819050919050565b60006105a261059d6105988461020c565b61057d565b61020c565b9050919050565b6000819050919050565b6105bc83610587565b6105d06105c8826105a9565b84845461052b565b825550505050565b600090565b6105e56105d8565b6105f08184846105b3565b505050565b5b81811015610614576106096000826105dd565b6001810190506105f6565b5050565b601f8211156106595761062a816104f9565b6106338461050e565b81016020851015610642578190505b61065661064e8561050e565b8301826105f5565b50505b505050565b600082821c905092915050565b600061067c6000198460080261065e565b1980831691505092915050565b6000610695838361066b565b9150826002028217905092915050565b6106ae8261048e565b67ffffffffffffffff8111156106c7576106c661025d565b5b6106d182546104c8565b6106dc828285610618565b600060209050601f83116001811461070f57600084156106fd578287015190505b6107078582610689565b86555061076f565b601f19841661071d866104f9565b60005b8281101561074557848901518255600182019150602085019450602081019050610720565b86831015610762578489015161075e601f89168261066b565b8355505b6001600288020188555050505b505050505050565b7f4e487b7100000000000000000000000000000000000000000000000000000000600052601160045260246000fd5b60008160011c9050919050565b6000808291508390505b60018511156107fd578086048111156107d9576107d8610777565b5b60018516156107e85780820291505b80810290506107f6856107a6565b94506107bd565b94509492505050565b60008261081657600190506108d2565b8161082457600090506108d2565b816001811461083a576002811461084457610873565b60019150506108d2565b60ff84111561085657610855610777565b5b8360020a91508482111561086d5761086c610777565b5b506108d2565b5060208310610133831016604e8410600b84101617156108a85782820a9050838111156108a3576108a2610777565b5b6108d2565b6108b584848460016107b3565b925090508184048111156108cc576108cb610777565b5b81810290505b9392505050565b60006108e48261020c565b91506108ef8361020c565b925061091c7fffffffffffffffffffffffffffffffffffffffffffffffffffffffffffffffff8484610806565b905092915050565b600061092f8261020c565b915061093a8361020c565b92508282026109488161020c565b9150828204841483151761095f5761095e610777565b5b5092915050565b60006109718261020c565b915061097c8361020c565b925082820190508082111561099457610993610777565b5b92915050565b6114ef806109a96000396000f3fe608060405234801561001057600080fd5b50600436106100ea5760003560e01c806342966c681161008c578063883356d911610066578063883356d91461027557806395d89b4114610293578063a9059cbb146102b1578063dd62ed3e146102e1576100ea565b806342966c68146101f757806346b45af71461022757806370a0823114610245576100ea565b80631aab9a9f116100c85780631aab9a9f1461015b57806323b872dd14610179578063313ce567146101a957806340c10f19146101c7576100ea565b806306fdde03146100ef578063095ea7b31461010d57806318160ddd1461013d575b600080fd5b6100f7610311565b6040516101049190610ebb565b60405180910390f35b61012760048036038101906101229190610f76565b61039f565b6040516101349190610fd1565b60405180910390f35b610145610491565b6040516101529190610ffb565b60405180910390f35b610163610497565b6040516101709190610ffb565b60405180910390f35b610193600480360381019061018e9190611016565b61049d565b6040516101a09190610fd1565b60405180910390f35b6101b1610798565b6040516101be9190611085565b60405180910390f35b6101e160048036038101906101dc9190610f76565b6107ab565b6040516101ee9190610fd1565b60405180910390f35b610211600480360381019061020c91906110a0565b610932565b60405161021e9190610fd1565b60405180910390f35b61022f610acb565b60405161023c9190610fd1565b60405180910390f35b61025f600480360381019061025a91906110cd565b610ade565b60405161026c9190610ffb565b60405180910390f35b61027d610af6565b60405161028a9190610fd1565b60405180910390f35b61029b610b09565b6040516102a89190610ebb565b60405180910390f35b6102cb60048036038101906102c69190610f76565b610b97565b6040516102d89190610fd1565b60405180910390f35b6102fb60048036038101906102f691906110fa565b610d3f565b6040516103089190610ffb565b60405180910390f35b6000805461031e90611169565b80601f016020809104026020016040519081016040528092919081815260200182805461034a90611169565b80156103975780601f1061036c57610100808354040283529160200191610397565b820191906000526020600020905b81548152906001019060200180831161037a57829003601f168201915b505050505081565b600081600860003373ffffffffffffffffffffffffffffffffffffffff1673ffffffffffffffffffffffffffffffffffffffff16815260200190815260200160002060008573ffffffffffffffffffffffffffffffffffffffff1673ffffffffffffffffffffffffffffffffffffffff168152602001908152602001600020819055508273ffffffffffffffffffffffffffffffffffffffff163373ffffffffffffffffffffffffffffffffffffffff167f8c5be1e5ebec7d5bd14f71427d1e84f3dd0314c0f7b2291e5b200ac8c7c3b9258460405161047f9190610ffb565b60405180910390a36001905092915050565b60035481565b60045481565b600081600760008673ffffffffffffffffffffffffffffffffffffffff1673ffffffffffffffffffffffffffffffffffffffff168152602001908152602001600020541015610521576040517f08c379a0000000000000000000000000000000000000000000000000000000008152600401610518906111e6565b60405180910390fd5b81600860008673ffffffffffffffffffffffffffffffffffffffff1673ffffffffffffffffffffffffffffffffffffffff16815260200190815260200160002060003373ffffffffffffffffffffffffffffffffffffffff1673ffffffffffffffffffffffffffffffffffffffff1681526020019081526020016000205410156105e0576040517f08c379a00000000000000000000000000000000000000000000000000000000081526004016105d790611252565b60405180910390fd5b6105e983610d64565b81600760008673ffffffffffffffffffffffffffffffffffffffff1673ffffffffffffffffffffffffffffffffffffffff168152602001908152602001600020600082825461063891906112a1565b9250508190555081600760008573ffffffffffffffffffffffffffffffffffffffff1673ffffffffffffffffffffffffffffffffffffffff168152602001908152602001600020600082825461068e91906112d5565b9250508190555081600860008673ffffffffffffffffffffffffffffffffffffffff1673ffffffffffffffffffffffffffffffffffffffff16815260200190815260200160002060003373ffffffffffffffffffffffffffffffffffffffff1673ffffffffffffffffffffffffffffffffffffffff168152602001908152602001600020600082825461072191906112a1565b925050819055508273ffffffffffffffffffffffffffffffffffffffff168473ffffffffffffffffffffffffffffffffffffffff167fddf252ad1be2c89b69c2b068fc378daa952ba7f163c4a11628f55a4df523b3ef846040516107859190610ffb565b60405180910390a3600190509392505050565b600660009054906101000a900460ff1681565b6000600260009054906101000a900460ff166107fc576040517f08c379a00000000000000000000000000000000000000000000000000000000081526004016107f390611355565b60405180910390fd5b600073ffffffffffffffffffffffffffffffffffffffff168373ffffffffffffffffffffffffffffffffffffffff160361086b576040517f08c379a0000000000000000000000000000000000000000000000000000000008152600401610862906113c1565b60405180910390fd5b816003600082825461087d91906112d5565b9250508190555081600760008573ffffffffffffffffffffffffffffffffffffffff1673ffffffffffffffffffffffffffffffffffffffff16815260200190815260200160002060008282546108d391906112d5565b925050819055508273ffffffffffffffffffffffffffffffffffffffff167f0f6798a560793a54c3bcfe86a93cde1e73087d944c0ea20544137d4121396885836040516109209190610ffb565b60405180910390a26001905092915050565b6000600260019054906101000a900460ff16610983576040517f08c379a000000000000000000000000000000000000000000000000000000000815260040161097a9061142d565b60405180910390fd5b81600760003373ffffffffffffffffffffffffffffffffffffffff1673ffffffffffffffffffffffffffffffffffffffff168152602001908152602001600020541015610a05576040517f08c379a00000000000000000000000000000000000000000000000000000000081526004016109fc90611499565b60405180910390fd5b8160036000828254610a1791906112a1565b9250508190555081600760003373ffffffffffffffffffffffffffffffffffffffff1673ffffffffffffffffffffffffffffffffffffffff1681526020019081526020016000206000828254610a6d91906112a1565b925050819055503373ffffffffffffffffffffffffffffffffffffffff167fcc16f5dbb4873280815c1ee09dbd06736cffcc184412cf7a71a0fdb75d397ca583604051610aba9190610ffb565b60405180910390a260019050919050565b600260009054906101000a900460ff1681565b60076020528060005260406000206000915090505481565b600260019054906101000a900460ff1681565b60018054610b1690611169565b80601f0160208091040260200160405190810160405280929190818152602001828054610b4290611169565b8015610b8f5780601f10610b6457610100808354040283529160200191610b8f565b820191906000526020600020905b815481529060010190602001808311610b7257829003601f168201915b505050505081565b600081600760003373ffffffffffffffffffffffffffffffffffffffff1673ffffffffffffffffffffffffffffffffffffffff168152602001908152602001600020541015610c1b576040517f08c379a0000000000000000000000000000000000000000000000000000000008152600401610c12906111e6565b60405180910390fd5b610c2483610d64565b81600760003373ffffffffffffffffffffffffffffffffffffffff1673ffffffffffffffffffffffffffffffffffffffff1681526020019081526020016000206000828254610c7391906112a1565b9250508190555081600760008573ffffffffffffffffffffffffffffffffffffffff1673ffffffffffffffffffffffffffffffffffffffff1681526020019081526020016000206000828254610cc991906112d5565b925050819055508273ffffffffffffffffffffffffffffffffffffffff163373ffffffffffffffffffffffffffffffffffffffff167fddf252ad1be2c89b69c2b068fc378daa952ba7f163c4a11628f55a4df523b3ef84604051610d2d9190610ffb565b60405180910390a36001905092915050565b6008602052816000526040600020602052806000526040600020600091509150505481565b600560008273ffffffffffffffffffffffffffffffffffffffff1673ffffffffffffffffffffffffffffffffffffffff16815260200190815260200160002060009054906101000a900460ff16610e28576001600560008373ffffffffffffffffffffffffffffffffffffffff1673ffffffffffffffffffffffffffffffffffffffff16815260200190815260200160002060006101000a81548160ff021916908315150217905550600160046000828254610e2091906112d5565b925050819055505b50565b600081519050919050565b600082825260208201905092915050565b60005b83811015610e65578082015181840152602081019050610e4a565b60008484015250505050565b6000601f19601f8301169050919050565b6000610e8d82610e2b565b610e978185610e36565b9350610ea7818560208601610e47565b610eb081610e71565b840191505092915050565b60006020820190508181036000830152610ed58184610e82565b905092915050565b600080fd5b600073ffffffffffffffffffffffffffffffffffffffff82169050919050565b6000610f0d82610ee2565b9050919050565b610f1d81610f02565b8114610f2857600080fd5b50565b600081359050610f3a81610f14565b92915050565b6000819050919050565b610f5381610f40565b8114610f5e57600080fd5b50565b600081359050610f7081610f4a565b92915050565b60008060408385031215610f8d57610f8c610edd565b5b6000610f9b85828601610f2b565b9250506020610fac85828601610f61565b9150509250929050565b60008115159050919050565b610fcb81610fb6565b82525050565b6000602082019050610fe66000830184610fc2565b92915050565b610ff581610f40565b82525050565b60006020820190506110106000830184610fec565b92915050565b60008060006060848603121561102f5761102e610edd565b5b600061103d86828701610f2b565b935050602061104e86828701610f2b565b925050604061105f86828701610f61565b9150509250925092565b600060ff82169050919050565b61107f81611069565b82525050565b600060208201905061109a6000830184611076565b92915050565b6000602082840312156110b6576110b5610edd565b5b60006110c484828501610f61565b91505092915050565b6000602082840312156110e3576110e2610edd565b5b60006110f184828501610f2b565b91505092915050565b6000806040838503121561111157611110610edd565b5b600061111f85828601610f2b565b925050602061113085828601610f2b565b9150509250929050565b7f4e487b7100000000000000000000000000000000000000000000000000000000600052602260045260246000fd5b6000600282049050600182168061118157607f821691505b6020821081036111945761119361113a565b5b50919050565b7f496e73756666696369656e742062616c616e6365000000000000000000000000600082015250565b60006111d0601483610e36565b91506111db8261119a565b602082019050919050565b600060208201905081810360008301526111ff816111c3565b9050919050565b7f416c6c6f77616e63652065786365656465640000000000000000000000000000600082015250565b600061123c601283610e36565b915061124782611206565b602082019050919050565b6000602082019050818103600083015261126b8161122f565b9050919050565b7f4e487b7100000000000000000000000000000000000000000000000000000000600052601160045260246000fd5b60006112ac82610f40565b91506112b783610f40565b92508282039050818111156112cf576112ce611272565b5b92915050565b60006112e082610f40565b91506112eb83610f40565b925082820190508082111561130357611302611272565b5b92915050565b7f4d696e74696e67206973206e6f7420616c6c6f77656400000000000000000000600082015250565b600061133f601683610e36565b915061134a82611309565b602082019050919050565b6000602082019050818103600083015261136e81611332565b9050919050565b7f43616e6e6f74206d696e7420746f20746865207a65726f206164647265737300600082015250565b60006113ab601f83610e36565b91506113b682611375565b602082019050919050565b600060208201905081810360008301526113da8161139e565b9050919050565b7f4275726e696e67206973206e6f7420616c6c6f77656400000000000000000000600082015250565b6000611417601683610e36565b9150611422826113e1565b602082019050919050565b600060208201905081810360008301526114468161140a565b9050919050565b7f496e73756666696369656e742062616c616e636520746f206275726e00000000600082015250565b6000611483601c83610e36565b915061148e8261144d565b602082019050919050565b600060208201905081810360008301526114b281611476565b905091905056fea264697066735822122043df1d2746d7ed0efc6c8e4990f74899376367ed60268843833892f140e6ac3364736f6c634300081c0033608060405261271060045534801561001657600080fd5b506040516123fb3803806123fb83398181016040528101906100389190610531565b866000806101000a81548173ffffffffffffffffffffffffffffffffffffffff021916908373ffffffffffffffffffffffffffffffffffffffff16021790555084600160006101000a81548173ffffffffffffffffffffffffffffffffffffffff021916908373ffffffffffffffffffffffffffffffffffffffff16021790555085600581905550836006819055508260038190555080600260006101000a81548173ffffffffffffffffffffffffffffffffffffffff021916908373ffffffffffffffffffffffffffffffffffffffff160217905550600260009054906101000a900473ffffffffffffffffffffffffffffffffffffffff1673ffffffffffffffffffffffffffffffffffffffff16600160009054906101000a900473ffffffffffffffffffffffffffffffffffffffff1673ffffffffffffffffffffffffffffffffffffffff1660008054906101000a900473ffffffffffffffffffffffffffffffffffffffff1673ffffffffffffffffffffffffffffffffffffffff167fd5b15d880a99babcad7baedddbe6d03dcc853b8484aa58ec19d1db08eeebc29660405160405180910390a481600860006101000a81548173ffffffffffffffffffffffffffffffffffffffff021916908373ffffffffffffffffffffffffffffffffffffffff160217905550600860009054906101000a900473ffffffffffffffffffffffffffffffffffffffff1673ffffffffffffffffffffffffffffffffffffffff166343aaa6908832308a6040518563ffffffff1660e01b815260040161028694939291906105f1565b600060405180830381600087803b1580156102a057600080fd5b505af11580156102b4573d6000803e3d6000fd5b50505050600860009054906101000a900473ffffffffffffffffffffffffffffffffffffffff1673ffffffffffffffffffffffffffffffffffffffff166343aaa690863230886040518563ffffffff1660e01b815260040161031994939291906105f1565b600060405180830381600087803b15801561033357600080fd5b505af1158015610347573d6000803e3d6000fd5b505050506000610367858861035c9190610665565b61041e60201b60201c565b905080600781905550600260009054906101000a900473ffffffffffffffffffffffffffffffffffffffff1673ffffffffffffffffffffffffffffffffffffffff166340c10f1932836040518363ffffffff1660e01b81526004016103cd9291906106a7565b6020604051808303816000875af11580156103ec573d6000803e3d6000fd5b505050506040513d601f19601f820116820180604052508101906104109190610708565b5050505050505050506107c9565b60006003821115610485578190506000600160028461043d9190610764565b6104479190610795565b90505b8181101561047f5780915060028182856104649190610764565b61046e9190610795565b6104789190610764565b905061044a565b50610493565b6000821461049257600190505b5b919050565b600080fd5b600073ffffffffffffffffffffffffffffffffffffffff82169050919050565b60006104c88261049d565b9050919050565b6104d8816104bd565b81146104e357600080fd5b50565b6000815190506104f5816104cf565b92915050565b6000819050919050565b61050e816104fb565b811461051957600080fd5b50565b60008151905061052b81610505565b92915050565b600080600080600080600060e0888a0312156105505761054f610498565b5b600061055e8a828b016104e6565b975050602061056f8a828b0161051c565b96505060406105808a828b016104e6565b95505060606105918a828b0161051c565b94505060806105a28a828b0161051c565b93505060a06105b38a828b016104e6565b92505060c06105c48a828b016104e6565b91505092959891949750929550565b6105dc816104bd565b82525050565b6105eb816104fb565b82525050565b600060808201905061060660008301876105d3565b61061360208301866105d3565b61062060408301856105d3565b61062d60608301846105e2565b95945050505050565b7f4e487b7100000000000000000000000000000000000000000000000000000000600052601160045260246000fd5b6000610670826104fb565b915061067b836104fb565b9250828202610689816104fb565b915082820484148315176106a05761069f610636565b5b5092915050565b60006040820190506106bc60008301856105d3565b6106c960208301846105e2565b9392505050565b60008115159050919050565b6106e5816106d0565b81146106f057600080fd5b50565b600081519050610702816106dc565b92915050565b60006020828403121561071e5761071d610498565b5b600061072c848285016106f3565b91505092915050565b7f4e487b7100000000000000000000000000000000000000000000000000000000600052601260045260246000fd5b600061076f826104fb565b915061077a836104fb565b92508261078a57610789610735565b5b828204905092915050565b60006107a0826104fb565b91506107ab836104fb565b92508282019050808211156107c3576107c2610636565b5b92915050565b611c23806107d86000396000f3fe608060405234801561001057600080fd5b50600436106100a95760003560e01c80639c8f9f23116100715780639c8f9f2314610143578063a001ecdd1461015f578063b7d19fc41461017d578063c71cca621461019b578063e650cd8f146101b9578063fa5e3b6d146101d5576100a9565b80630902f1ac146100ae57806316dc165b146100cd578063180b0d7e146100eb57806343cd8f7e146101095780638a3aacb314610127575b600080fd5b6100b66101f3565b6040516100c4929190611337565b60405180910390f35b6100d5610204565b6040516100e291906113df565b60405180910390f35b6100f3610228565b60405161010091906113fa565b60405180910390f35b61011161022e565b60405161011e91906113df565b60405180910390f35b610141600480360381019061013c919061147e565b610254565b005b61015d600480360381019061015891906114be565b610519565b005b610167610af7565b60405161017491906113fa565b60405180910390f35b610185610afd565b60405161019291906113df565b60405180910390f35b6101a3610b23565b6040516101b091906113fa565b60405180910390f35b6101d360048036038101906101ce9190611529565b610b29565b005b6101dd610dfa565b6040516101ea91906113fa565b60405180910390f35b600080600554600654915091509091565b60008054906101000a900473ffffffffffffffffffffffffffffffffffffffff1681565b60045481565b600260009054906101000a900473ffffffffffffffffffffffffffffffffffffffff1681565b60008211610297576040517f08c379a000000000000000000000000000000000000000000000000000000000815260040161028e906115ed565b60405180910390fd5b6000806000806102a685610e00565b93509350935093506000841180156102be5750600083115b6102fd576040517f08c379a00000000000000000000000000000000000000000000000000000000081526004016102f490611659565b60405180910390fd5b600083878661030c91906116a8565b6103169190611719565b90506000811161035b576040517f08c379a000000000000000000000000000000000000000000000000000000000815260040161035290611796565b60405180910390fd5b61036783323084610ebd565b6103738232308a610ebd565b6000600260009054906101000a900473ffffffffffffffffffffffffffffffffffffffff1673ffffffffffffffffffffffffffffffffffffffff166318160ddd6040518163ffffffff1660e01b8152600401602060405180830381865afa1580156103e2573d6000803e3d6000fd5b505050506040513d601f19601f8201168201806040525081019061040691906117cb565b905061041432838a8a610f56565b600081600260009054906101000a900473ffffffffffffffffffffffffffffffffffffffff1673ffffffffffffffffffffffffffffffffffffffff166318160ddd6040518163ffffffff1660e01b8152600401602060405180830381865afa158015610484573d6000803e3d6000fd5b505050506040513d601f19601f820116820180604052508101906104a891906117cb565b6104b291906117f8565b90506104bc611085565b3273ffffffffffffffffffffffffffffffffffffffff167fbeb3885786d637a474cbc287c0a44587231633a077f0bd30354d5a4b18996fce848b846040516105069392919061182c565b60405180910390a2505050505050505050565b6000811161055c576040517f08c379a0000000000000000000000000000000000000000000000000000000008152600401610553906118af565b60405180910390fd5b80600260009054906101000a900473ffffffffffffffffffffffffffffffffffffffff1673ffffffffffffffffffffffffffffffffffffffff166370a08231326040518263ffffffff1660e01b81526004016105b891906118de565b602060405180830381865afa1580156105d5573d6000803e3d6000fd5b505050506040513d601f19601f820116820180604052508101906105f991906117cb565b101561063a576040517f08c379a000000000000000000000000000000000000000000000000000000000815260040161063190611945565b60405180910390fd5b60006005549050600060065490506000821180156106585750600081115b610697576040517f08c379a000000000000000000000000000000000000000000000000000000000815260040161068e90611659565b60405180910390fd5b600060075484846106a891906116a8565b6106b29190611719565b9050600060075485846106c591906116a8565b6106cf9190611719565b90506000821180156106e15750600081115b610720576040517f08c379a0000000000000000000000000000000000000000000000000000000008152600401610717906118af565b60405180910390fd5b600260009054906101000a900473ffffffffffffffffffffffffffffffffffffffff1673ffffffffffffffffffffffffffffffffffffffff166323b872dd3230886040518463ffffffff1660e01b815260040161077f93929190611965565b6020604051808303816000875af115801561079e573d6000803e3d6000fd5b505050506040513d601f19601f820116820180604052508101906107c291906119b1565b50600260009054906101000a900473ffffffffffffffffffffffffffffffffffffffff1673ffffffffffffffffffffffffffffffffffffffff166342966c68866040518263ffffffff1660e01b815260040161081e91906113fa565b6020604051808303816000875af115801561083d573d6000803e3d6000fd5b505050506040513d601f19601f8201168201806040525081019061086191906119b1565b50846007600082825461087491906117f8565b9250508190555060008054906101000a900473ffffffffffffffffffffffffffffffffffffffff1673ffffffffffffffffffffffffffffffffffffffff1663095ea7b3600860009054906101000a900473ffffffffffffffffffffffffffffffffffffffff16846040518363ffffffff1660e01b81526004016108f89291906119de565b6020604051808303816000875af1158015610917573d6000803e3d6000fd5b505050506040513d601f19601f8201168201806040525081019061093b91906119b1565b50600160009054906101000a900473ffffffffffffffffffffffffffffffffffffffff1673ffffffffffffffffffffffffffffffffffffffff1663095ea7b3600860009054906101000a900473ffffffffffffffffffffffffffffffffffffffff16836040518363ffffffff1660e01b81526004016109bb9291906119de565b6020604051808303816000875af11580156109da573d6000803e3d6000fd5b505050506040513d601f19601f820116820180604052508101906109fe91906119b1565b50610a2b60008054906101000a900473ffffffffffffffffffffffffffffffffffffffff16303285610ebd565b610a59600160009054906101000a900473ffffffffffffffffffffffffffffffffffffffff16303284610ebd565b610a61611085565b3373ffffffffffffffffffffffffffffffffffffffff167f59c3a0b60c6ab7deb62e1440c9e72441db6db7dfe514dba8cb18e60c0d896efa838388604051610aab9392919061182c565b60405180910390a27fcf2aa50876cdfbb541206f89af0ee78d44a2abf8d328e37fa4917f982149848a600554600654604051610ae8929190611337565b60405180910390a15050505050565b60035481565b600160009054906101000a900473ffffffffffffffffffffffffffffffffffffffff1681565b60055481565b60008311610b6c576040517f08c379a0000000000000000000000000000000000000000000000000000000008152600401610b63906115ed565b60405180910390fd5b600073ffffffffffffffffffffffffffffffffffffffff168173ffffffffffffffffffffffffffffffffffffffff1603610bdb576040517f08c379a0000000000000000000000000000000000000000000000000000000008152600401610bd290611a53565b60405180910390fd5b6000806000806000610bee88888b611211565b95509550955095505094506000633b9aca00905060008183610c109190611719565b905060008187610c209190611a73565b905060008111610c65576040517f08c379a0000000000000000000000000000000000000000000000000000000008152600401610c5c90611af3565b60405180910390fd5b60008189610c739190611719565b905080881015610cb8576040517f08c379a0000000000000000000000000000000000000000000000000000000008152600401610caf90611b5f565b60405180910390fd5b60008189610cc691906117f8565b905060008582610cd691906116a8565b9050610ce4898d308a610ebd565b8773ffffffffffffffffffffffffffffffffffffffff1663a9059cbb32836040518363ffffffff1660e01b8152600401610d1f9291906119de565b6020604051808303816000875af1158015610d3e573d6000803e3d6000fd5b505050506040513d601f19601f82011682018060405250810190610d6291906119b1565b50610d6b611085565b8773ffffffffffffffffffffffffffffffffffffffff168973ffffffffffffffffffffffffffffffffffffffff163373ffffffffffffffffffffffffffffffffffffffff167fcd3829a3813dc3cdd188fd3d01dcf3268c16be2fdd2dd21d0665418816e460628a85604051610de1929190611337565b60405180910390a4505050505050505050505050505050565b60065481565b6000806000808415610e63576005549350600654925060008054906101000a900473ffffffffffffffffffffffffffffffffffffffff169150600160009054906101000a900473ffffffffffffffffffffffffffffffffffffffff169050610eb6565b60065493506005549250600160009054906101000a900473ffffffffffffffffffffffffffffffffffffffff16915060008054906101000a900473ffffffffffffffffffffffffffffffffffffffff1690505b9193509193565b600860009054906101000a900473ffffffffffffffffffffffffffffffffffffffff1673ffffffffffffffffffffffffffffffffffffffff166343aaa690858585856040518563ffffffff1660e01b8152600401610f1e9493929190611b7f565b600060405180830381600087803b158015610f3857600080fd5b505af1158015610f4c573d6000803e3d6000fd5b5050505050505050565b60008082610f6d5760055491506006549050610f78565b600654915060055490505b60008260075487610f8991906116a8565b610f939190611719565b905060008260075487610fa691906116a8565b610fb09190611719565b90506000610fbe8383611305565b90508060076000828254610fd29190611a73565b92505081905550600260009054906101000a900473ffffffffffffffffffffffffffffffffffffffff1673ffffffffffffffffffffffffffffffffffffffff166340c10f198a836040518363ffffffff1660e01b81526004016110369291906119de565b6020604051808303816000875af1158015611055573d6000803e3d6000fd5b505050506040513d601f19601f8201168201806040525081019061107991906119b1565b50505050505050505050565b600860009054906101000a900473ffffffffffffffffffffffffffffffffffffffff1673ffffffffffffffffffffffffffffffffffffffff1663c489744b60008054906101000a900473ffffffffffffffffffffffffffffffffffffffff16306040518363ffffffff1660e01b8152600401611102929190611bc4565b602060405180830381865afa15801561111f573d6000803e3d6000fd5b505050506040513d601f19601f8201168201806040525081019061114391906117cb565b600581905550600860009054906101000a900473ffffffffffffffffffffffffffffffffffffffff1673ffffffffffffffffffffffffffffffffffffffff1663c489744b600160009054906101000a900473ffffffffffffffffffffffffffffffffffffffff16306040518363ffffffff1660e01b81526004016111c8929190611bc4565b602060405180830381865afa1580156111e5573d6000803e3d6000fd5b505050506040513d601f19601f8201168201806040525081019061120991906117cb565b600681905550565b6000806000806000806000633b9aca0090506103e86003546103e861123691906117f8565b8b61124191906116a8565b61124b9190611719565b91506000808a61128c5760055491506006549050899550600160009054906101000a900473ffffffffffffffffffffffffffffffffffffffff1694506112bd565b6006549150600554905089955060008054906101000a900473ffffffffffffffffffffffffffffffffffffffff1694505b600083836112cb9190611719565b9050600084836112db9190611719565b905080826112e991906116a8565b9a508a82829a509a509a50505050505093975093979195509350565b60008183106113145781611316565b825b905092915050565b6000819050919050565b6113318161131e565b82525050565b600060408201905061134c6000830185611328565b6113596020830184611328565b9392505050565b600073ffffffffffffffffffffffffffffffffffffffff82169050919050565b6000819050919050565b60006113a56113a061139b84611360565b611380565b611360565b9050919050565b60006113b78261138a565b9050919050565b60006113c9826113ac565b9050919050565b6113d9816113be565b82525050565b60006020820190506113f460008301846113d0565b92915050565b600060208201905061140f6000830184611328565b92915050565b600080fd5b6114238161131e565b811461142e57600080fd5b50565b6000813590506114408161141a565b92915050565b60008115159050919050565b61145b81611446565b811461146657600080fd5b50565b60008135905061147881611452565b92915050565b6000806040838503121561149557611494611415565b5b60006114a385828601611431565b92505060206114b485828601611469565b9150509250929050565b6000602082840312156114d4576114d3611415565b5b60006114e284828501611431565b91505092915050565b60006114f682611360565b9050919050565b611506816114eb565b811461151157600080fd5b50565b600081359050611523816114fd565b92915050565b6000806000806080858703121561154357611542611415565b5b600061155187828801611514565b945050602061156287828801611431565b935050604061157387828801611469565b925050606061158487828801611514565b91505092959194509250565b600082825260208201905092915050565b7f4130000000000000000000000000000000000000000000000000000000000000600082015250565b60006115d7600283611590565b91506115e2826115a1565b602082019050919050565b60006020820190508181036000830152611606816115ca565b9050919050565b7f4230000000000000000000000000000000000000000000000000000000000000600082015250565b6000611643600283611590565b915061164e8261160d565b602082019050919050565b6000602082019050818103600083015261167281611636565b9050919050565b7f4e487b7100000000000000000000000000000000000000000000000000000000600052601160045260246000fd5b60006116b38261131e565b91506116be8361131e565b92508282026116cc8161131e565b915082820484148315176116e3576116e2611679565b5b5092915050565b7f4e487b7100000000000000000000000000000000000000000000000000000000600052601260045260246000fd5b60006117248261131e565b915061172f8361131e565b92508261173f5761173e6116ea565b5b828204905092915050565b7f4232000000000000000000000000000000000000000000000000000000000000600082015250565b6000611780600283611590565b915061178b8261174a565b602082019050919050565b600060208201905081810360008301526117af81611773565b9050919050565b6000815190506117c58161141a565b92915050565b6000602082840312156117e1576117e0611415565b5b60006117ef848285016117b6565b91505092915050565b60006118038261131e565b915061180e8361131e565b925082820390508181111561182657611825611679565b5b92915050565b60006060820190506118416000830186611328565b61184e6020830185611328565b61185b6040830184611328565b949350505050565b7f4330000000000000000000000000000000000000000000000000000000000000600082015250565b6000611899600283611590565b91506118a482611863565b602082019050919050565b600060208201905081810360008301526118c88161188c565b9050919050565b6118d8816114eb565b82525050565b60006020820190506118f360008301846118cf565b92915050565b7f4331000000000000000000000000000000000000000000000000000000000000600082015250565b600061192f600283611590565b915061193a826118f9565b602082019050919050565b6000602082019050818103600083015261195e81611922565b9050919050565b600060608201905061197a60008301866118cf565b61198760208301856118cf565b6119946040830184611328565b949350505050565b6000815190506119ab81611452565b92915050565b6000602082840312156119c7576119c6611415565b5b60006119d58482850161199c565b91505092915050565b60006040820190506119f360008301856118cf565b611a006020830184611328565b9392505050565b7f4131000000000000000000000000000000000000000000000000000000000000600082015250565b6000611a3d600283611590565b9150611a4882611a07565b602082019050919050565b60006020820190508181036000830152611a6c81611a30565b9050919050565b6000611a7e8261131e565b9150611a898361131e565b9250828201905080821115611aa157611aa0611679565b5b92915050565b7f446976696465206279207a65726f000000000000000000000000000000000000600082015250565b6000611add600e83611590565b9150611ae882611aa7565b602082019050919050565b60006020820190508181036000830152611b0c81611ad0565b9050919050565b7f556e646572666c6f770000000000000000000000000000000000000000000000600082015250565b6000611b49600983611590565b9150611b5482611b13565b602082019050919050565b60006020820190508181036000830152611b7881611b3c565b9050919050565b6000608082019050611b9460008301876118cf565b611ba160208301866118cf565b611bae60408301856118cf565b611bbb6060830184611328565b95945050505050565b6000604082019050611bd960008301856118cf565b611be660208301846118cf565b939250505056fea2646970667358221220ed0dff29efd23a5e11ba9234c6e9620a9060f6274f65883ff2344e7874a2629c64736f6c634300081c0033a26469706673582212203ce18e41c7b8f0e4aed07adb91efc3a11d2c963087b75a5aca42f3a751afc6a564736f6c634300081c00336080604052348015600f57600080fd5b506106d58061001f6000396000f3fe608060405234801561001057600080fd5b50600436106100365760003560e01c806343aaa6901461003b578063c489744b14610057575b600080fd5b6100556004803603810190610050919061041a565b610087565b005b610071600480360381019061006c9190610481565b610176565b60405161007e91906104d0565b60405180910390f35b6000849050610095856101ff565b61009e846101ff565b6100a7836101ff565b6100b082610298565b8073ffffffffffffffffffffffffffffffffffffffff166323b872dd8585856040518463ffffffff1660e01b81526004016100ed939291906104fa565b6020604051808303816000875af115801561010c573d6000803e3d6000fd5b505050506040513d601f19601f820116820180604052508101906101309190610569565b61016f576040517f08c379a0000000000000000000000000000000000000000000000000000000008152600401610166906105f3565b60405180910390fd5b5050505050565b6000808390508073ffffffffffffffffffffffffffffffffffffffff166370a08231846040518263ffffffff1660e01b81526004016101b59190610613565b602060405180830381865afa1580156101d2573d6000803e3d6000fd5b505050506040513d601f19601f820116820180604052508101906101f69190610643565b91505092915050565b610295816040516024016102139190610613565b6040516020818303038152906040527f2c2ecbc2000000000000000000000000000000000000000000000000000000007bffffffffffffffffffffffffffffffffffffffffffffffffffffffff19166020820180517bffffffffffffffffffffffffffffffffffffffffffffffffffffffff8381831617835250505050610331565b50565b61032e816040516024016102ac91906104d0565b6040516020818303038152906040527ff82c50f1000000000000000000000000000000000000000000000000000000007bffffffffffffffffffffffffffffffffffffffffffffffffffffffff19166020820180517bffffffffffffffffffffffffffffffffffffffffffffffffffffffff8381831617835250505050610331565b50565b6103488161034061034b61036c565b63ffffffff16565b50565b60006a636f6e736f6c652e6c6f679050600080835160208501845afa505050565b610377819050919050565b61037f610670565b565b600080fd5b600073ffffffffffffffffffffffffffffffffffffffff82169050919050565b60006103b182610386565b9050919050565b6103c1816103a6565b81146103cc57600080fd5b50565b6000813590506103de816103b8565b92915050565b6000819050919050565b6103f7816103e4565b811461040257600080fd5b50565b600081359050610414816103ee565b92915050565b6000806000806080858703121561043457610433610381565b5b6000610442878288016103cf565b9450506020610453878288016103cf565b9350506040610464878288016103cf565b925050606061047587828801610405565b91505092959194509250565b6000806040838503121561049857610497610381565b5b60006104a6858286016103cf565b92505060206104b7858286016103cf565b9150509250929050565b6104ca816103e4565b82525050565b60006020820190506104e560008301846104c1565b92915050565b6104f4816103a6565b82525050565b600060608201905061050f60008301866104eb565b61051c60208301856104eb565b61052960408301846104c1565b949350505050565b60008115159050919050565b61054681610531565b811461055157600080fd5b50565b6000815190506105638161053d565b92915050565b60006020828403121561057f5761057e610381565b5b600061058d84828501610554565b91505092915050565b600082825260208201905092915050565b7f5472616e73666572206661696c65640000000000000000000000000000000000600082015250565b60006105dd600f83610596565b91506105e8826105a7565b602082019050919050565b6000602082019050818103600083015261060c816105d0565b9050919050565b600060208201905061062860008301846104eb565b92915050565b60008151905061063d816103ee565b92915050565b60006020828403121561065957610658610381565b5b60006106678482850161062e565b91505092915050565b7f4e487b7100000000000000000000000000000000000000000000000000000000600052605160045260246000fdfea2646970667358221220ca7245b2a7b8715bdd78fc0a51a303557819661c2c0788981d634527708decbe64736f6c634300081c0033",
  "linkReferences": {},
  "deployedLinkReferences": {}
}