{
  "_format": "hh-sol-artifact-1",
  "contractName": "QswapProxy",
  "sourceName": "contracts/swap/qswapProxy.sol",
  "abi": [
    {
      "inputs": [],
      "stateMutability": "nonpayable",
      "type": "constructor"
    },
    {
      "anonymous": false,
      "inputs": [
        {
          "indexed": true,
          "internalType": "address",
          "name": "tokenX",
          "type": "address"
        },
        {
          "indexed": true,
          "internalType": "address",
          "name": "tokenY",
          "type": "address"
        },
        {
          "indexed": false,
          "internalType": "address",
          "name": "pair",
          "type": "address"
        }
      ],
      "name": "PairCreated",
      "type": "event"
    },
    {
      "inputs": [],
      "name": "_tokenBalanceUpdaterContract",
      "outputs": [
        {
          "internalType": "contract TokenBalanceUpdater",
          "name": "",
          "type": "address"
        }
      ],
      "stateMutability": "view",
      "type": "function"
    },
    {
      "inputs": [
        {
          "internalType": "address",
          "name": "tokenX",
          "type": "address"
        },
        {
          "internalType": "address",
          "name": "tokenY",
          "type": "address"
        },
        {
          "internalType": "uint256",
          "name": "amountA",
          "type": "uint256"
        }
      ],
      "name": "addLiquidity",
      "outputs": [
        {
          "internalType": "bool",
          "name": "isSuccess",
          "type": "bool"
        }
      ],
      "stateMutability": "nonpayable",
      "type": "function"
    },
    {
      "inputs": [
        {
          "internalType": "address",
          "name": "tokenX",
          "type": "address"
        },
        {
          "internalType": "uint256",
          "name": "amountTokenX",
          "type": "uint256"
        },
        {
          "internalType": "address",
          "name": "tokenY",
          "type": "address"
        },
        {
          "internalType": "uint256",
          "name": "amountTokenY",
          "type": "uint256"
        },
        {
          "internalType": "uint256",
          "name": "fee",
          "type": "uint256"
        }
      ],
      "name": "createPair",
      "outputs": [
        {
          "internalType": "address",
          "name": "pair",
          "type": "address"
        }
      ],
      "stateMutability": "nonpayable",
      "type": "function"
    },
    {
      "inputs": [
        {
          "internalType": "address",
          "name": "",
          "type": "address"
        }
      ],
      "name": "getLTPair",
      "outputs": [
        {
          "internalType": "address",
          "name": "",
          "type": "address"
        }
      ],
      "stateMutability": "view",
      "type": "function"
    },
    {
      "inputs": [
        {
          "internalType": "address",
          "name": "",
          "type": "address"
        },
        {
          "internalType": "address",
          "name": "",
          "type": "address"
        }
      ],
      "name": "getPair",
      "outputs": [
        {
          "internalType": "address",
          "name": "",
          "type": "address"
        }
      ],
      "stateMutability": "view",
      "type": "function"
    },
    {
      "inputs": [
        {
          "internalType": "address",
          "name": "liquidityTokenAddress",
          "type": "address"
        },
        {
          "internalType": "uint256",
          "name": "amount",
          "type": "uint256"
        }
      ],
      "name": "removeLiquidity",
      "outputs": [
        {
          "internalType": "bool",
          "name": "isSuccess",
          "type": "bool"
        }
      ],
      "stateMutability": "nonpayable",
      "type": "function"
    },
    {
      "inputs": [
        {
          "internalType": "address",
          "name": "tokenX",
          "type": "address"
        },
        {
          "internalType": "address",
          "name": "tokenY",
          "type": "address"
        },
        {
          "internalType": "uint256",
          "name": "amount",
          "type": "uint256"
        }
      ],
      "name": "swap",
      "outputs": [
        {
          "internalType": "bool",
          "name": "isSuccess",
          "type": "bool"
        }
      ],
      "stateMutability": "nonpayable",
      "type": "function"
    }
  ],
  "bytecode": "0x6080604052348015600f57600080fd5b50604051601a906079565b604051809103906000f0801580156035573d6000803e3d6000fd5b506000806101000a81548173ffffffffffffffffffffffffffffffffffffffff021916908373ffffffffffffffffffffffffffffffffffffffff1602179055506086565b61051f806158f983390190565b615864806100956000396000f3fe608060405234801561001057600080fd5b506004361061007d5760003560e01c8063c515bfa91161005b578063c515bfa914610100578063df791e5014610130578063e4a7672614610160578063e6a43905146101905761007d565b806314b538ca14610082578063a201ccf6146100a0578063a3625b8f146100d0575b600080fd5b61008a6101c0565b6040516100979190610e52565b60405180910390f35b6100ba60048036038101906100b59190610ef5565b6101e4565b6040516100c79190610f50565b60405180910390f35b6100ea60048036038101906100e59190610f6b565b6102bf565b6040516100f79190610fa7565b60405180910390f35b61011a60048036038101906101159190610fc2565b6102f2565b6040516101279190610fa7565b60405180910390f35b61014a6004803603810190610145919061103d565b610878565b6040516101579190610f50565b60405180910390f35b61017a6004803603810190610175919061103d565b61097e565b6040516101879190610f50565b60405180910390f35b6101aa60048036038101906101a59190611090565b610a80565b6040516101b79190610fa7565b60405180910390f35b60008054906101000a900473ffffffffffffffffffffffffffffffffffffffff1681565b600080600160008573ffffffffffffffffffffffffffffffffffffffff1673ffffffffffffffffffffffffffffffffffffffff16815260200190815260200160002060009054906101000a900473ffffffffffffffffffffffffffffffffffffffff1690508073ffffffffffffffffffffffffffffffffffffffff16639c8f9f23846040518263ffffffff1660e01b815260040161028291906110df565b600060405180830381600087803b15801561029c57600080fd5b505af11580156102b0573d6000803e3d6000fd5b50505050600191505092915050565b60016020528060005260406000206000915054906101000a900473ffffffffffffffffffffffffffffffffffffffff1681565b60008373ffffffffffffffffffffffffffffffffffffffff168673ffffffffffffffffffffffffffffffffffffffff1603610362576040517f08c379a000000000000000000000000000000000000000000000000000000000815260040161035990611157565b60405180910390fd5b600073ffffffffffffffffffffffffffffffffffffffff16600260008873ffffffffffffffffffffffffffffffffffffffff1673ffffffffffffffffffffffffffffffffffffffff16815260200190815260200160002060008673ffffffffffffffffffffffffffffffffffffffff1673ffffffffffffffffffffffffffffffffffffffff16815260200190815260200160002060009054906101000a900473ffffffffffffffffffffffffffffffffffffffff1673ffffffffffffffffffffffffffffffffffffffff161461046d576040517f08c379a0000000000000000000000000000000000000000000000000000000008152600401610464906111c3565b60405180910390fd5b6000808773ffffffffffffffffffffffffffffffffffffffff166306fdde036040518163ffffffff1660e01b8152600401600060405180830381865afa1580156104bb573d6000803e3d6000fd5b505050506040513d6000823e3d601f19601f820116820180604052508101906104e49190611344565b8673ffffffffffffffffffffffffffffffffffffffff166306fdde036040518163ffffffff1660e01b8152600401600060405180830381865afa15801561052f573d6000803e3d6000fd5b505050506040513d6000823e3d601f19601f820116820180604052508101906105589190611344565b6040516020016105699291906113d4565b60405160208183030381529060405260018060405161058790610db9565b61059494939291906114b8565b604051809103906000f0801580156105b0573d6000803e3d6000fd5b509050868686868660008054906101000a900473ffffffffffffffffffffffffffffffffffffffff16866040516105e690610dc6565b6105f69796959493929190611517565b604051809103906000f080158015610612573d6000803e3d6000fd5b50915081600260008973ffffffffffffffffffffffffffffffffffffffff1673ffffffffffffffffffffffffffffffffffffffff16815260200190815260200160002060008773ffffffffffffffffffffffffffffffffffffffff1673ffffffffffffffffffffffffffffffffffffffff16815260200190815260200160002060006101000a81548173ffffffffffffffffffffffffffffffffffffffff021916908373ffffffffffffffffffffffffffffffffffffffff16021790555081600260008773ffffffffffffffffffffffffffffffffffffffff1673ffffffffffffffffffffffffffffffffffffffff16815260200190815260200160002060008973ffffffffffffffffffffffffffffffffffffffff1673ffffffffffffffffffffffffffffffffffffffff16815260200190815260200160002060006101000a81548173ffffffffffffffffffffffffffffffffffffffff021916908373ffffffffffffffffffffffffffffffffffffffff16021790555081600160008373ffffffffffffffffffffffffffffffffffffffff1673ffffffffffffffffffffffffffffffffffffffff16815260200190815260200160002060006101000a81548173ffffffffffffffffffffffffffffffffffffffff021916908373ffffffffffffffffffffffffffffffffffffffff1602179055508473ffffffffffffffffffffffffffffffffffffffff168773ffffffffffffffffffffffffffffffffffffffff167fa92a2b95c8d8436f6ac4c673c61487364f877efb9534d4296fad8ef904546c94846040516108669190610fa7565b60405180910390a35095945050505050565b60008060006108878686610ac2565b91509150600073ffffffffffffffffffffffffffffffffffffffff168173ffffffffffffffffffffffffffffffffffffffff16036108fa576040517f08c379a00000000000000000000000000000000000000000000000000000000081526004016108f1906115d2565b60405180910390fd5b60008190508073ffffffffffffffffffffffffffffffffffffffff1663e650cd8f888786336040518563ffffffff1660e01b815260040161093e94939291906115f2565b600060405180830381600087803b15801561095857600080fd5b505af115801561096c573d6000803e3d6000fd5b50505050600193505050509392505050565b600080600061098d8686610ac2565b91509150600073ffffffffffffffffffffffffffffffffffffffff168173ffffffffffffffffffffffffffffffffffffffff1603610a00576040517f08c379a00000000000000000000000000000000000000000000000000000000081526004016109f7906115d2565b60405180910390fd5b60008190508073ffffffffffffffffffffffffffffffffffffffff16638a3aacb386856040518363ffffffff1660e01b8152600401610a40929190611637565b600060405180830381600087803b158015610a5a57600080fd5b505af1158015610a6e573d6000803e3d6000fd5b50505050600193505050509392505050565b60026020528160005260406000206020528060005260406000206000915091509054906101000a900473ffffffffffffffffffffffffffffffffffffffff1681565b600080600073ffffffffffffffffffffffffffffffffffffffff16600260008673ffffffffffffffffffffffffffffffffffffffff1673ffffffffffffffffffffffffffffffffffffffff16815260200190815260200160002060008573ffffffffffffffffffffffffffffffffffffffff1673ffffffffffffffffffffffffffffffffffffffff16815260200190815260200160002060009054906101000a900473ffffffffffffffffffffffffffffffffffffffff1673ffffffffffffffffffffffffffffffffffffffff1614610c3d57600260008573ffffffffffffffffffffffffffffffffffffffff1673ffffffffffffffffffffffffffffffffffffffff16815260200190815260200160002060008473ffffffffffffffffffffffffffffffffffffffff1673ffffffffffffffffffffffffffffffffffffffff16815260200190815260200160002060009054906101000a900473ffffffffffffffffffffffffffffffffffffffff16905060009150610db2565b600073ffffffffffffffffffffffffffffffffffffffff16600260008573ffffffffffffffffffffffffffffffffffffffff1673ffffffffffffffffffffffffffffffffffffffff16815260200190815260200160002060008673ffffffffffffffffffffffffffffffffffffffff1673ffffffffffffffffffffffffffffffffffffffff16815260200190815260200160002060009054906101000a900473ffffffffffffffffffffffffffffffffffffffff1673ffffffffffffffffffffffffffffffffffffffff1614610db157600260008473ffffffffffffffffffffffffffffffffffffffff1673ffffffffffffffffffffffffffffffffffffffff16815260200190815260200160002060008573ffffffffffffffffffffffffffffffffffffffff1673ffffffffffffffffffffffffffffffffffffffff16815260200190815260200160002060009054906101000a900473ffffffffffffffffffffffffffffffffffffffff169050600191505b5b9250929050565b611e988061166183390190565b612336806134f983390190565b600073ffffffffffffffffffffffffffffffffffffffff82169050919050565b6000819050919050565b6000610e18610e13610e0e84610dd3565b610df3565b610dd3565b9050919050565b6000610e2a82610dfd565b9050919050565b6000610e3c82610e1f565b9050919050565b610e4c81610e31565b82525050565b6000602082019050610e676000830184610e43565b92915050565b6000604051905090565b600080fd5b600080fd5b6000610e8c82610dd3565b9050919050565b610e9c81610e81565b8114610ea757600080fd5b50565b600081359050610eb981610e93565b92915050565b6000819050919050565b610ed281610ebf565b8114610edd57600080fd5b50565b600081359050610eef81610ec9565b92915050565b60008060408385031215610f0c57610f0b610e77565b5b6000610f1a85828601610eaa565b9250506020610f2b85828601610ee0565b9150509250929050565b60008115159050919050565b610f4a81610f35565b82525050565b6000602082019050610f656000830184610f41565b92915050565b600060208284031215610f8157610f80610e77565b5b6000610f8f84828501610eaa565b91505092915050565b610fa181610e81565b82525050565b6000602082019050610fbc6000830184610f98565b92915050565b600080600080600060a08688031215610fde57610fdd610e77565b5b6000610fec88828901610eaa565b9550506020610ffd88828901610ee0565b945050604061100e88828901610eaa565b935050606061101f88828901610ee0565b925050608061103088828901610ee0565b9150509295509295909350565b60008060006060848603121561105657611055610e77565b5b600061106486828701610eaa565b935050602061107586828701610eaa565b925050604061108686828701610ee0565b9150509250925092565b600080604083850312156110a7576110a6610e77565b5b60006110b585828601610eaa565b92505060206110c685828601610eaa565b9150509250929050565b6110d981610ebf565b82525050565b60006020820190506110f460008301846110d0565b92915050565b600082825260208201905092915050565b7f4430000000000000000000000000000000000000000000000000000000000000600082015250565b60006111416002836110fa565b915061114c8261110b565b602082019050919050565b6000602082019050818103600083015261117081611134565b9050919050565b7f4431000000000000000000000000000000000000000000000000000000000000600082015250565b60006111ad6002836110fa565b91506111b882611177565b602082019050919050565b600060208201905081810360008301526111dc816111a0565b9050919050565b600080fd5b600080fd5b6000601f19601f8301169050919050565b7f4e487b7100000000000000000000000000000000000000000000000000000000600052604160045260246000fd5b611236826111ed565b810181811067ffffffffffffffff82111715611255576112546111fe565b5b80604052505050565b6000611268610e6d565b9050611274828261122d565b919050565b600067ffffffffffffffff821115611294576112936111fe565b5b61129d826111ed565b9050602081019050919050565b60005b838110156112c85780820151818401526020810190506112ad565b60008484015250505050565b60006112e76112e284611279565b61125e565b905082815260208101848484011115611303576113026111e8565b5b61130e8482856112aa565b509392505050565b600082601f83011261132b5761132a6111e3565b5b815161133b8482602086016112d4565b91505092915050565b60006020828403121561135a57611359610e77565b5b600082015167ffffffffffffffff81111561137857611377610e7c565b5b61138484828501611316565b91505092915050565b600081519050919050565b600081905092915050565b60006113ae8261138d565b6113b88185611398565b93506113c88185602086016112aa565b80840191505092915050565b60006113e082856113a3565b91506113ec82846113a3565b91508190509392505050565b6000819050919050565b600061141d611418611413846113f8565b610df3565b610ebf565b9050919050565b61142d81611402565b82525050565b600061143e8261138d565b61144881856110fa565b93506114588185602086016112aa565b611461816111ed565b840191505092915050565b7f51534c5400000000000000000000000000000000000000000000000000000000600082015250565b60006114a26004836110fa565b91506114ad8261146c565b602082019050919050565b600060a0820190506114cd6000830187611424565b81810360208301526114df8186611433565b905081810360408301526114f281611495565b90506115016060830185610f41565b61150e6080830184610f41565b95945050505050565b600060e08201905061152c600083018a610f98565b61153960208301896110d0565b6115466040830188610f98565b61155360608301876110d0565b61156060808301866110d0565b61156d60a0830185610f98565b61157a60c0830184610f98565b98975050505050505050565b7f4432000000000000000000000000000000000000000000000000000000000000600082015250565b60006115bc6002836110fa565b91506115c782611586565b602082019050919050565b600060208201905081810360008301526115eb816115af565b9050919050565b60006080820190506116076000830187610f98565b61161460208301866110d0565b6116216040830185610f41565b61162e6060830184610f98565b95945050505050565b600060408201905061164c60008301856110d0565b6116596020830184610f41565b939250505056fe60806040526012600660006101000a81548160ff021916908360ff16021790555034801561002c57600080fd5b50604051611e98380380611e98833981810160405281019061004e91906103db565b81600260006101000a81548160ff02191690831515021790555080600260016101000a81548160ff021916908315150217905550836000908161009191906106a5565b5082600190816100a191906106a5565b50600660009054906101000a900460ff1660ff16600a6100c191906108d9565b856100cc9190610924565b6003819055506100e13361013160201b60201c565b600354600760003373ffffffffffffffffffffffffffffffffffffffff1673ffffffffffffffffffffffffffffffffffffffff16815260200190815260200160002081905550505050505061099a565b600560008273ffffffffffffffffffffffffffffffffffffffff1673ffffffffffffffffffffffffffffffffffffffff16815260200190815260200160002060009054906101000a900460ff166101f5576001600560008373ffffffffffffffffffffffffffffffffffffffff1673ffffffffffffffffffffffffffffffffffffffff16815260200190815260200160002060006101000a81548160ff0219169083151502179055506001600460008282546101ed9190610966565b925050819055505b50565b6000604051905090565b600080fd5b600080fd5b6000819050919050565b61021f8161020c565b811461022a57600080fd5b50565b60008151905061023c81610216565b92915050565b600080fd5b600080fd5b6000601f19601f8301169050919050565b7f4e487b7100000000000000000000000000000000000000000000000000000000600052604160045260246000fd5b6102958261024c565b810181811067ffffffffffffffff821117156102b4576102b361025d565b5b80604052505050565b60006102c76101f8565b90506102d3828261028c565b919050565b600067ffffffffffffffff8211156102f3576102f261025d565b5b6102fc8261024c565b9050602081019050919050565b60005b8381101561032757808201518184015260208101905061030c565b60008484015250505050565b6000610346610341846102d8565b6102bd565b90508281526020810184848401111561036257610361610247565b5b61036d848285610309565b509392505050565b600082601f83011261038a57610389610242565b5b815161039a848260208601610333565b91505092915050565b60008115159050919050565b6103b8816103a3565b81146103c357600080fd5b50565b6000815190506103d5816103af565b92915050565b600080600080600060a086880312156103f7576103f6610202565b5b60006104058882890161022d565b955050602086015167ffffffffffffffff81111561042657610425610207565b5b61043288828901610375565b945050604086015167ffffffffffffffff81111561045357610452610207565b5b61045f88828901610375565b9350506060610470888289016103c6565b9250506080610481888289016103c6565b9150509295509295909350565b600081519050919050565b7f4e487b7100000000000000000000000000000000000000000000000000000000600052602260045260246000fd5b600060028204905060018216806104e057607f821691505b6020821081036104f3576104f2610499565b5b50919050565b60008190508160005260206000209050919050565b60006020601f8301049050919050565b600082821b905092915050565b60006008830261055b7fffffffffffffffffffffffffffffffffffffffffffffffffffffffffffffffff8261051e565b610565868361051e565b95508019841693508086168417925050509392505050565b6000819050919050565b60006105a261059d6105988461020c565b61057d565b61020c565b9050919050565b6000819050919050565b6105bc83610587565b6105d06105c8826105a9565b84845461052b565b825550505050565b600090565b6105e56105d8565b6105f08184846105b3565b505050565b5b81811015610614576106096000826105dd565b6001810190506105f6565b5050565b601f8211156106595761062a816104f9565b6106338461050e565b81016020851015610642578190505b61065661064e8561050e565b8301826105f5565b50505b505050565b600082821c905092915050565b600061067c6000198460080261065e565b1980831691505092915050565b6000610695838361066b565b9150826002028217905092915050565b6106ae8261048e565b67ffffffffffffffff8111156106c7576106c661025d565b5b6106d182546104c8565b6106dc828285610618565b600060209050601f83116001811461070f57600084156106fd578287015190505b6107078582610689565b86555061076f565b601f19841661071d866104f9565b60005b8281101561074557848901518255600182019150602085019450602081019050610720565b86831015610762578489015161075e601f89168261066b565b8355505b6001600288020188555050505b505050505050565b7f4e487b7100000000000000000000000000000000000000000000000000000000600052601160045260246000fd5b60008160011c9050919050565b6000808291508390505b60018511156107fd578086048111156107d9576107d8610777565b5b60018516156107e85780820291505b80810290506107f6856107a6565b94506107bd565b94509492505050565b60008261081657600190506108d2565b8161082457600090506108d2565b816001811461083a576002811461084457610873565b60019150506108d2565b60ff84111561085657610855610777565b5b8360020a91508482111561086d5761086c610777565b5b506108d2565b5060208310610133831016604e8410600b84101617156108a85782820a9050838111156108a3576108a2610777565b5b6108d2565b6108b584848460016107b3565b925090508184048111156108cc576108cb610777565b5b81810290505b9392505050565b60006108e48261020c565b91506108ef8361020c565b925061091c7fffffffffffffffffffffffffffffffffffffffffffffffffffffffffffffffff8484610806565b905092915050565b600061092f8261020c565b915061093a8361020c565b92508282026109488161020c565b9150828204841483151761095f5761095e610777565b5b5092915050565b60006109718261020c565b915061097c8361020c565b925082820190508082111561099457610993610777565b5b92915050565b6114ef806109a96000396000f3fe608060405234801561001057600080fd5b50600436106100ea5760003560e01c806342966c681161008c578063883356d911610066578063883356d91461027557806395d89b4114610293578063a9059cbb146102b1578063dd62ed3e146102e1576100ea565b806342966c68146101f757806346b45af71461022757806370a0823114610245576100ea565b80631aab9a9f116100c85780631aab9a9f1461015b57806323b872dd14610179578063313ce567146101a957806340c10f19146101c7576100ea565b806306fdde03146100ef578063095ea7b31461010d57806318160ddd1461013d575b600080fd5b6100f7610311565b6040516101049190610ebb565b60405180910390f35b61012760048036038101906101229190610f76565b61039f565b6040516101349190610fd1565b60405180910390f35b610145610491565b6040516101529190610ffb565b60405180910390f35b610163610497565b6040516101709190610ffb565b60405180910390f35b610193600480360381019061018e9190611016565b61049d565b6040516101a09190610fd1565b60405180910390f35b6101b1610798565b6040516101be9190611085565b60405180910390f35b6101e160048036038101906101dc9190610f76565b6107ab565b6040516101ee9190610fd1565b60405180910390f35b610211600480360381019061020c91906110a0565b610932565b60405161021e9190610fd1565b60405180910390f35b61022f610acb565b60405161023c9190610fd1565b60405180910390f35b61025f600480360381019061025a91906110cd565b610ade565b60405161026c9190610ffb565b60405180910390f35b61027d610af6565b60405161028a9190610fd1565b60405180910390f35b61029b610b09565b6040516102a89190610ebb565b60405180910390f35b6102cb60048036038101906102c69190610f76565b610b97565b6040516102d89190610fd1565b60405180910390f35b6102fb60048036038101906102f691906110fa565b610d3f565b6040516103089190610ffb565b60405180910390f35b6000805461031e90611169565b80601f016020809104026020016040519081016040528092919081815260200182805461034a90611169565b80156103975780601f1061036c57610100808354040283529160200191610397565b820191906000526020600020905b81548152906001019060200180831161037a57829003601f168201915b505050505081565b600081600860003373ffffffffffffffffffffffffffffffffffffffff1673ffffffffffffffffffffffffffffffffffffffff16815260200190815260200160002060008573ffffffffffffffffffffffffffffffffffffffff1673ffffffffffffffffffffffffffffffffffffffff168152602001908152602001600020819055508273ffffffffffffffffffffffffffffffffffffffff163373ffffffffffffffffffffffffffffffffffffffff167f8c5be1e5ebec7d5bd14f71427d1e84f3dd0314c0f7b2291e5b200ac8c7c3b9258460405161047f9190610ffb565b60405180910390a36001905092915050565b60035481565b60045481565b600081600760008673ffffffffffffffffffffffffffffffffffffffff1673ffffffffffffffffffffffffffffffffffffffff168152602001908152602001600020541015610521576040517f08c379a0000000000000000000000000000000000000000000000000000000008152600401610518906111e6565b60405180910390fd5b81600860008673ffffffffffffffffffffffffffffffffffffffff1673ffffffffffffffffffffffffffffffffffffffff16815260200190815260200160002060003373ffffffffffffffffffffffffffffffffffffffff1673ffffffffffffffffffffffffffffffffffffffff1681526020019081526020016000205410156105e0576040517f08c379a00000000000000000000000000000000000000000000000000000000081526004016105d790611252565b60405180910390fd5b6105e983610d64565b81600760008673ffffffffffffffffffffffffffffffffffffffff1673ffffffffffffffffffffffffffffffffffffffff168152602001908152602001600020600082825461063891906112a1565b9250508190555081600760008573ffffffffffffffffffffffffffffffffffffffff1673ffffffffffffffffffffffffffffffffffffffff168152602001908152602001600020600082825461068e91906112d5565b9250508190555081600860008673ffffffffffffffffffffffffffffffffffffffff1673ffffffffffffffffffffffffffffffffffffffff16815260200190815260200160002060003373ffffffffffffffffffffffffffffffffffffffff1673ffffffffffffffffffffffffffffffffffffffff168152602001908152602001600020600082825461072191906112a1565b925050819055508273ffffffffffffffffffffffffffffffffffffffff168473ffffffffffffffffffffffffffffffffffffffff167fddf252ad1be2c89b69c2b068fc378daa952ba7f163c4a11628f55a4df523b3ef846040516107859190610ffb565b60405180910390a3600190509392505050565b600660009054906101000a900460ff1681565b6000600260009054906101000a900460ff166107fc576040517f08c379a00000000000000000000000000000000000000000000000000000000081526004016107f390611355565b60405180910390fd5b600073ffffffffffffffffffffffffffffffffffffffff168373ffffffffffffffffffffffffffffffffffffffff160361086b576040517f08c379a0000000000000000000000000000000000000000000000000000000008152600401610862906113c1565b60405180910390fd5b816003600082825461087d91906112d5565b9250508190555081600760008573ffffffffffffffffffffffffffffffffffffffff1673ffffffffffffffffffffffffffffffffffffffff16815260200190815260200160002060008282546108d391906112d5565b925050819055508273ffffffffffffffffffffffffffffffffffffffff167f0f6798a560793a54c3bcfe86a93cde1e73087d944c0ea20544137d4121396885836040516109209190610ffb565b60405180910390a26001905092915050565b6000600260019054906101000a900460ff16610983576040517f08c379a000000000000000000000000000000000000000000000000000000000815260040161097a9061142d565b60405180910390fd5b81600760003373ffffffffffffffffffffffffffffffffffffffff1673ffffffffffffffffffffffffffffffffffffffff168152602001908152602001600020541015610a05576040517f08c379a00000000000000000000000000000000000000000000000000000000081526004016109fc90611499565b60405180910390fd5b8160036000828254610a1791906112a1565b9250508190555081600760003373ffffffffffffffffffffffffffffffffffffffff1673ffffffffffffffffffffffffffffffffffffffff1681526020019081526020016000206000828254610a6d91906112a1565b925050819055503373ffffffffffffffffffffffffffffffffffffffff167fcc16f5dbb4873280815c1ee09dbd06736cffcc184412cf7a71a0fdb75d397ca583604051610aba9190610ffb565b60405180910390a260019050919050565b600260009054906101000a900460ff1681565b60076020528060005260406000206000915090505481565b600260019054906101000a900460ff1681565b60018054610b1690611169565b80601f0160208091040260200160405190810160405280929190818152602001828054610b4290611169565b8015610b8f5780601f10610b6457610100808354040283529160200191610b8f565b820191906000526020600020905b815481529060010190602001808311610b7257829003601f168201915b505050505081565b600081600760003373ffffffffffffffffffffffffffffffffffffffff1673ffffffffffffffffffffffffffffffffffffffff168152602001908152602001600020541015610c1b576040517f08c379a0000000000000000000000000000000000000000000000000000000008152600401610c12906111e6565b60405180910390fd5b610c2483610d64565b81600760003373ffffffffffffffffffffffffffffffffffffffff1673ffffffffffffffffffffffffffffffffffffffff1681526020019081526020016000206000828254610c7391906112a1565b9250508190555081600760008573ffffffffffffffffffffffffffffffffffffffff1673ffffffffffffffffffffffffffffffffffffffff1681526020019081526020016000206000828254610cc991906112d5565b925050819055508273ffffffffffffffffffffffffffffffffffffffff163373ffffffffffffffffffffffffffffffffffffffff167fddf252ad1be2c89b69c2b068fc378daa952ba7f163c4a11628f55a4df523b3ef84604051610d2d9190610ffb565b60405180910390a36001905092915050565b6008602052816000526040600020602052806000526040600020600091509150505481565b600560008273ffffffffffffffffffffffffffffffffffffffff1673ffffffffffffffffffffffffffffffffffffffff16815260200190815260200160002060009054906101000a900460ff16610e28576001600560008373ffffffffffffffffffffffffffffffffffffffff1673ffffffffffffffffffffffffffffffffffffffff16815260200190815260200160002060006101000a81548160ff021916908315150217905550600160046000828254610e2091906112d5565b925050819055505b50565b600081519050919050565b600082825260208201905092915050565b60005b83811015610e65578082015181840152602081019050610e4a565b60008484015250505050565b6000601f19601f8301169050919050565b6000610e8d82610e2b565b610e978185610e36565b9350610ea7818560208601610e47565b610eb081610e71565b840191505092915050565b60006020820190508181036000830152610ed58184610e82565b905092915050565b600080fd5b600073ffffffffffffffffffffffffffffffffffffffff82169050919050565b6000610f0d82610ee2565b9050919050565b610f1d81610f02565b8114610f2857600080fd5b50565b600081359050610f3a81610f14565b92915050565b6000819050919050565b610f5381610f40565b8114610f5e57600080fd5b50565b600081359050610f7081610f4a565b92915050565b60008060408385031215610f8d57610f8c610edd565b5b6000610f9b85828601610f2b565b9250506020610fac85828601610f61565b9150509250929050565b60008115159050919050565b610fcb81610fb6565b82525050565b6000602082019050610fe66000830184610fc2565b92915050565b610ff581610f40565b82525050565b60006020820190506110106000830184610fec565b92915050565b60008060006060848603121561102f5761102e610edd565b5b600061103d86828701610f2b565b935050602061104e86828701610f2b565b925050604061105f86828701610f61565b9150509250925092565b600060ff82169050919050565b61107f81611069565b82525050565b600060208201905061109a6000830184611076565b92915050565b6000602082840312156110b6576110b5610edd565b5b60006110c484828501610f61565b91505092915050565b6000602082840312156110e3576110e2610edd565b5b60006110f184828501610f2b565b91505092915050565b6000806040838503121561111157611110610edd565b5b600061111f85828601610f2b565b925050602061113085828601610f2b565b9150509250929050565b7f4e487b7100000000000000000000000000000000000000000000000000000000600052602260045260246000fd5b6000600282049050600182168061118157607f821691505b6020821081036111945761119361113a565b5b50919050565b7f496e73756666696369656e742062616c616e6365000000000000000000000000600082015250565b60006111d0601483610e36565b91506111db8261119a565b602082019050919050565b600060208201905081810360008301526111ff816111c3565b9050919050565b7f416c6c6f77616e63652065786365656465640000000000000000000000000000600082015250565b600061123c601283610e36565b915061124782611206565b602082019050919050565b6000602082019050818103600083015261126b8161122f565b9050919050565b7f4e487b7100000000000000000000000000000000000000000000000000000000600052601160045260246000fd5b60006112ac82610f40565b91506112b783610f40565b92508282039050818111156112cf576112ce611272565b5b92915050565b60006112e082610f40565b91506112eb83610f40565b925082820190508082111561130357611302611272565b5b92915050565b7f4d696e74696e67206973206e6f7420616c6c6f77656400000000000000000000600082015250565b600061133f601683610e36565b915061134a82611309565b602082019050919050565b6000602082019050818103600083015261136e81611332565b9050919050565b7f43616e6e6f74206d696e7420746f20746865207a65726f206164647265737300600082015250565b60006113ab601f83610e36565b91506113b682611375565b602082019050919050565b600060208201905081810360008301526113da8161139e565b9050919050565b7f4275726e696e67206973206e6f7420616c6c6f77656400000000000000000000600082015250565b6000611417601683610e36565b9150611422826113e1565b602082019050919050565b600060208201905081810360008301526114468161140a565b9050919050565b7f496e73756666696369656e742062616c616e636520746f206275726e00000000600082015250565b6000611483601c83610e36565b915061148e8261144d565b602082019050919050565b600060208201905081810360008301526114b281611476565b905091905056fea264697066735822122043df1d2746d7ed0efc6c8e4990f74899376367ed60268843833892f140e6ac3364736f6c634300081c0033608060405261271060045534801561001657600080fd5b5060405161233638038061233683398181016040528101906100389190610531565b866000806101000a81548173ffffffffffffffffffffffffffffffffffffffff021916908373ffffffffffffffffffffffffffffffffffffffff16021790555084600160006101000a81548173ffffffffffffffffffffffffffffffffffffffff021916908373ffffffffffffffffffffffffffffffffffffffff16021790555085600581905550836006819055508260038190555080600260006101000a81548173ffffffffffffffffffffffffffffffffffffffff021916908373ffffffffffffffffffffffffffffffffffffffff160217905550600260009054906101000a900473ffffffffffffffffffffffffffffffffffffffff1673ffffffffffffffffffffffffffffffffffffffff16600160009054906101000a900473ffffffffffffffffffffffffffffffffffffffff1673ffffffffffffffffffffffffffffffffffffffff1660008054906101000a900473ffffffffffffffffffffffffffffffffffffffff1673ffffffffffffffffffffffffffffffffffffffff167fd5b15d880a99babcad7baedddbe6d03dcc853b8484aa58ec19d1db08eeebc29660405160405180910390a481600860006101000a81548173ffffffffffffffffffffffffffffffffffffffff021916908373ffffffffffffffffffffffffffffffffffffffff160217905550600860009054906101000a900473ffffffffffffffffffffffffffffffffffffffff1673ffffffffffffffffffffffffffffffffffffffff166343aaa6908832308a6040518563ffffffff1660e01b815260040161028694939291906105f1565b600060405180830381600087803b1580156102a057600080fd5b505af11580156102b4573d6000803e3d6000fd5b50505050600860009054906101000a900473ffffffffffffffffffffffffffffffffffffffff1673ffffffffffffffffffffffffffffffffffffffff166343aaa690863230886040518563ffffffff1660e01b815260040161031994939291906105f1565b600060405180830381600087803b15801561033357600080fd5b505af1158015610347573d6000803e3d6000fd5b505050506000610367858861035c9190610665565b61041e60201b60201c565b905080600781905550600260009054906101000a900473ffffffffffffffffffffffffffffffffffffffff1673ffffffffffffffffffffffffffffffffffffffff166340c10f1932836040518363ffffffff1660e01b81526004016103cd9291906106a7565b6020604051808303816000875af11580156103ec573d6000803e3d6000fd5b505050506040513d601f19601f820116820180604052508101906104109190610708565b5050505050505050506107c9565b60006003821115610485578190506000600160028461043d9190610764565b6104479190610795565b90505b8181101561047f5780915060028182856104649190610764565b61046e9190610795565b6104789190610764565b905061044a565b50610493565b6000821461049257600190505b5b919050565b600080fd5b600073ffffffffffffffffffffffffffffffffffffffff82169050919050565b60006104c88261049d565b9050919050565b6104d8816104bd565b81146104e357600080fd5b50565b6000815190506104f5816104cf565b92915050565b6000819050919050565b61050e816104fb565b811461051957600080fd5b50565b60008151905061052b81610505565b92915050565b600080600080600080600060e0888a0312156105505761054f610498565b5b600061055e8a828b016104e6565b975050602061056f8a828b0161051c565b96505060406105808a828b016104e6565b95505060606105918a828b0161051c565b94505060806105a28a828b0161051c565b93505060a06105b38a828b016104e6565b92505060c06105c48a828b016104e6565b91505092959891949750929550565b6105dc816104bd565b82525050565b6105eb816104fb565b82525050565b600060808201905061060660008301876105d3565b61061360208301866105d3565b61062060408301856105d3565b61062d60608301846105e2565b95945050505050565b7f4e487b7100000000000000000000000000000000000000000000000000000000600052601160045260246000fd5b6000610670826104fb565b915061067b836104fb565b9250828202610689816104fb565b915082820484148315176106a05761069f610636565b5b5092915050565b60006040820190506106bc60008301856105d3565b6106c960208301846105e2565b9392505050565b60008115159050919050565b6106e5816106d0565b81146106f057600080fd5b50565b600081519050610702816106dc565b92915050565b60006020828403121561071e5761071d610498565b5b600061072c848285016106f3565b91505092915050565b7f4e487b7100000000000000000000000000000000000000000000000000000000600052601260045260246000fd5b600061076f826104fb565b915061077a836104fb565b92508261078a57610789610735565b5b828204905092915050565b60006107a0826104fb565b91506107ab836104fb565b92508282019050808211156107c3576107c2610636565b5b92915050565b611b5e806107d86000396000f3fe608060405234801561001057600080fd5b50600436106100a95760003560e01c80639c8f9f23116100715780639c8f9f2314610143578063a001ecdd1461015f578063b7d19fc41461017d578063c71cca621461019b578063e650cd8f146101b9578063fa5e3b6d146101d5576100a9565b80630902f1ac146100ae57806316dc165b146100cd578063180b0d7e146100eb57806343cd8f7e146101095780638a3aacb314610127575b600080fd5b6100b66101f3565b6040516100c49291906112de565b60405180910390f35b6100d5610204565b6040516100e29190611386565b60405180910390f35b6100f3610228565b60405161010091906113a1565b60405180910390f35b61011161022e565b60405161011e9190611386565b60405180910390f35b610141600480360381019061013c9190611425565b610254565b005b61015d60048036038101906101589190611465565b610519565b005b610167610af7565b60405161017491906113a1565b60405180910390f35b610185610afd565b6040516101929190611386565b60405180910390f35b6101a3610b23565b6040516101b091906113a1565b60405180910390f35b6101d360048036038101906101ce91906114d0565b610b29565b005b6101dd610def565b6040516101ea91906113a1565b60405180910390f35b600080600554600654915091509091565b60008054906101000a900473ffffffffffffffffffffffffffffffffffffffff1681565b60045481565b600260009054906101000a900473ffffffffffffffffffffffffffffffffffffffff1681565b60008211610297576040517f08c379a000000000000000000000000000000000000000000000000000000000815260040161028e90611594565b60405180910390fd5b6000806000806102a685610df5565b93509350935093506000841180156102be5750600083115b6102fd576040517f08c379a00000000000000000000000000000000000000000000000000000000081526004016102f490611600565b60405180910390fd5b600083878661030c919061164f565b61031691906116c0565b90506000811161035b576040517f08c379a00000000000000000000000000000000000000000000000000000000081526004016103529061173d565b60405180910390fd5b61036783323084610eb2565b6103738232308a610eb2565b6000600260009054906101000a900473ffffffffffffffffffffffffffffffffffffffff1673ffffffffffffffffffffffffffffffffffffffff166318160ddd6040518163ffffffff1660e01b8152600401602060405180830381865afa1580156103e2573d6000803e3d6000fd5b505050506040513d601f19601f820116820180604052508101906104069190611772565b905061041432838a8a610f4b565b600081600260009054906101000a900473ffffffffffffffffffffffffffffffffffffffff1673ffffffffffffffffffffffffffffffffffffffff166318160ddd6040518163ffffffff1660e01b8152600401602060405180830381865afa158015610484573d6000803e3d6000fd5b505050506040513d601f19601f820116820180604052508101906104a89190611772565b6104b2919061179f565b90506104bc61107a565b3273ffffffffffffffffffffffffffffffffffffffff167fbeb3885786d637a474cbc287c0a44587231633a077f0bd30354d5a4b18996fce848b84604051610506939291906117d3565b60405180910390a2505050505050505050565b6000811161055c576040517f08c379a000000000000000000000000000000000000000000000000000000000815260040161055390611856565b60405180910390fd5b80600260009054906101000a900473ffffffffffffffffffffffffffffffffffffffff1673ffffffffffffffffffffffffffffffffffffffff166370a08231326040518263ffffffff1660e01b81526004016105b89190611885565b602060405180830381865afa1580156105d5573d6000803e3d6000fd5b505050506040513d601f19601f820116820180604052508101906105f99190611772565b101561063a576040517f08c379a0000000000000000000000000000000000000000000000000000000008152600401610631906118ec565b60405180910390fd5b60006005549050600060065490506000821180156106585750600081115b610697576040517f08c379a000000000000000000000000000000000000000000000000000000000815260040161068e90611600565b60405180910390fd5b600060075484846106a8919061164f565b6106b291906116c0565b9050600060075485846106c5919061164f565b6106cf91906116c0565b90506000821180156106e15750600081115b610720576040517f08c379a000000000000000000000000000000000000000000000000000000000815260040161071790611856565b60405180910390fd5b600260009054906101000a900473ffffffffffffffffffffffffffffffffffffffff1673ffffffffffffffffffffffffffffffffffffffff166323b872dd3230886040518463ffffffff1660e01b815260040161077f9392919061190c565b6020604051808303816000875af115801561079e573d6000803e3d6000fd5b505050506040513d601f19601f820116820180604052508101906107c29190611958565b50600260009054906101000a900473ffffffffffffffffffffffffffffffffffffffff1673ffffffffffffffffffffffffffffffffffffffff166342966c68866040518263ffffffff1660e01b815260040161081e91906113a1565b6020604051808303816000875af115801561083d573d6000803e3d6000fd5b505050506040513d601f19601f820116820180604052508101906108619190611958565b508460076000828254610874919061179f565b9250508190555060008054906101000a900473ffffffffffffffffffffffffffffffffffffffff1673ffffffffffffffffffffffffffffffffffffffff1663095ea7b3600860009054906101000a900473ffffffffffffffffffffffffffffffffffffffff16846040518363ffffffff1660e01b81526004016108f8929190611985565b6020604051808303816000875af1158015610917573d6000803e3d6000fd5b505050506040513d601f19601f8201168201806040525081019061093b9190611958565b50600160009054906101000a900473ffffffffffffffffffffffffffffffffffffffff1673ffffffffffffffffffffffffffffffffffffffff1663095ea7b3600860009054906101000a900473ffffffffffffffffffffffffffffffffffffffff16836040518363ffffffff1660e01b81526004016109bb929190611985565b6020604051808303816000875af11580156109da573d6000803e3d6000fd5b505050506040513d601f19601f820116820180604052508101906109fe9190611958565b50610a2b60008054906101000a900473ffffffffffffffffffffffffffffffffffffffff16303285610eb2565b610a59600160009054906101000a900473ffffffffffffffffffffffffffffffffffffffff16303284610eb2565b610a6161107a565b3373ffffffffffffffffffffffffffffffffffffffff167f59c3a0b60c6ab7deb62e1440c9e72441db6db7dfe514dba8cb18e60c0d896efa838388604051610aab939291906117d3565b60405180910390a27fcf2aa50876cdfbb541206f89af0ee78d44a2abf8d328e37fa4917f982149848a600554600654604051610ae89291906112de565b60405180910390a15050505050565b60035481565b600160009054906101000a900473ffffffffffffffffffffffffffffffffffffffff1681565b60055481565b60008311610b6c576040517f08c379a0000000000000000000000000000000000000000000000000000000008152600401610b6390611594565b60405180910390fd5b600073ffffffffffffffffffffffffffffffffffffffff168173ffffffffffffffffffffffffffffffffffffffff1603610bdb576040517f08c379a0000000000000000000000000000000000000000000000000000000008152600401610bd2906119fa565b60405180910390fd5b6000806000806000610bee88888b611206565b9450945094509450945060008511610c3b576040517f08c379a0000000000000000000000000000000000000000000000000000000008152600401610c3290611600565b60405180910390fd5b60008185610c499190611a1a565b86610c5491906116c0565b85610c5f919061179f565b905060008111610ca4576040517f08c379a0000000000000000000000000000000000000000000000000000000008152600401610c9b90611a9a565b60405180910390fd5b610cb084883085610eb2565b8273ffffffffffffffffffffffffffffffffffffffff1663095ea7b3600860009054906101000a900473ffffffffffffffffffffffffffffffffffffffff16836040518363ffffffff1660e01b8152600401610d0d929190611985565b6020604051808303816000875af1158015610d2c573d6000803e3d6000fd5b505050506040513d601f19601f82011682018060405250810190610d509190611958565b50610d5d83308984610eb2565b610d6561107a565b8273ffffffffffffffffffffffffffffffffffffffff168473ffffffffffffffffffffffffffffffffffffffff163373ffffffffffffffffffffffffffffffffffffffff167fcd3829a3813dc3cdd188fd3d01dcf3268c16be2fdd2dd21d0665418816e460628585604051610ddb9291906112de565b60405180910390a450505050505050505050565b60065481565b6000806000808415610e58576005549350600654925060008054906101000a900473ffffffffffffffffffffffffffffffffffffffff169150600160009054906101000a900473ffffffffffffffffffffffffffffffffffffffff169050610eab565b60065493506005549250600160009054906101000a900473ffffffffffffffffffffffffffffffffffffffff16915060008054906101000a900473ffffffffffffffffffffffffffffffffffffffff1690505b9193509193565b600860009054906101000a900473ffffffffffffffffffffffffffffffffffffffff1673ffffffffffffffffffffffffffffffffffffffff166343aaa690858585856040518563ffffffff1660e01b8152600401610f139493929190611aba565b600060405180830381600087803b158015610f2d57600080fd5b505af1158015610f41573d6000803e3d6000fd5b5050505050505050565b60008082610f625760055491506006549050610f6d565b600654915060055490505b60008260075487610f7e919061164f565b610f8891906116c0565b905060008260075487610f9b919061164f565b610fa591906116c0565b90506000610fb383836112ac565b90508060076000828254610fc79190611a1a565b92505081905550600260009054906101000a900473ffffffffffffffffffffffffffffffffffffffff1673ffffffffffffffffffffffffffffffffffffffff166340c10f198a836040518363ffffffff1660e01b815260040161102b929190611985565b6020604051808303816000875af115801561104a573d6000803e3d6000fd5b505050506040513d601f19601f8201168201806040525081019061106e9190611958565b50505050505050505050565b600860009054906101000a900473ffffffffffffffffffffffffffffffffffffffff1673ffffffffffffffffffffffffffffffffffffffff1663c489744b60008054906101000a900473ffffffffffffffffffffffffffffffffffffffff16306040518363ffffffff1660e01b81526004016110f7929190611aff565b602060405180830381865afa158015611114573d6000803e3d6000fd5b505050506040513d601f19601f820116820180604052508101906111389190611772565b600581905550600860009054906101000a900473ffffffffffffffffffffffffffffffffffffffff1673ffffffffffffffffffffffffffffffffffffffff1663c489744b600160009054906101000a900473ffffffffffffffffffffffffffffffffffffffff16306040518363ffffffff1660e01b81526004016111bd929190611aff565b602060405180830381865afa1580156111da573d6000803e3d6000fd5b505050506040513d601f19601f820116820180604052508101906111fe9190611772565b600681905550565b600080600080600060065460055461121e919061164f565b94506103e86103e589611231919061164f565b61123b91906116c0565b90508615611275576005549350859250600160009054906101000a900473ffffffffffffffffffffffffffffffffffffffff1691506112a1565b600654935060008054906101000a900473ffffffffffffffffffffffffffffffffffffffff1692508591505b939792965093509350565b60008183106112bb57816112bd565b825b905092915050565b6000819050919050565b6112d8816112c5565b82525050565b60006040820190506112f360008301856112cf565b61130060208301846112cf565b9392505050565b600073ffffffffffffffffffffffffffffffffffffffff82169050919050565b6000819050919050565b600061134c61134761134284611307565b611327565b611307565b9050919050565b600061135e82611331565b9050919050565b600061137082611353565b9050919050565b61138081611365565b82525050565b600060208201905061139b6000830184611377565b92915050565b60006020820190506113b660008301846112cf565b92915050565b600080fd5b6113ca816112c5565b81146113d557600080fd5b50565b6000813590506113e7816113c1565b92915050565b60008115159050919050565b611402816113ed565b811461140d57600080fd5b50565b60008135905061141f816113f9565b92915050565b6000806040838503121561143c5761143b6113bc565b5b600061144a858286016113d8565b925050602061145b85828601611410565b9150509250929050565b60006020828403121561147b5761147a6113bc565b5b6000611489848285016113d8565b91505092915050565b600061149d82611307565b9050919050565b6114ad81611492565b81146114b857600080fd5b50565b6000813590506114ca816114a4565b92915050565b600080600080608085870312156114ea576114e96113bc565b5b60006114f8878288016114bb565b9450506020611509878288016113d8565b935050604061151a87828801611410565b925050606061152b878288016114bb565b91505092959194509250565b600082825260208201905092915050565b7f4130000000000000000000000000000000000000000000000000000000000000600082015250565b600061157e600283611537565b915061158982611548565b602082019050919050565b600060208201905081810360008301526115ad81611571565b9050919050565b7f4230000000000000000000000000000000000000000000000000000000000000600082015250565b60006115ea600283611537565b91506115f5826115b4565b602082019050919050565b60006020820190508181036000830152611619816115dd565b9050919050565b7f4e487b7100000000000000000000000000000000000000000000000000000000600052601160045260246000fd5b600061165a826112c5565b9150611665836112c5565b9250828202611673816112c5565b9150828204841483151761168a57611689611620565b5b5092915050565b7f4e487b7100000000000000000000000000000000000000000000000000000000600052601260045260246000fd5b60006116cb826112c5565b91506116d6836112c5565b9250826116e6576116e5611691565b5b828204905092915050565b7f4232000000000000000000000000000000000000000000000000000000000000600082015250565b6000611727600283611537565b9150611732826116f1565b602082019050919050565b600060208201905081810360008301526117568161171a565b9050919050565b60008151905061176c816113c1565b92915050565b600060208284031215611788576117876113bc565b5b60006117968482850161175d565b91505092915050565b60006117aa826112c5565b91506117b5836112c5565b92508282039050818111156117cd576117cc611620565b5b92915050565b60006060820190506117e860008301866112cf565b6117f560208301856112cf565b61180260408301846112cf565b949350505050565b7f4330000000000000000000000000000000000000000000000000000000000000600082015250565b6000611840600283611537565b915061184b8261180a565b602082019050919050565b6000602082019050818103600083015261186f81611833565b9050919050565b61187f81611492565b82525050565b600060208201905061189a6000830184611876565b92915050565b7f4331000000000000000000000000000000000000000000000000000000000000600082015250565b60006118d6600283611537565b91506118e1826118a0565b602082019050919050565b60006020820190508181036000830152611905816118c9565b9050919050565b60006060820190506119216000830186611876565b61192e6020830185611876565b61193b60408301846112cf565b949350505050565b600081519050611952816113f9565b92915050565b60006020828403121561196e5761196d6113bc565b5b600061197c84828501611943565b91505092915050565b600060408201905061199a6000830185611876565b6119a760208301846112cf565b9392505050565b7f4131000000000000000000000000000000000000000000000000000000000000600082015250565b60006119e4600283611537565b91506119ef826119ae565b602082019050919050565b60006020820190508181036000830152611a13816119d7565b9050919050565b6000611a25826112c5565b9150611a30836112c5565b9250828201905080821115611a4857611a47611620565b5b92915050565b7f4231000000000000000000000000000000000000000000000000000000000000600082015250565b6000611a84600283611537565b9150611a8f82611a4e565b602082019050919050565b60006020820190508181036000830152611ab381611a77565b9050919050565b6000608082019050611acf6000830187611876565b611adc6020830186611876565b611ae96040830185611876565b611af660608301846112cf565b95945050505050565b6000604082019050611b146000830185611876565b611b216020830184611876565b939250505056fea2646970667358221220f9a20564edcd28ef3267531f0eda3330800df04844c116413ba6026c8e423e0764736f6c634300081c0033a26469706673582212203de05879087200f7115918a20c2ac75eb834de8f020dfeebd171c6c96994289e64736f6c634300081c00336080604052348015600f57600080fd5b506105008061001f6000396000f3fe608060405234801561001057600080fd5b50600436106100365760003560e01c806343aaa6901461003b578063c489744b14610057575b600080fd5b61005560048036038101906100509190610274565b610087565b005b610071600480360381019061006c91906102db565b610152565b60405161007e919061032a565b60405180910390f35b60008490508073ffffffffffffffffffffffffffffffffffffffff166323b872dd8585856040518463ffffffff1660e01b81526004016100c993929190610354565b6020604051808303816000875af11580156100e8573d6000803e3d6000fd5b505050506040513d601f19601f8201168201806040525081019061010c91906103c3565b61014b576040517f08c379a00000000000000000000000000000000000000000000000000000000081526004016101429061044d565b60405180910390fd5b5050505050565b6000808390508073ffffffffffffffffffffffffffffffffffffffff166370a08231846040518263ffffffff1660e01b8152600401610191919061046d565b602060405180830381865afa1580156101ae573d6000803e3d6000fd5b505050506040513d601f19601f820116820180604052508101906101d2919061049d565b91505092915050565b600080fd5b600073ffffffffffffffffffffffffffffffffffffffff82169050919050565b600061020b826101e0565b9050919050565b61021b81610200565b811461022657600080fd5b50565b60008135905061023881610212565b92915050565b6000819050919050565b6102518161023e565b811461025c57600080fd5b50565b60008135905061026e81610248565b92915050565b6000806000806080858703121561028e5761028d6101db565b5b600061029c87828801610229565b94505060206102ad87828801610229565b93505060406102be87828801610229565b92505060606102cf8782880161025f565b91505092959194509250565b600080604083850312156102f2576102f16101db565b5b600061030085828601610229565b925050602061031185828601610229565b9150509250929050565b6103248161023e565b82525050565b600060208201905061033f600083018461031b565b92915050565b61034e81610200565b82525050565b60006060820190506103696000830186610345565b6103766020830185610345565b610383604083018461031b565b949350505050565b60008115159050919050565b6103a08161038b565b81146103ab57600080fd5b50565b6000815190506103bd81610397565b92915050565b6000602082840312156103d9576103d86101db565b5b60006103e7848285016103ae565b91505092915050565b600082825260208201905092915050565b7f5472616e73666572206661696c65640000000000000000000000000000000000600082015250565b6000610437600f836103f0565b915061044282610401565b602082019050919050565b600060208201905081810360008301526104668161042a565b9050919050565b60006020820190506104826000830184610345565b92915050565b60008151905061049781610248565b92915050565b6000602082840312156104b3576104b26101db565b5b60006104c184828501610488565b9150509291505056fea2646970667358221220178d5b67c3450359dd61f1a376e7df308e9589dff075980ca201bd9393c50ecf64736f6c634300081c0033",
  "linkReferences": {},
  "deployedLinkReferences": {}
}