{
  "_format": "hh-sol-artifact-1",
  "contractName": "QswapProxy",
  "sourceName": "contracts/swap/qswapProxy.sol",
  "abi": [
    {
      "inputs": [],
      "stateMutability": "nonpayable",
      "type": "constructor"
    },
    {
      "anonymous": false,
      "inputs": [
        {
          "indexed": true,
          "internalType": "address",
          "name": "tokenX",
          "type": "address"
        },
        {
          "indexed": true,
          "internalType": "address",
          "name": "tokenY",
          "type": "address"
        },
        {
          "indexed": false,
          "internalType": "address",
          "name": "pair",
          "type": "address"
        }
      ],
      "name": "PairCreated",
      "type": "event"
    },
    {
      "inputs": [
        {
          "internalType": "address",
          "name": "tokenX",
          "type": "address"
        },
        {
          "internalType": "address",
          "name": "tokenY",
          "type": "address"
        },
        {
          "internalType": "uint256",
          "name": "amountA",
          "type": "uint256"
        }
      ],
      "name": "addLiquidity",
      "outputs": [
        {
          "internalType": "bool",
          "name": "isSuccess",
          "type": "bool"
        }
      ],
      "stateMutability": "nonpayable",
      "type": "function"
    },
    {
      "inputs": [
        {
          "internalType": "address",
          "name": "tokenX",
          "type": "address"
        },
        {
          "internalType": "uint256",
          "name": "amountTokenX",
          "type": "uint256"
        },
        {
          "internalType": "address",
          "name": "tokenY",
          "type": "address"
        },
        {
          "internalType": "uint256",
          "name": "amountTokenY",
          "type": "uint256"
        },
        {
          "internalType": "uint256",
          "name": "fee",
          "type": "uint256"
        }
      ],
      "name": "createPair",
      "outputs": [
        {
          "internalType": "address",
          "name": "pair",
          "type": "address"
        }
      ],
      "stateMutability": "nonpayable",
      "type": "function"
    },
    {
      "inputs": [
        {
          "internalType": "address",
          "name": "",
          "type": "address"
        }
      ],
      "name": "getLTPair",
      "outputs": [
        {
          "internalType": "address",
          "name": "",
          "type": "address"
        }
      ],
      "stateMutability": "view",
      "type": "function"
    },
    {
      "inputs": [
        {
          "internalType": "address",
          "name": "",
          "type": "address"
        },
        {
          "internalType": "address",
          "name": "",
          "type": "address"
        }
      ],
      "name": "getPair",
      "outputs": [
        {
          "internalType": "address",
          "name": "",
          "type": "address"
        }
      ],
      "stateMutability": "view",
      "type": "function"
    },
    {
      "inputs": [
        {
          "internalType": "address",
          "name": "liquidityTokenAddress",
          "type": "address"
        },
        {
          "internalType": "uint256",
          "name": "amount",
          "type": "uint256"
        }
      ],
      "name": "removeLiquidity",
      "outputs": [
        {
          "internalType": "bool",
          "name": "isSuccess",
          "type": "bool"
        }
      ],
      "stateMutability": "nonpayable",
      "type": "function"
    },
    {
      "inputs": [
        {
          "internalType": "address",
          "name": "tokenX",
          "type": "address"
        },
        {
          "internalType": "address",
          "name": "tokenY",
          "type": "address"
        },
        {
          "internalType": "uint256",
          "name": "amount",
          "type": "uint256"
        }
      ],
      "name": "swap",
      "outputs": [
        {
          "internalType": "bool",
          "name": "isSuccess",
          "type": "bool"
        }
      ],
      "stateMutability": "nonpayable",
      "type": "function"
    }
  ],
  "bytecode": "0x6080604052348015600f57600080fd5b50604051601a906079565b604051809103906000f0801580156035573d6000803e3d6000fd5b506000806101000a81548173ffffffffffffffffffffffffffffffffffffffff021916908373ffffffffffffffffffffffffffffffffffffffff1602179055506086565b6105258061542d83390190565b615398806100956000396000f3fe608060405234801561001057600080fd5b50600436106100625760003560e01c8063a201ccf614610067578063a3625b8f14610097578063c515bfa9146100c7578063df791e50146100f7578063e4a7672614610127578063e6a4390514610157575b600080fd5b610081600480360381019061007c9190610c3b565b610187565b60405161008e9190610c96565b60405180910390f35b6100b160048036038101906100ac9190610cb1565b610262565b6040516100be9190610ced565b60405180910390f35b6100e160048036038101906100dc9190610d08565b610295565b6040516100ee9190610ced565b60405180910390f35b610111600480360381019061010c9190610d83565b610654565b60405161011e9190610c96565b60405180910390f35b610141600480360381019061013c9190610d83565b61075a565b60405161014e9190610c96565b60405180910390f35b610171600480360381019061016c9190610dd6565b61085c565b60405161017e9190610ced565b60405180910390f35b600080600160008573ffffffffffffffffffffffffffffffffffffffff1673ffffffffffffffffffffffffffffffffffffffff16815260200190815260200160002060009054906101000a900473ffffffffffffffffffffffffffffffffffffffff1690508073ffffffffffffffffffffffffffffffffffffffff16639c8f9f23846040518263ffffffff1660e01b81526004016102259190610e25565b600060405180830381600087803b15801561023f57600080fd5b505af1158015610253573d6000803e3d6000fd5b50505050600191505092915050565b60016020528060005260406000206000915054906101000a900473ffffffffffffffffffffffffffffffffffffffff1681565b60008373ffffffffffffffffffffffffffffffffffffffff168673ffffffffffffffffffffffffffffffffffffffff1603610305576040517f08c379a00000000000000000000000000000000000000000000000000000000081526004016102fc90610e9d565b60405180910390fd5b600073ffffffffffffffffffffffffffffffffffffffff16600260008873ffffffffffffffffffffffffffffffffffffffff1673ffffffffffffffffffffffffffffffffffffffff16815260200190815260200160002060008673ffffffffffffffffffffffffffffffffffffffff1673ffffffffffffffffffffffffffffffffffffffff16815260200190815260200160002060009054906101000a900473ffffffffffffffffffffffffffffffffffffffff1673ffffffffffffffffffffffffffffffffffffffff1614610410576040517f08c379a000000000000000000000000000000000000000000000000000000000815260040161040790610f09565b60405180910390fd5b858585858560008054906101000a900473ffffffffffffffffffffffffffffffffffffffff1660405161044290610b95565b61045196959493929190610f29565b604051809103906000f08015801561046d573d6000803e3d6000fd5b50905080600260008873ffffffffffffffffffffffffffffffffffffffff1673ffffffffffffffffffffffffffffffffffffffff16815260200190815260200160002060008673ffffffffffffffffffffffffffffffffffffffff1673ffffffffffffffffffffffffffffffffffffffff16815260200190815260200160002060006101000a81548173ffffffffffffffffffffffffffffffffffffffff021916908373ffffffffffffffffffffffffffffffffffffffff16021790555080600260008673ffffffffffffffffffffffffffffffffffffffff1673ffffffffffffffffffffffffffffffffffffffff16815260200190815260200160002060008873ffffffffffffffffffffffffffffffffffffffff1673ffffffffffffffffffffffffffffffffffffffff16815260200190815260200160002060006101000a81548173ffffffffffffffffffffffffffffffffffffffff021916908373ffffffffffffffffffffffffffffffffffffffff1602179055508373ffffffffffffffffffffffffffffffffffffffff168673ffffffffffffffffffffffffffffffffffffffff167fa92a2b95c8d8436f6ac4c673c61487364f877efb9534d4296fad8ef904546c94836040516106439190610ced565b60405180910390a395945050505050565b6000806000610663868661089e565b91509150600073ffffffffffffffffffffffffffffffffffffffff168173ffffffffffffffffffffffffffffffffffffffff16036106d6576040517f08c379a00000000000000000000000000000000000000000000000000000000081526004016106cd90610fd6565b60405180910390fd5b60008190508073ffffffffffffffffffffffffffffffffffffffff1663e650cd8f888786336040518563ffffffff1660e01b815260040161071a9493929190610ff6565b600060405180830381600087803b15801561073457600080fd5b505af1158015610748573d6000803e3d6000fd5b50505050600193505050509392505050565b6000806000610769868661089e565b91509150600073ffffffffffffffffffffffffffffffffffffffff168173ffffffffffffffffffffffffffffffffffffffff16036107dc576040517f08c379a00000000000000000000000000000000000000000000000000000000081526004016107d390610fd6565b60405180910390fd5b60008190508073ffffffffffffffffffffffffffffffffffffffff16638a3aacb386856040518363ffffffff1660e01b815260040161081c92919061103b565b600060405180830381600087803b15801561083657600080fd5b505af115801561084a573d6000803e3d6000fd5b50505050600193505050509392505050565b60026020528160005260406000206020528060005260406000206000915091509054906101000a900473ffffffffffffffffffffffffffffffffffffffff1681565b600080600073ffffffffffffffffffffffffffffffffffffffff16600260008673ffffffffffffffffffffffffffffffffffffffff1673ffffffffffffffffffffffffffffffffffffffff16815260200190815260200160002060008573ffffffffffffffffffffffffffffffffffffffff1673ffffffffffffffffffffffffffffffffffffffff16815260200190815260200160002060009054906101000a900473ffffffffffffffffffffffffffffffffffffffff1673ffffffffffffffffffffffffffffffffffffffff1614610a1957600260008573ffffffffffffffffffffffffffffffffffffffff1673ffffffffffffffffffffffffffffffffffffffff16815260200190815260200160002060008473ffffffffffffffffffffffffffffffffffffffff1673ffffffffffffffffffffffffffffffffffffffff16815260200190815260200160002060009054906101000a900473ffffffffffffffffffffffffffffffffffffffff16905060009150610b8e565b600073ffffffffffffffffffffffffffffffffffffffff16600260008573ffffffffffffffffffffffffffffffffffffffff1673ffffffffffffffffffffffffffffffffffffffff16815260200190815260200160002060008673ffffffffffffffffffffffffffffffffffffffff1673ffffffffffffffffffffffffffffffffffffffff16815260200190815260200160002060009054906101000a900473ffffffffffffffffffffffffffffffffffffffff1673ffffffffffffffffffffffffffffffffffffffff1614610b8d57600260008473ffffffffffffffffffffffffffffffffffffffff1673ffffffffffffffffffffffffffffffffffffffff16815260200190815260200160002060008573ffffffffffffffffffffffffffffffffffffffff1673ffffffffffffffffffffffffffffffffffffffff16815260200190815260200160002060009054906101000a900473ffffffffffffffffffffffffffffffffffffffff169050600191505b5b9250929050565b6142fe8061106583390190565b600080fd5b600073ffffffffffffffffffffffffffffffffffffffff82169050919050565b6000610bd282610ba7565b9050919050565b610be281610bc7565b8114610bed57600080fd5b50565b600081359050610bff81610bd9565b92915050565b6000819050919050565b610c1881610c05565b8114610c2357600080fd5b50565b600081359050610c3581610c0f565b92915050565b60008060408385031215610c5257610c51610ba2565b5b6000610c6085828601610bf0565b9250506020610c7185828601610c26565b9150509250929050565b60008115159050919050565b610c9081610c7b565b82525050565b6000602082019050610cab6000830184610c87565b92915050565b600060208284031215610cc757610cc6610ba2565b5b6000610cd584828501610bf0565b91505092915050565b610ce781610bc7565b82525050565b6000602082019050610d026000830184610cde565b92915050565b600080600080600060a08688031215610d2457610d23610ba2565b5b6000610d3288828901610bf0565b9550506020610d4388828901610c26565b9450506040610d5488828901610bf0565b9350506060610d6588828901610c26565b9250506080610d7688828901610c26565b9150509295509295909350565b600080600060608486031215610d9c57610d9b610ba2565b5b6000610daa86828701610bf0565b9350506020610dbb86828701610bf0565b9250506040610dcc86828701610c26565b9150509250925092565b60008060408385031215610ded57610dec610ba2565b5b6000610dfb85828601610bf0565b9250506020610e0c85828601610bf0565b9150509250929050565b610e1f81610c05565b82525050565b6000602082019050610e3a6000830184610e16565b92915050565b600082825260208201905092915050565b7f4944454e544943414c5f41444452455353455300000000000000000000000000600082015250565b6000610e87601383610e40565b9150610e9282610e51565b602082019050919050565b60006020820190508181036000830152610eb681610e7a565b9050919050565b7f504149525f455849535453000000000000000000000000000000000000000000600082015250565b6000610ef3600b83610e40565b9150610efe82610ebd565b602082019050919050565b60006020820190508181036000830152610f2281610ee6565b9050919050565b600060c082019050610f3e6000830189610cde565b610f4b6020830188610e16565b610f586040830187610cde565b610f656060830186610e16565b610f726080830185610e16565b610f7f60a0830184610cde565b979650505050505050565b7f504149525f444f45535f4e4f545f455849535400000000000000000000000000600082015250565b6000610fc0601383610e40565b9150610fcb82610f8a565b602082019050919050565b60006020820190508181036000830152610fef81610fb3565b9050919050565b600060808201905061100b6000830187610cde565b6110186020830186610e16565b6110256040830185610c87565b6110326060830184610cde565b95945050505050565b60006040820190506110506000830185610e16565b61105d6020830184610c87565b939250505056fe608060405261271060045534801561001657600080fd5b506040516142fe3803806142fe8339818101604052810190610038919061086c565b856000806101000a81548173ffffffffffffffffffffffffffffffffffffffff021916908373ffffffffffffffffffffffffffffffffffffffff16021790555083600160006101000a81548173ffffffffffffffffffffffffffffffffffffffff021916908373ffffffffffffffffffffffffffffffffffffffff1602179055508160038190555060008060009054906101000a900473ffffffffffffffffffffffffffffffffffffffff1673ffffffffffffffffffffffffffffffffffffffff166306fdde036040518163ffffffff1660e01b8152600401600060405180830381865afa15801561012e573d6000803e3d6000fd5b505050506040513d6000823e3d601f19601f820116820180604052508101906101579190610a5a565b600160009054906101000a900473ffffffffffffffffffffffffffffffffffffffff1673ffffffffffffffffffffffffffffffffffffffff166306fdde036040518163ffffffff1660e01b8152600401600060405180830381865afa1580156101c4573d6000803e3d6000fd5b505050506040513d6000823e3d601f19601f820116820180604052508101906101ed9190610a5a565b6040516020016101fe929190610aea565b60405160208183030381529060405260018060405161021c906107b7565b6102299493929190610c04565b604051809103906000f080158015610245573d6000803e3d6000fd5b50600260006101000a81548173ffffffffffffffffffffffffffffffffffffffff021916908373ffffffffffffffffffffffffffffffffffffffff160217905550600260009054906101000a900473ffffffffffffffffffffffffffffffffffffffff1673ffffffffffffffffffffffffffffffffffffffff16600160009054906101000a900473ffffffffffffffffffffffffffffffffffffffff1673ffffffffffffffffffffffffffffffffffffffff1660008054906101000a900473ffffffffffffffffffffffffffffffffffffffff1673ffffffffffffffffffffffffffffffffffffffff167fd5b15d880a99babcad7baedddbe6d03dcc853b8484aa58ec19d1db08eeebc29660405160405180910390a480600860006101000a81548173ffffffffffffffffffffffffffffffffffffffff021916908373ffffffffffffffffffffffffffffffffffffffff16021790555060006103ae868561045d60201b60201c565b9050600260009054906101000a900473ffffffffffffffffffffffffffffffffffffffff1673ffffffffffffffffffffffffffffffffffffffff166340c10f1933836040518363ffffffff1660e01b815260040161040d929190610c81565b6020604051808303816000875af115801561042c573d6000803e3d6000fd5b505050506040513d601f19601f820116820180604052508101906104509190610cd6565b5050505050505050610d9e565b6000808311801561046e5750600082115b6104ad576040517f08c379a00000000000000000000000000000000000000000000000000000000081526004016104a490610d4f565b60405180910390fd5b60006104be8461052560201b60201c565b905060006104d18461052560201b60201c565b905060006104eb8284600f0b61054860201b90919060201c565b905060006104fe826105b360201b60201c565b905061050f816105e260201b60201c565b67ffffffffffffffff1694505050505092915050565b6000677fffffffffffffff82111561053c57600080fd5b604082901b9050919050565b600080604083600f0b85600f0b02901d90507fffffffffffffffffffffffffffffffff80000000000000000000000000000000600f0b81121580156105a057506f7fffffffffffffffffffffffffffffff600f0b8113155b6105a957600080fd5b8091505092915050565b60008082600f0b12156105c557600080fd5b6105db604083600f0b901b61060360201b60201c565b9050919050565b60008082600f0b12156105f457600080fd5b604082600f0b901d9050919050565b600080820361061557600090506107b2565b6000829050600060019050700100000000000000000000000000000000821061064757608082901c9150604081901b90505b68010000000000000000821061066657604082901c9150602081901b90505b640100000000821061068157602082901c9150601081901b90505b62010000821061069a57601082901c9150600881901b90505b61010082106106b257600882901c9150600481901b90505b601082106106c957600482901c9150600281901b90505b600482106106d957600181901b90505b60018185816106eb576106ea610d6f565b5b048201901c9050600181858161070457610703610d6f565b5b048201901c9050600181858161071d5761071c610d6f565b5b048201901c9050600181858161073657610735610d6f565b5b048201901c9050600181858161074f5761074e610d6f565b5b048201901c9050600181858161076857610767610d6f565b5b048201901c9050600181858161078157610780610d6f565b5b048201901c9050600081858161079a57610799610d6f565b5b0490508082106107aa57806107ac565b815b93505050505b919050565b611c768061268883390190565b6000604051905090565b600080fd5b600080fd5b600073ffffffffffffffffffffffffffffffffffffffff82169050919050565b6000610803826107d8565b9050919050565b610813816107f8565b811461081e57600080fd5b50565b6000815190506108308161080a565b92915050565b6000819050919050565b61084981610836565b811461085457600080fd5b50565b60008151905061086681610840565b92915050565b60008060008060008060c08789031215610889576108886107ce565b5b600061089789828a01610821565b96505060206108a889828a01610857565b95505060406108b989828a01610821565b94505060606108ca89828a01610857565b93505060806108db89828a01610857565b92505060a06108ec89828a01610821565b9150509295509295509295565b600080fd5b600080fd5b6000601f19601f8301169050919050565b7f4e487b7100000000000000000000000000000000000000000000000000000000600052604160045260246000fd5b61094c82610903565b810181811067ffffffffffffffff8211171561096b5761096a610914565b5b80604052505050565b600061097e6107c4565b905061098a8282610943565b919050565b600067ffffffffffffffff8211156109aa576109a9610914565b5b6109b382610903565b9050602081019050919050565b60005b838110156109de5780820151818401526020810190506109c3565b60008484015250505050565b60006109fd6109f88461098f565b610974565b905082815260208101848484011115610a1957610a186108fe565b5b610a248482856109c0565b509392505050565b600082601f830112610a4157610a406108f9565b5b8151610a518482602086016109ea565b91505092915050565b600060208284031215610a7057610a6f6107ce565b5b600082015167ffffffffffffffff811115610a8e57610a8d6107d3565b5b610a9a84828501610a2c565b91505092915050565b600081519050919050565b600081905092915050565b6000610ac482610aa3565b610ace8185610aae565b9350610ade8185602086016109c0565b80840191505092915050565b6000610af68285610ab9565b9150610b028284610ab9565b91508190509392505050565b6000819050919050565b6000819050919050565b6000610b3d610b38610b3384610b0e565b610b18565b610836565b9050919050565b610b4d81610b22565b82525050565b600082825260208201905092915050565b6000610b6f82610aa3565b610b798185610b53565b9350610b898185602086016109c0565b610b9281610903565b840191505092915050565b7f51534c5400000000000000000000000000000000000000000000000000000000600082015250565b6000610bd3600483610b53565b9150610bde82610b9d565b602082019050919050565b60008115159050919050565b610bfe81610be9565b82525050565b600060a082019050610c196000830187610b44565b8181036020830152610c2b8186610b64565b90508181036040830152610c3e81610bc6565b9050610c4d6060830185610bf5565b610c5a6080830184610bf5565b95945050505050565b610c6c816107f8565b82525050565b610c7b81610836565b82525050565b6000604082019050610c966000830185610c63565b610ca36020830184610c72565b9392505050565b610cb381610be9565b8114610cbe57600080fd5b50565b600081519050610cd081610caa565b92915050565b600060208284031215610cec57610ceb6107ce565b5b6000610cfa84828501610cc1565b91505092915050565b7f426f746820616d6f756e7473206d757374206265203e20300000000000000000600082015250565b6000610d39601883610b53565b9150610d4482610d03565b602082019050919050565b60006020820190508181036000830152610d6881610d2c565b9050919050565b7f4e487b7100000000000000000000000000000000000000000000000000000000600052601260045260246000fd5b6118db80610dad6000396000f3fe608060405234801561001057600080fd5b50600436106100935760003560e01c80638a3aacb3116100665780638a3aacb3146101115780639c8f9f231461012d578063a001ecdd14610149578063b7d19fc414610167578063e650cd8f1461018557610093565b80630902f1ac1461009857806316dc165b146100b7578063180b0d7e146100d557806343cd8f7e146100f3575b600080fd5b6100a06101a1565b6040516100ae92919061105b565b60405180910390f35b6100bf6101b2565b6040516100cc9190611103565b60405180910390f35b6100dd6101d6565b6040516100ea919061111e565b60405180910390f35b6100fb6101dc565b6040516101089190611103565b60405180910390f35b61012b600480360381019061012691906111a2565b610202565b005b610147600480360381019061014291906111e2565b6104c7565b005b610151610921565b60405161015e919061111e565b60405180910390f35b61016f610927565b60405161017c9190611103565b60405180910390f35b61019f600480360381019061019a919061124d565b61094d565b005b600080600554600654915091509091565b60008054906101000a900473ffffffffffffffffffffffffffffffffffffffff1681565b60045481565b600260009054906101000a900473ffffffffffffffffffffffffffffffffffffffff1681565b60008211610245576040517f08c379a000000000000000000000000000000000000000000000000000000000815260040161023c90611311565b60405180910390fd5b60008060008061025485610b72565b935093509350935060008411801561026c5750600083115b6102ab576040517f08c379a00000000000000000000000000000000000000000000000000000000081526004016102a29061137d565b60405180910390fd5b60008387866102ba91906113cc565b6102c4919061143d565b905060008111610309576040517f08c379a0000000000000000000000000000000000000000000000000000000008152600401610300906114ba565b60405180910390fd5b61031583333084610c2f565b6103218233308a610c2f565b6000600260009054906101000a900473ffffffffffffffffffffffffffffffffffffffff1673ffffffffffffffffffffffffffffffffffffffff166318160ddd6040518163ffffffff1660e01b8152600401602060405180830381865afa158015610390573d6000803e3d6000fd5b505050506040513d601f19601f820116820180604052508101906103b491906114ef565b90506103c233838a8a610cc8565b600081600260009054906101000a900473ffffffffffffffffffffffffffffffffffffffff1673ffffffffffffffffffffffffffffffffffffffff166318160ddd6040518163ffffffff1660e01b8152600401602060405180830381865afa158015610432573d6000803e3d6000fd5b505050506040513d601f19601f8201168201806040525081019061045691906114ef565b610460919061151c565b905061046a610df7565b3373ffffffffffffffffffffffffffffffffffffffff167fbeb3885786d637a474cbc287c0a44587231633a077f0bd30354d5a4b18996fce848b846040516104b493929190611550565b60405180910390a2505050505050505050565b6000811161050a576040517f08c379a0000000000000000000000000000000000000000000000000000000008152600401610501906115d3565b60405180910390fd5b80600260009054906101000a900473ffffffffffffffffffffffffffffffffffffffff1673ffffffffffffffffffffffffffffffffffffffff166370a08231336040518263ffffffff1660e01b81526004016105669190611602565b602060405180830381865afa158015610583573d6000803e3d6000fd5b505050506040513d601f19601f820116820180604052508101906105a791906114ef565b10156105e8576040517f08c379a00000000000000000000000000000000000000000000000000000000081526004016105df90611669565b60405180910390fd5b60006005549050600060065490506000821180156106065750600081115b610645576040517f08c379a000000000000000000000000000000000000000000000000000000000815260040161063c9061137d565b60405180910390fd5b6000600754848461065691906113cc565b610660919061143d565b90506000600754858461067391906113cc565b61067d919061143d565b905060008211801561068f5750600081115b6106ce576040517f08c379a00000000000000000000000000000000000000000000000000000000081526004016106c5906115d3565b60405180910390fd5b600260009054906101000a900473ffffffffffffffffffffffffffffffffffffffff1673ffffffffffffffffffffffffffffffffffffffff166323b872dd3330886040518463ffffffff1660e01b815260040161072d93929190611689565b6020604051808303816000875af115801561074c573d6000803e3d6000fd5b505050506040513d601f19601f8201168201806040525081019061077091906116d5565b50600260009054906101000a900473ffffffffffffffffffffffffffffffffffffffff1673ffffffffffffffffffffffffffffffffffffffff166342966c68866040518263ffffffff1660e01b81526004016107cc919061111e565b6020604051808303816000875af11580156107eb573d6000803e3d6000fd5b505050506040513d601f19601f8201168201806040525081019061080f91906116d5565b508460076000828254610822919061151c565b9250508190555061085560008054906101000a900473ffffffffffffffffffffffffffffffffffffffff16303385610c2f565b610883600160009054906101000a900473ffffffffffffffffffffffffffffffffffffffff16303384610c2f565b61088b610df7565b3373ffffffffffffffffffffffffffffffffffffffff167f59c3a0b60c6ab7deb62e1440c9e72441db6db7dfe514dba8cb18e60c0d896efa8383886040516108d593929190611550565b60405180910390a27fcf2aa50876cdfbb541206f89af0ee78d44a2abf8d328e37fa4917f982149848a60055460065460405161091292919061105b565b60405180910390a15050505050565b60035481565b600160009054906101000a900473ffffffffffffffffffffffffffffffffffffffff1681565b60008311610990576040517f08c379a000000000000000000000000000000000000000000000000000000000815260040161098790611311565b60405180910390fd5b600073ffffffffffffffffffffffffffffffffffffffff168173ffffffffffffffffffffffffffffffffffffffff16036109ff576040517f08c379a00000000000000000000000000000000000000000000000000000000081526004016109f69061174e565b60405180910390fd5b6000806000806000610a1288888b610f83565b9450945094509450945060008511610a5f576040517f08c379a0000000000000000000000000000000000000000000000000000000008152600401610a569061137d565b60405180910390fd5b60008185610a6d919061176e565b86610a78919061143d565b85610a83919061151c565b905060008111610ac8576040517f08c379a0000000000000000000000000000000000000000000000000000000008152600401610abf906117ee565b60405180910390fd5b610ad484883085610c2f565b610ae083308984610c2f565b610ae8610df7565b8273ffffffffffffffffffffffffffffffffffffffff168473ffffffffffffffffffffffffffffffffffffffff163373ffffffffffffffffffffffffffffffffffffffff167fcd3829a3813dc3cdd188fd3d01dcf3268c16be2fdd2dd21d0665418816e460628585604051610b5e92919061105b565b60405180910390a450505050505050505050565b6000806000808415610bd5576005549350600654925060008054906101000a900473ffffffffffffffffffffffffffffffffffffffff169150600160009054906101000a900473ffffffffffffffffffffffffffffffffffffffff169050610c28565b60065493506005549250600160009054906101000a900473ffffffffffffffffffffffffffffffffffffffff16915060008054906101000a900473ffffffffffffffffffffffffffffffffffffffff1690505b9193509193565b600860009054906101000a900473ffffffffffffffffffffffffffffffffffffffff1673ffffffffffffffffffffffffffffffffffffffff166343aaa690858585856040518563ffffffff1660e01b8152600401610c90949392919061180e565b600060405180830381600087803b158015610caa57600080fd5b505af1158015610cbe573d6000803e3d6000fd5b5050505050505050565b60008082610cdf5760055491506006549050610cea565b600654915060055490505b60008260075487610cfb91906113cc565b610d05919061143d565b905060008260075487610d1891906113cc565b610d22919061143d565b90506000610d308383611029565b90508060076000828254610d44919061176e565b92505081905550600260009054906101000a900473ffffffffffffffffffffffffffffffffffffffff1673ffffffffffffffffffffffffffffffffffffffff166340c10f198a836040518363ffffffff1660e01b8152600401610da8929190611853565b6020604051808303816000875af1158015610dc7573d6000803e3d6000fd5b505050506040513d601f19601f82011682018060405250810190610deb91906116d5565b50505050505050505050565b600860009054906101000a900473ffffffffffffffffffffffffffffffffffffffff1673ffffffffffffffffffffffffffffffffffffffff1663c489744b60008054906101000a900473ffffffffffffffffffffffffffffffffffffffff16306040518363ffffffff1660e01b8152600401610e7492919061187c565b602060405180830381865afa158015610e91573d6000803e3d6000fd5b505050506040513d601f19601f82011682018060405250810190610eb591906114ef565b600581905550600860009054906101000a900473ffffffffffffffffffffffffffffffffffffffff1673ffffffffffffffffffffffffffffffffffffffff1663c489744b600160009054906101000a900473ffffffffffffffffffffffffffffffffffffffff16306040518363ffffffff1660e01b8152600401610f3a92919061187c565b602060405180830381865afa158015610f57573d6000803e3d6000fd5b505050506040513d601f19601f82011682018060405250810190610f7b91906114ef565b600681905550565b6000806000806000600654600554610f9b91906113cc565b94506103e86103e589610fae91906113cc565b610fb8919061143d565b90508615610ff2576005549350859250600160009054906101000a900473ffffffffffffffffffffffffffffffffffffffff16915061101e565b600654935060008054906101000a900473ffffffffffffffffffffffffffffffffffffffff1692508591505b939792965093509350565b6000818310611038578161103a565b825b905092915050565b6000819050919050565b61105581611042565b82525050565b6000604082019050611070600083018561104c565b61107d602083018461104c565b9392505050565b600073ffffffffffffffffffffffffffffffffffffffff82169050919050565b6000819050919050565b60006110c96110c46110bf84611084565b6110a4565b611084565b9050919050565b60006110db826110ae565b9050919050565b60006110ed826110d0565b9050919050565b6110fd816110e2565b82525050565b600060208201905061111860008301846110f4565b92915050565b6000602082019050611133600083018461104c565b92915050565b600080fd5b61114781611042565b811461115257600080fd5b50565b6000813590506111648161113e565b92915050565b60008115159050919050565b61117f8161116a565b811461118a57600080fd5b50565b60008135905061119c81611176565b92915050565b600080604083850312156111b9576111b8611139565b5b60006111c785828601611155565b92505060206111d88582860161118d565b9150509250929050565b6000602082840312156111f8576111f7611139565b5b600061120684828501611155565b91505092915050565b600061121a82611084565b9050919050565b61122a8161120f565b811461123557600080fd5b50565b60008135905061124781611221565b92915050565b6000806000806080858703121561126757611266611139565b5b600061127587828801611238565b945050602061128687828801611155565b93505060406112978782880161118d565b92505060606112a887828801611238565b91505092959194509250565b600082825260208201905092915050565b7f494e53554646494349454e545f494e5055545f414d4f554e5400000000000000600082015250565b60006112fb6019836112b4565b9150611306826112c5565b602082019050919050565b6000602082019050818103600083015261132a816112ee565b9050919050565b7f494e53554646494349454e545f4c495155494449545900000000000000000000600082015250565b60006113676016836112b4565b915061137282611331565b602082019050919050565b600060208201905081810360008301526113968161135a565b9050919050565b7f4e487b7100000000000000000000000000000000000000000000000000000000600052601160045260246000fd5b60006113d782611042565b91506113e283611042565b92508282026113f081611042565b915082820484148315176114075761140661139d565b5b5092915050565b7f4e487b7100000000000000000000000000000000000000000000000000000000600052601260045260246000fd5b600061144882611042565b915061145383611042565b9250826114635761146261140e565b5b828204905092915050565b7f494e53554646494349454e545f4c49515549444954595f414d4f554e54000000600082015250565b60006114a4601d836112b4565b91506114af8261146e565b602082019050919050565b600060208201905081810360008301526114d381611497565b9050919050565b6000815190506114e98161113e565b92915050565b60006020828403121561150557611504611139565b5b6000611513848285016114da565b91505092915050565b600061152782611042565b915061153283611042565b925082820390508181111561154a5761154961139d565b5b92915050565b6000606082019050611565600083018661104c565b611572602083018561104c565b61157f604083018461104c565b949350505050565b7f494e53554646494349454e545f4c49515549444954595f4255524e4544000000600082015250565b60006115bd601d836112b4565b91506115c882611587565b602082019050919050565b600060208201905081810360008301526115ec816115b0565b9050919050565b6115fc8161120f565b82525050565b600060208201905061161760008301846115f3565b92915050565b7f494e53554646494349454e545f4c49515549444954595f42414c414e43450000600082015250565b6000611653601e836112b4565b915061165e8261161d565b602082019050919050565b6000602082019050818103600083015261168281611646565b9050919050565b600060608201905061169e60008301866115f3565b6116ab60208301856115f3565b6116b8604083018461104c565b949350505050565b6000815190506116cf81611176565b92915050565b6000602082840312156116eb576116ea611139565b5b60006116f9848285016116c0565b91505092915050565b7f494e56414c49445f524543495049454e54000000000000000000000000000000600082015250565b60006117386011836112b4565b915061174382611702565b602082019050919050565b600060208201905081810360008301526117678161172b565b9050919050565b600061177982611042565b915061178483611042565b925082820190508082111561179c5761179b61139d565b5b92915050565b7f494e53554646494349454e545f4f55545055545f414d4f554e54000000000000600082015250565b60006117d8601a836112b4565b91506117e3826117a2565b602082019050919050565b60006020820190508181036000830152611807816117cb565b9050919050565b600060808201905061182360008301876115f3565b61183060208301866115f3565b61183d60408301856115f3565b61184a606083018461104c565b95945050505050565b600060408201905061186860008301856115f3565b611875602083018461104c565b9392505050565b600060408201905061189160008301856115f3565b61189e60208301846115f3565b939250505056fea26469706673582212201d3a7a5b20208edc99bdd018c056a3f2e93190a8ad1bc0dcac980af7d0f4d12464736f6c634300081c003360806040526012600460006101000a81548160ff021916908360ff16021790555034801561002c57600080fd5b50604051611c76380380611c76833981810160405281019061004e9190610305565b81600260006101000a81548160ff02191690831515021790555080600260016101000a81548160ff021916908315150217905550836000908161009191906105cf565b5082600190816100a191906105cf565b50600460009054906101000a900460ff1660ff16600a6100c19190610803565b856100cc919061084e565b600381905550600354600560003373ffffffffffffffffffffffffffffffffffffffff1673ffffffffffffffffffffffffffffffffffffffff168152602001908152602001600020819055505050505050610890565b6000604051905090565b600080fd5b600080fd5b6000819050919050565b61014981610136565b811461015457600080fd5b50565b60008151905061016681610140565b92915050565b600080fd5b600080fd5b6000601f19601f8301169050919050565b7f4e487b7100000000000000000000000000000000000000000000000000000000600052604160045260246000fd5b6101bf82610176565b810181811067ffffffffffffffff821117156101de576101dd610187565b5b80604052505050565b60006101f1610122565b90506101fd82826101b6565b919050565b600067ffffffffffffffff82111561021d5761021c610187565b5b61022682610176565b9050602081019050919050565b60005b83811015610251578082015181840152602081019050610236565b60008484015250505050565b600061027061026b84610202565b6101e7565b90508281526020810184848401111561028c5761028b610171565b5b610297848285610233565b509392505050565b600082601f8301126102b4576102b361016c565b5b81516102c484826020860161025d565b91505092915050565b60008115159050919050565b6102e2816102cd565b81146102ed57600080fd5b50565b6000815190506102ff816102d9565b92915050565b600080600080600060a086880312156103215761032061012c565b5b600061032f88828901610157565b955050602086015167ffffffffffffffff8111156103505761034f610131565b5b61035c8882890161029f565b945050604086015167ffffffffffffffff81111561037d5761037c610131565b5b6103898882890161029f565b935050606061039a888289016102f0565b92505060806103ab888289016102f0565b9150509295509295909350565b600081519050919050565b7f4e487b7100000000000000000000000000000000000000000000000000000000600052602260045260246000fd5b6000600282049050600182168061040a57607f821691505b60208210810361041d5761041c6103c3565b5b50919050565b60008190508160005260206000209050919050565b60006020601f8301049050919050565b600082821b905092915050565b6000600883026104857fffffffffffffffffffffffffffffffffffffffffffffffffffffffffffffffff82610448565b61048f8683610448565b95508019841693508086168417925050509392505050565b6000819050919050565b60006104cc6104c76104c284610136565b6104a7565b610136565b9050919050565b6000819050919050565b6104e6836104b1565b6104fa6104f2826104d3565b848454610455565b825550505050565b600090565b61050f610502565b61051a8184846104dd565b505050565b5b8181101561053e57610533600082610507565b600181019050610520565b5050565b601f8211156105835761055481610423565b61055d84610438565b8101602085101561056c578190505b61058061057885610438565b83018261051f565b50505b505050565b600082821c905092915050565b60006105a660001984600802610588565b1980831691505092915050565b60006105bf8383610595565b9150826002028217905092915050565b6105d8826103b8565b67ffffffffffffffff8111156105f1576105f0610187565b5b6105fb82546103f2565b610606828285610542565b600060209050601f8311600181146106395760008415610627578287015190505b61063185826105b3565b865550610699565b601f19841661064786610423565b60005b8281101561066f5784890151825560018201915060208501945060208101905061064a565b8683101561068c5784890151610688601f891682610595565b8355505b6001600288020188555050505b505050505050565b7f4e487b7100000000000000000000000000000000000000000000000000000000600052601160045260246000fd5b60008160011c9050919050565b6000808291508390505b600185111561072757808604811115610703576107026106a1565b5b60018516156107125780820291505b8081029050610720856106d0565b94506106e7565b94509492505050565b60008261074057600190506107fc565b8161074e57600090506107fc565b8160018114610764576002811461076e5761079d565b60019150506107fc565b60ff8411156107805761077f6106a1565b5b8360020a915084821115610797576107966106a1565b5b506107fc565b5060208310610133831016604e8410600b84101617156107d25782820a9050838111156107cd576107cc6106a1565b5b6107fc565b6107df84848460016106dd565b925090508184048111156107f6576107f56106a1565b5b81810290505b9392505050565b600061080e82610136565b915061081983610136565b92506108467fffffffffffffffffffffffffffffffffffffffffffffffffffffffffffffffff8484610730565b905092915050565b600061085982610136565b915061086483610136565b925082820261087281610136565b91508282048414831517610889576108886106a1565b5b5092915050565b6113d78061089f6000396000f3fe608060405234801561001057600080fd5b50600436106100cf5760003560e01c806342966c681161008c578063883356d911610066578063883356d91461023c57806395d89b411461025a578063a9059cbb14610278578063dd62ed3e146102a8576100cf565b806342966c68146101be57806346b45af7146101ee57806370a082311461020c576100cf565b806306fdde03146100d4578063095ea7b3146100f257806318160ddd1461012257806323b872dd14610140578063313ce5671461017057806340c10f191461018e575b600080fd5b6100dc6102d8565b6040516100e99190610da3565b60405180910390f35b61010c60048036038101906101079190610e5e565b610366565b6040516101199190610eb9565b60405180910390f35b61012a610458565b6040516101379190610ee3565b60405180910390f35b61015a60048036038101906101559190610efe565b61045e565b6040516101679190610eb9565b60405180910390f35b610178610750565b6040516101859190610f6d565b60405180910390f35b6101a860048036038101906101a39190610e5e565b610763565b6040516101b59190610eb9565b60405180910390f35b6101d860048036038101906101d39190610f88565b6108ea565b6040516101e59190610eb9565b60405180910390f35b6101f6610a83565b6040516102039190610eb9565b60405180910390f35b61022660048036038101906102219190610fb5565b610a96565b6040516102339190610ee3565b60405180910390f35b610244610aae565b6040516102519190610eb9565b60405180910390f35b610262610ac1565b60405161026f9190610da3565b60405180910390f35b610292600480360381019061028d9190610e5e565b610b4f565b60405161029f9190610eb9565b60405180910390f35b6102c260048036038101906102bd9190610fe2565b610cee565b6040516102cf9190610ee3565b60405180910390f35b600080546102e590611051565b80601f016020809104026020016040519081016040528092919081815260200182805461031190611051565b801561035e5780601f106103335761010080835404028352916020019161035e565b820191906000526020600020905b81548152906001019060200180831161034157829003601f168201915b505050505081565b600081600660003373ffffffffffffffffffffffffffffffffffffffff1673ffffffffffffffffffffffffffffffffffffffff16815260200190815260200160002060008573ffffffffffffffffffffffffffffffffffffffff1673ffffffffffffffffffffffffffffffffffffffff168152602001908152602001600020819055508273ffffffffffffffffffffffffffffffffffffffff163373ffffffffffffffffffffffffffffffffffffffff167f8c5be1e5ebec7d5bd14f71427d1e84f3dd0314c0f7b2291e5b200ac8c7c3b925846040516104469190610ee3565b60405180910390a36001905092915050565b60035481565b600081600560008673ffffffffffffffffffffffffffffffffffffffff1673ffffffffffffffffffffffffffffffffffffffff1681526020019081526020016000205410156104e2576040517f08c379a00000000000000000000000000000000000000000000000000000000081526004016104d9906110ce565b60405180910390fd5b81600660008673ffffffffffffffffffffffffffffffffffffffff1673ffffffffffffffffffffffffffffffffffffffff16815260200190815260200160002060003373ffffffffffffffffffffffffffffffffffffffff1673ffffffffffffffffffffffffffffffffffffffff1681526020019081526020016000205410156105a1576040517f08c379a00000000000000000000000000000000000000000000000000000000081526004016105989061113a565b60405180910390fd5b81600560008673ffffffffffffffffffffffffffffffffffffffff1673ffffffffffffffffffffffffffffffffffffffff16815260200190815260200160002060008282546105f09190611189565b9250508190555081600560008573ffffffffffffffffffffffffffffffffffffffff1673ffffffffffffffffffffffffffffffffffffffff168152602001908152602001600020600082825461064691906111bd565b9250508190555081600660008673ffffffffffffffffffffffffffffffffffffffff1673ffffffffffffffffffffffffffffffffffffffff16815260200190815260200160002060003373ffffffffffffffffffffffffffffffffffffffff1673ffffffffffffffffffffffffffffffffffffffff16815260200190815260200160002060008282546106d99190611189565b925050819055508273ffffffffffffffffffffffffffffffffffffffff168473ffffffffffffffffffffffffffffffffffffffff167fddf252ad1be2c89b69c2b068fc378daa952ba7f163c4a11628f55a4df523b3ef8460405161073d9190610ee3565b60405180910390a3600190509392505050565b600460009054906101000a900460ff1681565b6000600260009054906101000a900460ff166107b4576040517f08c379a00000000000000000000000000000000000000000000000000000000081526004016107ab9061123d565b60405180910390fd5b600073ffffffffffffffffffffffffffffffffffffffff168373ffffffffffffffffffffffffffffffffffffffff1603610823576040517f08c379a000000000000000000000000000000000000000000000000000000000815260040161081a906112a9565b60405180910390fd5b816003600082825461083591906111bd565b9250508190555081600560008573ffffffffffffffffffffffffffffffffffffffff1673ffffffffffffffffffffffffffffffffffffffff168152602001908152602001600020600082825461088b91906111bd565b925050819055508273ffffffffffffffffffffffffffffffffffffffff167f0f6798a560793a54c3bcfe86a93cde1e73087d944c0ea20544137d4121396885836040516108d89190610ee3565b60405180910390a26001905092915050565b6000600260019054906101000a900460ff1661093b576040517f08c379a000000000000000000000000000000000000000000000000000000000815260040161093290611315565b60405180910390fd5b81600560003373ffffffffffffffffffffffffffffffffffffffff1673ffffffffffffffffffffffffffffffffffffffff1681526020019081526020016000205410156109bd576040517f08c379a00000000000000000000000000000000000000000000000000000000081526004016109b490611381565b60405180910390fd5b81600360008282546109cf9190611189565b9250508190555081600560003373ffffffffffffffffffffffffffffffffffffffff1673ffffffffffffffffffffffffffffffffffffffff1681526020019081526020016000206000828254610a259190611189565b925050819055503373ffffffffffffffffffffffffffffffffffffffff167fcc16f5dbb4873280815c1ee09dbd06736cffcc184412cf7a71a0fdb75d397ca583604051610a729190610ee3565b60405180910390a260019050919050565b600260009054906101000a900460ff1681565b60056020528060005260406000206000915090505481565b600260019054906101000a900460ff1681565b60018054610ace90611051565b80601f0160208091040260200160405190810160405280929190818152602001828054610afa90611051565b8015610b475780601f10610b1c57610100808354040283529160200191610b47565b820191906000526020600020905b815481529060010190602001808311610b2a57829003601f168201915b505050505081565b600081600560003373ffffffffffffffffffffffffffffffffffffffff1673ffffffffffffffffffffffffffffffffffffffff168152602001908152602001600020541015610bd3576040517f08c379a0000000000000000000000000000000000000000000000000000000008152600401610bca906110ce565b60405180910390fd5b81600560003373ffffffffffffffffffffffffffffffffffffffff1673ffffffffffffffffffffffffffffffffffffffff1681526020019081526020016000206000828254610c229190611189565b9250508190555081600560008573ffffffffffffffffffffffffffffffffffffffff1673ffffffffffffffffffffffffffffffffffffffff1681526020019081526020016000206000828254610c7891906111bd565b925050819055508273ffffffffffffffffffffffffffffffffffffffff163373ffffffffffffffffffffffffffffffffffffffff167fddf252ad1be2c89b69c2b068fc378daa952ba7f163c4a11628f55a4df523b3ef84604051610cdc9190610ee3565b60405180910390a36001905092915050565b6006602052816000526040600020602052806000526040600020600091509150505481565b600081519050919050565b600082825260208201905092915050565b60005b83811015610d4d578082015181840152602081019050610d32565b60008484015250505050565b6000601f19601f8301169050919050565b6000610d7582610d13565b610d7f8185610d1e565b9350610d8f818560208601610d2f565b610d9881610d59565b840191505092915050565b60006020820190508181036000830152610dbd8184610d6a565b905092915050565b600080fd5b600073ffffffffffffffffffffffffffffffffffffffff82169050919050565b6000610df582610dca565b9050919050565b610e0581610dea565b8114610e1057600080fd5b50565b600081359050610e2281610dfc565b92915050565b6000819050919050565b610e3b81610e28565b8114610e4657600080fd5b50565b600081359050610e5881610e32565b92915050565b60008060408385031215610e7557610e74610dc5565b5b6000610e8385828601610e13565b9250506020610e9485828601610e49565b9150509250929050565b60008115159050919050565b610eb381610e9e565b82525050565b6000602082019050610ece6000830184610eaa565b92915050565b610edd81610e28565b82525050565b6000602082019050610ef86000830184610ed4565b92915050565b600080600060608486031215610f1757610f16610dc5565b5b6000610f2586828701610e13565b9350506020610f3686828701610e13565b9250506040610f4786828701610e49565b9150509250925092565b600060ff82169050919050565b610f6781610f51565b82525050565b6000602082019050610f826000830184610f5e565b92915050565b600060208284031215610f9e57610f9d610dc5565b5b6000610fac84828501610e49565b91505092915050565b600060208284031215610fcb57610fca610dc5565b5b6000610fd984828501610e13565b91505092915050565b60008060408385031215610ff957610ff8610dc5565b5b600061100785828601610e13565b925050602061101885828601610e13565b9150509250929050565b7f4e487b7100000000000000000000000000000000000000000000000000000000600052602260045260246000fd5b6000600282049050600182168061106957607f821691505b60208210810361107c5761107b611022565b5b50919050565b7f496e73756666696369656e742062616c616e6365000000000000000000000000600082015250565b60006110b8601483610d1e565b91506110c382611082565b602082019050919050565b600060208201905081810360008301526110e7816110ab565b9050919050565b7f416c6c6f77616e63652065786365656465640000000000000000000000000000600082015250565b6000611124601283610d1e565b915061112f826110ee565b602082019050919050565b6000602082019050818103600083015261115381611117565b9050919050565b7f4e487b7100000000000000000000000000000000000000000000000000000000600052601160045260246000fd5b600061119482610e28565b915061119f83610e28565b92508282039050818111156111b7576111b661115a565b5b92915050565b60006111c882610e28565b91506111d383610e28565b92508282019050808211156111eb576111ea61115a565b5b92915050565b7f4d696e74696e67206973206e6f7420616c6c6f77656400000000000000000000600082015250565b6000611227601683610d1e565b9150611232826111f1565b602082019050919050565b600060208201905081810360008301526112568161121a565b9050919050565b7f43616e6e6f74206d696e7420746f20746865207a65726f206164647265737300600082015250565b6000611293601f83610d1e565b915061129e8261125d565b602082019050919050565b600060208201905081810360008301526112c281611286565b9050919050565b7f4275726e696e67206973206e6f7420616c6c6f77656400000000000000000000600082015250565b60006112ff601683610d1e565b915061130a826112c9565b602082019050919050565b6000602082019050818103600083015261132e816112f2565b9050919050565b7f496e73756666696369656e742062616c616e636520746f206275726e00000000600082015250565b600061136b601c83610d1e565b915061137682611335565b602082019050919050565b6000602082019050818103600083015261139a8161135e565b905091905056fea264697066735822122099c8fd9dc6384c4dc7f8b4b77fb096383a1dddacfebafac48c295ceb475b0cc564736f6c634300081c0033a264697066735822122034baea6e626dc94ef602fb6926bc7a76fd4f65ae72a29cc8f6621c3b9ac2fd6064736f6c634300081c00336080604052348015600f57600080fd5b506105068061001f6000396000f3fe608060405234801561001057600080fd5b50600436106100365760003560e01c806343aaa6901461003b578063c489744b14610057575b600080fd5b6100556004803603810190610050919061027a565b610087565b005b610071600480360381019061006c91906102e1565b610158565b60405161007e9190610330565b60405180910390f35b600084905060008290508173ffffffffffffffffffffffffffffffffffffffff166323b872dd8686846040518463ffffffff1660e01b81526004016100ce9392919061035a565b6020604051808303816000875af11580156100ed573d6000803e3d6000fd5b505050506040513d601f19601f8201168201806040525081019061011191906103c9565b610150576040517f08c379a000000000000000000000000000000000000000000000000000000000815260040161014790610453565b60405180910390fd5b505050505050565b6000808390508073ffffffffffffffffffffffffffffffffffffffff166370a08231846040518263ffffffff1660e01b81526004016101979190610473565b602060405180830381865afa1580156101b4573d6000803e3d6000fd5b505050506040513d601f19601f820116820180604052508101906101d891906104a3565b91505092915050565b600080fd5b600073ffffffffffffffffffffffffffffffffffffffff82169050919050565b6000610211826101e6565b9050919050565b61022181610206565b811461022c57600080fd5b50565b60008135905061023e81610218565b92915050565b6000819050919050565b61025781610244565b811461026257600080fd5b50565b6000813590506102748161024e565b92915050565b60008060008060808587031215610294576102936101e1565b5b60006102a28782880161022f565b94505060206102b38782880161022f565b93505060406102c48782880161022f565b92505060606102d587828801610265565b91505092959194509250565b600080604083850312156102f8576102f76101e1565b5b60006103068582860161022f565b92505060206103178582860161022f565b9150509250929050565b61032a81610244565b82525050565b60006020820190506103456000830184610321565b92915050565b61035481610206565b82525050565b600060608201905061036f600083018661034b565b61037c602083018561034b565b6103896040830184610321565b949350505050565b60008115159050919050565b6103a681610391565b81146103b157600080fd5b50565b6000815190506103c38161039d565b92915050565b6000602082840312156103df576103de6101e1565b5b60006103ed848285016103b4565b91505092915050565b600082825260208201905092915050565b7f5472616e73666572206661696c65640000000000000000000000000000000000600082015250565b600061043d600f836103f6565b915061044882610407565b602082019050919050565b6000602082019050818103600083015261046c81610430565b9050919050565b6000602082019050610488600083018461034b565b92915050565b60008151905061049d8161024e565b92915050565b6000602082840312156104b9576104b86101e1565b5b60006104c78482850161048e565b9150509291505056fea26469706673582212202070d94ef4e914e7050291535de08f720c9c227d3e51df010adbc33277e3970764736f6c634300081c0033",
  "linkReferences": {},
  "deployedLinkReferences": {}
}